{
	"RpsGame.sol": {
		"RpsGame": {
			"abi": [
				{
					"inputs": [
						{
							"internalType": "uint256",
							"name": "betAmount",
							"type": "uint256"
						}
					],
					"stateMutability": "nonpayable",
					"type": "constructor"
				},
				{
					"inputs": [],
					"name": "_betAmount",
					"outputs": [
						{
							"internalType": "uint256",
							"name": "",
							"type": "uint256"
						}
					],
					"stateMutability": "view",
					"type": "function"
				},
				{
					"inputs": [],
					"name": "_p1",
					"outputs": [
						{
							"internalType": "address payable",
							"name": "",
							"type": "address"
						}
					],
					"stateMutability": "view",
					"type": "function"
				},
				{
					"inputs": [],
					"name": "_p1DecChoice",
					"outputs": [
						{
							"internalType": "bytes1",
							"name": "",
							"type": "bytes1"
						}
					],
					"stateMutability": "view",
					"type": "function"
				},
				{
					"inputs": [],
					"name": "_p1EncChoice",
					"outputs": [
						{
							"internalType": "bytes1",
							"name": "",
							"type": "bytes1"
						}
					],
					"stateMutability": "view",
					"type": "function"
				},
				{
					"inputs": [],
					"name": "_p1Key",
					"outputs": [
						{
							"internalType": "bytes1",
							"name": "",
							"type": "bytes1"
						}
					],
					"stateMutability": "view",
					"type": "function"
				},
				{
					"inputs": [],
					"name": "_p2",
					"outputs": [
						{
							"internalType": "address payable",
							"name": "",
							"type": "address"
						}
					],
					"stateMutability": "view",
					"type": "function"
				},
				{
					"inputs": [],
					"name": "_p2DecChoice",
					"outputs": [
						{
							"internalType": "bytes1",
							"name": "",
							"type": "bytes1"
						}
					],
					"stateMutability": "view",
					"type": "function"
				},
				{
					"inputs": [
						{
							"internalType": "uint256",
							"name": "",
							"type": "uint256"
						}
					],
					"name": "gameInfo",
					"outputs": [
						{
							"internalType": "uint256",
							"name": "gameStartTime",
							"type": "uint256"
						},
						{
							"internalType": "uint256",
							"name": "gameLockTime",
							"type": "uint256"
						},
						{
							"internalType": "address payable",
							"name": "player1",
							"type": "address"
						},
						{
							"internalType": "address payable",
							"name": "player2",
							"type": "address"
						},
						{
							"internalType": "string",
							"name": "status",
							"type": "string"
						}
					],
					"stateMutability": "view",
					"type": "function"
				},
				{
					"inputs": [
						{
							"internalType": "bytes1",
							"name": "_p2Choice",
							"type": "bytes1"
						}
					],
					"name": "joinGame",
					"outputs": [],
					"stateMutability": "payable",
					"type": "function"
				},
				{
					"inputs": [
						{
							"internalType": "bytes1",
							"name": "_pKey",
							"type": "bytes1"
						}
					],
					"name": "revealChoice",
					"outputs": [],
					"stateMutability": "nonpayable",
					"type": "function"
				},
				{
					"inputs": [
						{
							"internalType": "bytes1",
							"name": "_p1Choice",
							"type": "bytes1"
						}
					],
					"name": "startGame",
					"outputs": [],
					"stateMutability": "payable",
					"type": "function"
				},
				{
					"inputs": [],
					"name": "updateCurrentGame",
					"outputs": [],
					"stateMutability": "nonpayable",
					"type": "function"
				}
			],
			"devdoc": {
				"kind": "dev",
				"methods": {},
				"version": 1
			},
			"evm": {
				"assembly": "    /* \"RpsGame.sol\":1676:9771  contract RpsGame {... */\n  mstore(0x40, 0x80)\n    /* \"RpsGame.sol\":2418:2492  constructor(uint betAmount) public {... */\n  callvalue\n  dup1\n  iszero\n  tag_1\n  jumpi\n  0x00\n  dup1\n  revert\ntag_1:\n  pop\n  mload(0x40)\n  sub(codesize, bytecodeSize)\n  dup1\n  bytecodeSize\n  dup4\n  codecopy\n  dup2\n  dup2\n  add\n  0x40\n  mstore\n  0x20\n  dup2\n  lt\n  iszero\n  tag_2\n  jumpi\n  0x00\n  dup1\n  revert\ntag_2:\n  dup2\n  add\n  swap1\n  dup1\n  dup1\n  mload\n  swap1\n  0x20\n  add\n  swap1\n  swap3\n  swap2\n  swap1\n  pop\n  pop\n  pop\n    /* \"RpsGame.sol\":2476:2485  betAmount */\n  dup1\n    /* \"RpsGame.sol\":2463:2473  _betAmount */\n  0x00\n    /* \"RpsGame.sol\":2463:2485  _betAmount = betAmount */\n  dup2\n  swap1\n  sstore\n  pop\n    /* \"RpsGame.sol\":2418:2492  constructor(uint betAmount) public {... */\n  pop\n    /* \"RpsGame.sol\":1676:9771  contract RpsGame {... */\n  dataSize(sub_0)\n  dup1\n  dataOffset(sub_0)\n  0x00\n  codecopy\n  0x00\n  return\nstop\n\nsub_0: assembly {\n        /* \"RpsGame.sol\":1676:9771  contract RpsGame {... */\n      mstore(0x40, 0x80)\n      jumpi(tag_1, lt(calldatasize, 0x04))\n      shr(0xe0, calldataload(0x00))\n      dup1\n      0xa6f81668\n      gt\n      tag_14\n      jumpi\n      dup1\n      0xa6f81668\n      eq\n      tag_8\n      jumpi\n      dup1\n      0xb053055b\n      eq\n      tag_9\n      jumpi\n      dup1\n      0xb5031b39\n      eq\n      tag_10\n      jumpi\n      dup1\n      0xc2ff5560\n      eq\n      tag_11\n      jumpi\n      dup1\n      0xcafc79b8\n      eq\n      tag_12\n      jumpi\n      dup1\n      0xe2f0eaf8\n      eq\n      tag_13\n      jumpi\n      jump(tag_1)\n    tag_14:\n      dup1\n      0x031507e5\n      eq\n      tag_2\n      jumpi\n      dup1\n      0x17a78540\n      eq\n      tag_3\n      jumpi\n      dup1\n      0x477560cb\n      eq\n      tag_4\n      jumpi\n      dup1\n      0x4914674a\n      eq\n      tag_5\n      jumpi\n      dup1\n      0x51f94a90\n      eq\n      tag_6\n      jumpi\n      dup1\n      0x93327ee1\n      eq\n      tag_7\n      jumpi\n    tag_1:\n      0x00\n      dup1\n      revert\n        /* \"RpsGame.sol\":1757:1783  address payable public _p1 */\n    tag_2:\n      callvalue\n      dup1\n      iszero\n      tag_15\n      jumpi\n      0x00\n      dup1\n      revert\n    tag_15:\n      pop\n      tag_16\n      tag_17\n      jump\t// in\n    tag_16:\n      mload(0x40)\n      dup1\n      dup3\n      0xffffffffffffffffffffffffffffffffffffffff\n      and\n      dup2\n      mstore\n      0x20\n      add\n      swap2\n      pop\n      pop\n      mload(0x40)\n      dup1\n      swap2\n      sub\n      swap1\n      return\n        /* \"RpsGame.sol\":3703:4484  function joinGame(bytes1 _p2Choice) external payable {... */\n    tag_3:\n      tag_18\n      0x04\n      dup1\n      calldatasize\n      sub\n      0x20\n      dup2\n      lt\n      iszero\n      tag_19\n      jumpi\n      0x00\n      dup1\n      revert\n    tag_19:\n      dup2\n      add\n      swap1\n      dup1\n      dup1\n      calldataload\n      not(0xffffffffffffffffffffffffffffffffffffffffffffffffffffffffffffff)\n      and\n      swap1\n      0x20\n      add\n      swap1\n      swap3\n      swap2\n      swap1\n      pop\n      pop\n      pop\n      tag_20\n      jump\t// in\n    tag_18:\n      stop\n        /* \"RpsGame.sol\":1729:1751  uint public _betAmount */\n    tag_4:\n      callvalue\n      dup1\n      iszero\n      tag_21\n      jumpi\n      0x00\n      dup1\n      revert\n    tag_21:\n      pop\n      tag_22\n      tag_23\n      jump\t// in\n    tag_22:\n      mload(0x40)\n      dup1\n      dup3\n      dup2\n      mstore\n      0x20\n      add\n      swap2\n      pop\n      pop\n      mload(0x40)\n      dup1\n      swap2\n      sub\n      swap1\n      return\n        /* \"RpsGame.sol\":1879:1905  bytes1 public _p1DecChoice */\n    tag_5:\n      callvalue\n      dup1\n      iszero\n      tag_24\n      jumpi\n      0x00\n      dup1\n      revert\n    tag_24:\n      pop\n      tag_25\n      tag_26\n      jump\t// in\n    tag_25:\n      mload(0x40)\n      dup1\n      dup3\n      not(0xffffffffffffffffffffffffffffffffffffffffffffffffffffffffffffff)\n      and\n      dup2\n      mstore\n      0x20\n      add\n      swap2\n      pop\n      pop\n      mload(0x40)\n      dup1\n      swap2\n      sub\n      swap1\n      return\n        /* \"RpsGame.sol\":1853:1873  bytes1 public _p1Key */\n    tag_6:\n      callvalue\n      dup1\n      iszero\n      tag_27\n      jumpi\n      0x00\n      dup1\n      revert\n    tag_27:\n      pop\n      tag_28\n      tag_29\n      jump\t// in\n    tag_28:\n      mload(0x40)\n      dup1\n      dup3\n      not(0xffffffffffffffffffffffffffffffffffffffffffffffffffffffffffffff)\n      and\n      dup2\n      mstore\n      0x20\n      add\n      swap2\n      pop\n      pop\n      mload(0x40)\n      dup1\n      swap2\n      sub\n      swap1\n      return\n        /* \"RpsGame.sol\":1789:1815  address payable public _p2 */\n    tag_7:\n      callvalue\n      dup1\n      iszero\n      tag_30\n      jumpi\n      0x00\n      dup1\n      revert\n    tag_30:\n      pop\n      tag_31\n      tag_32\n      jump\t// in\n    tag_31:\n      mload(0x40)\n      dup1\n      dup3\n      0xffffffffffffffffffffffffffffffffffffffff\n      and\n      dup2\n      mstore\n      0x20\n      add\n      swap2\n      pop\n      pop\n      mload(0x40)\n      dup1\n      swap2\n      sub\n      swap1\n      return\n        /* \"RpsGame.sol\":2323:2349  GameInfo[] public gameInfo */\n    tag_8:\n      callvalue\n      dup1\n      iszero\n      tag_33\n      jumpi\n      0x00\n      dup1\n      revert\n    tag_33:\n      pop\n      tag_34\n      0x04\n      dup1\n      calldatasize\n      sub\n      0x20\n      dup2\n      lt\n      iszero\n      tag_35\n      jumpi\n      0x00\n      dup1\n      revert\n    tag_35:\n      dup2\n      add\n      swap1\n      dup1\n      dup1\n      calldataload\n      swap1\n      0x20\n      add\n      swap1\n      swap3\n      swap2\n      swap1\n      pop\n      pop\n      pop\n      tag_36\n      jump\t// in\n    tag_34:\n      mload(0x40)\n      dup1\n      dup7\n      dup2\n      mstore\n      0x20\n      add\n      dup6\n      dup2\n      mstore\n      0x20\n      add\n      dup5\n      0xffffffffffffffffffffffffffffffffffffffff\n      and\n      dup2\n      mstore\n      0x20\n      add\n      dup4\n      0xffffffffffffffffffffffffffffffffffffffff\n      and\n      dup2\n      mstore\n      0x20\n      add\n      dup1\n      0x20\n      add\n      dup3\n      dup2\n      sub\n      dup3\n      mstore\n      dup4\n      dup2\n      dup2\n      mload\n      dup2\n      mstore\n      0x20\n      add\n      swap2\n      pop\n      dup1\n      mload\n      swap1\n      0x20\n      add\n      swap1\n      dup1\n      dup4\n      dup4\n      0x00\n    tag_37:\n      dup4\n      dup2\n      lt\n      iszero\n      tag_39\n      jumpi\n      dup1\n      dup3\n      add\n      mload\n      dup2\n      dup5\n      add\n      mstore\n      0x20\n      dup2\n      add\n      swap1\n      pop\n      jump(tag_37)\n    tag_39:\n      pop\n      pop\n      pop\n      pop\n      swap1\n      pop\n      swap1\n      dup2\n      add\n      swap1\n      0x1f\n      and\n      dup1\n      iszero\n      tag_40\n      jumpi\n      dup1\n      dup3\n      sub\n      dup1\n      mload\n      0x01\n      dup4\n      0x20\n      sub\n      0x0100\n      exp\n      sub\n      not\n      and\n      dup2\n      mstore\n      0x20\n      add\n      swap2\n      pop\n    tag_40:\n      pop\n      swap7\n      pop\n      pop\n      pop\n      pop\n      pop\n      pop\n      pop\n      mload(0x40)\n      dup1\n      swap2\n      sub\n      swap1\n      return\n        /* \"RpsGame.sol\":2704:3199  function startGame(bytes1 _p1Choice) external payable {... */\n    tag_9:\n      tag_41\n      0x04\n      dup1\n      calldatasize\n      sub\n      0x20\n      dup2\n      lt\n      iszero\n      tag_42\n      jumpi\n      0x00\n      dup1\n      revert\n    tag_42:\n      dup2\n      add\n      swap1\n      dup1\n      dup1\n      calldataload\n      not(0xffffffffffffffffffffffffffffffffffffffffffffffffffffffffffffff)\n      and\n      swap1\n      0x20\n      add\n      swap1\n      swap3\n      swap2\n      swap1\n      pop\n      pop\n      pop\n      tag_43\n      jump\t// in\n    tag_41:\n      stop\n        /* \"RpsGame.sol\":8982:9767  function updateCurrentGame() external {... */\n    tag_10:\n      callvalue\n      dup1\n      iszero\n      tag_44\n      jumpi\n      0x00\n      dup1\n      revert\n    tag_44:\n      pop\n      tag_45\n      tag_46\n      jump\t// in\n    tag_45:\n      stop\n        /* \"RpsGame.sol\":1911:1937  bytes1 public _p2DecChoice */\n    tag_11:\n      callvalue\n      dup1\n      iszero\n      tag_47\n      jumpi\n      0x00\n      dup1\n      revert\n    tag_47:\n      pop\n      tag_48\n      tag_49\n      jump\t// in\n    tag_48:\n      mload(0x40)\n      dup1\n      dup3\n      not(0xffffffffffffffffffffffffffffffffffffffffffffffffffffffffffffff)\n      and\n      dup2\n      mstore\n      0x20\n      add\n      swap2\n      pop\n      pop\n      mload(0x40)\n      dup1\n      swap2\n      sub\n      swap1\n      return\n        /* \"RpsGame.sol\":1821:1847  bytes1 public _p1EncChoice */\n    tag_12:\n      callvalue\n      dup1\n      iszero\n      tag_50\n      jumpi\n      0x00\n      dup1\n      revert\n    tag_50:\n      pop\n      tag_51\n      tag_52\n      jump\t// in\n    tag_51:\n      mload(0x40)\n      dup1\n      dup3\n      not(0xffffffffffffffffffffffffffffffffffffffffffffffffffffffffffffff)\n      and\n      dup2\n      mstore\n      0x20\n      add\n      swap2\n      pop\n      pop\n      mload(0x40)\n      dup1\n      swap2\n      sub\n      swap1\n      return\n        /* \"RpsGame.sol\":4775:5437  function revealChoice(bytes1 _pKey) external {... */\n    tag_13:\n      callvalue\n      dup1\n      iszero\n      tag_53\n      jumpi\n      0x00\n      dup1\n      revert\n    tag_53:\n      pop\n      tag_54\n      0x04\n      dup1\n      calldatasize\n      sub\n      0x20\n      dup2\n      lt\n      iszero\n      tag_55\n      jumpi\n      0x00\n      dup1\n      revert\n    tag_55:\n      dup2\n      add\n      swap1\n      dup1\n      dup1\n      calldataload\n      not(0xffffffffffffffffffffffffffffffffffffffffffffffffffffffffffffff)\n      and\n      swap1\n      0x20\n      add\n      swap1\n      swap3\n      swap2\n      swap1\n      pop\n      pop\n      pop\n      tag_56\n      jump\t// in\n    tag_54:\n      stop\n        /* \"RpsGame.sol\":1757:1783  address payable public _p1 */\n    tag_17:\n      0x01\n      0x00\n      swap1\n      sload\n      swap1\n      0x0100\n      exp\n      swap1\n      div\n      0xffffffffffffffffffffffffffffffffffffffff\n      and\n      dup2\n      jump\t// out\n        /* \"RpsGame.sol\":3703:4484  function joinGame(bytes1 _p2Choice) external payable {... */\n    tag_20:\n        /* \"RpsGame.sol\":3789:3790  0 */\n      0x00\n        /* \"RpsGame.sol\":3774:3791  _p1 != address(0) */\n      0xffffffffffffffffffffffffffffffffffffffff\n      and\n        /* \"RpsGame.sol\":3774:3777  _p1 */\n      0x01\n      0x00\n      swap1\n      sload\n      swap1\n      0x0100\n      exp\n      swap1\n      div\n      0xffffffffffffffffffffffffffffffffffffffff\n      and\n        /* \"RpsGame.sol\":3774:3791  _p1 != address(0) */\n      0xffffffffffffffffffffffffffffffffffffffff\n      and\n      eq\n      iszero\n        /* \"RpsGame.sol\":3774:3812  _p1 != address(0) && _p2 == address(0) */\n      dup1\n      iszero\n      tag_58\n      jumpi\n      pop\n        /* \"RpsGame.sol\":3810:3811  0 */\n      0x00\n        /* \"RpsGame.sol\":3795:3812  _p2 == address(0) */\n      0xffffffffffffffffffffffffffffffffffffffff\n      and\n        /* \"RpsGame.sol\":3795:3798  _p2 */\n      0x02\n      0x00\n      swap1\n      sload\n      swap1\n      0x0100\n      exp\n      swap1\n      div\n      0xffffffffffffffffffffffffffffffffffffffff\n      and\n        /* \"RpsGame.sol\":3795:3812  _p2 == address(0) */\n      0xffffffffffffffffffffffffffffffffffffffff\n      and\n      eq\n        /* \"RpsGame.sol\":3774:3812  _p1 != address(0) && _p2 == address(0) */\n    tag_58:\n        /* \"RpsGame.sol\":3766:3843  require(_p1 != address(0) && _p2 == address(0), \"Game locked, try startGame\") */\n      tag_59\n      jumpi\n      mload(0x40)\n      0x08c379a000000000000000000000000000000000000000000000000000000000\n      dup2\n      mstore\n      0x04\n      add\n      dup1\n      dup1\n      0x20\n      add\n      dup3\n      dup2\n      sub\n      dup3\n      mstore\n      0x1a\n      dup2\n      mstore\n      0x20\n      add\n      dup1\n      0x47616d65206c6f636b65642c2074727920737461727447616d65000000000000\n      dup2\n      mstore\n      pop\n      0x20\n      add\n      swap2\n      pop\n      pop\n      mload(0x40)\n      dup1\n      swap2\n      sub\n      swap1\n      revert\n    tag_59:\n        /* \"RpsGame.sol\":3874:3884  _betAmount */\n      sload(0x00)\n        /* \"RpsGame.sol\":3861:3870  msg.value */\n      callvalue\n        /* \"RpsGame.sol\":3861:3884  msg.value == _betAmount */\n      eq\n        /* \"RpsGame.sol\":3853:3914  require(msg.value == _betAmount, \"Place required bet amount\") */\n      tag_60\n      jumpi\n      mload(0x40)\n      0x08c379a000000000000000000000000000000000000000000000000000000000\n      dup2\n      mstore\n      0x04\n      add\n      dup1\n      dup1\n      0x20\n      add\n      dup3\n      dup2\n      sub\n      dup3\n      mstore\n      0x19\n      dup2\n      mstore\n      0x20\n      add\n      dup1\n      0x506c6163652072657175697265642062657420616d6f756e7400000000000000\n      dup2\n      mstore\n      pop\n      0x20\n      add\n      swap2\n      pop\n      pop\n      mload(0x40)\n      dup1\n      swap2\n      sub\n      swap1\n      revert\n    tag_60:\n        /* \"RpsGame.sol\":3924:3945  GameInfo storage game */\n      0x00\n        /* \"RpsGame.sol\":3948:3956  gameInfo */\n      0x03\n        /* \"RpsGame.sol\":3957:3981  (gameInfo.length).sub(1) */\n      tag_61\n        /* \"RpsGame.sol\":3979:3980  1 */\n      0x01\n        /* \"RpsGame.sol\":3958:3966  gameInfo */\n      0x03\n        /* \"RpsGame.sol\":3958:3973  gameInfo.length */\n      dup1\n      sload\n      swap1\n      pop\n        /* \"RpsGame.sol\":3957:3978  (gameInfo.length).sub */\n      tag_62\n      swap1\n        /* \"RpsGame.sol\":3957:3981  (gameInfo.length).sub(1) */\n      swap2\n      swap1\n      0xffffffff\n      and\n      jump\t// in\n    tag_61:\n        /* \"RpsGame.sol\":3948:3982  gameInfo[(gameInfo.length).sub(1)] */\n      dup2\n      sload\n      dup2\n      lt\n      tag_63\n      jumpi\n      invalid\n    tag_63:\n      swap1\n      0x00\n      mstore\n      keccak256(0x00, 0x20)\n      swap1\n      0x05\n      mul\n      add\n        /* \"RpsGame.sol\":3924:3982  GameInfo storage game = gameInfo[(gameInfo.length).sub(1)] */\n      swap1\n      pop\n        /* \"RpsGame.sol\":3992:4010  address payable p1 */\n      0x00\n        /* \"RpsGame.sol\":4013:4017  game */\n      dup2\n        /* \"RpsGame.sol\":4013:4025  game.player1 */\n      0x02\n      add\n      0x00\n      swap1\n      sload\n      swap1\n      0x0100\n      exp\n      swap1\n      div\n      0xffffffffffffffffffffffffffffffffffffffff\n      and\n        /* \"RpsGame.sol\":3992:4025  address payable p1 = game.player1 */\n      swap1\n      pop\n        /* \"RpsGame.sol\":4072:4080  48 hours */\n      0x02a300\n        /* \"RpsGame.sol\":4039:4068  (now).sub(game.gameStartTime) */\n      tag_65\n        /* \"RpsGame.sol\":4049:4053  game */\n      dup4\n        /* \"RpsGame.sol\":4049:4067  game.gameStartTime */\n      0x00\n      add\n      sload\n        /* \"RpsGame.sol\":4040:4043  now */\n      timestamp\n        /* \"RpsGame.sol\":4039:4048  (now).sub */\n      tag_62\n      swap1\n        /* \"RpsGame.sol\":4039:4068  (now).sub(game.gameStartTime) */\n      swap2\n      swap1\n      0xffffffff\n      and\n      jump\t// in\n    tag_65:\n        /* \"RpsGame.sol\":4039:4080  (now).sub(game.gameStartTime) <= 48 hours */\n      gt\n        /* \"RpsGame.sol\":4035:4477  if ((now).sub(game.gameStartTime) <= 48 hours) {... */\n      tag_66\n      jumpi\n        /* \"RpsGame.sol\":4102:4112  msg.sender */\n      caller\n        /* \"RpsGame.sol\":4096:4099  _p2 */\n      0x02\n      0x00\n        /* \"RpsGame.sol\":4096:4112  _p2 = msg.sender */\n      0x0100\n      exp\n      dup2\n      sload\n      dup2\n      0xffffffffffffffffffffffffffffffffffffffff\n      mul\n      not\n      and\n      swap1\n      dup4\n      0xffffffffffffffffffffffffffffffffffffffff\n      and\n      mul\n      or\n      swap1\n      sstore\n      pop\n        /* \"RpsGame.sol\":4141:4150  _p2Choice */\n      dup3\n        /* \"RpsGame.sol\":4126:4138  _p2DecChoice */\n      0x02\n      0x17\n        /* \"RpsGame.sol\":4126:4150  _p2DecChoice = _p2Choice */\n      0x0100\n      exp\n      dup2\n      sload\n      dup2\n      0xff\n      mul\n      not\n      and\n      swap1\n      dup4\n      0xf8\n      shr\n      mul\n      or\n      swap1\n      sstore\n      pop\n        /* \"RpsGame.sol\":4184:4187  now */\n      timestamp\n        /* \"RpsGame.sol\":4164:4168  game */\n      dup3\n        /* \"RpsGame.sol\":4164:4181  game.gameLockTime */\n      0x01\n      add\n        /* \"RpsGame.sol\":4164:4187  game.gameLockTime = now */\n      dup2\n      swap1\n      sstore\n      pop\n        /* \"RpsGame.sol\":4216:4219  _p2 */\n      0x02\n      0x00\n      swap1\n      sload\n      swap1\n      0x0100\n      exp\n      swap1\n      div\n      0xffffffffffffffffffffffffffffffffffffffff\n      and\n        /* \"RpsGame.sol\":4201:4205  game */\n      dup3\n        /* \"RpsGame.sol\":4201:4213  game.player2 */\n      0x03\n      add\n      0x00\n        /* \"RpsGame.sol\":4201:4219  game.player2 = _p2 */\n      0x0100\n      exp\n      dup2\n      sload\n      dup2\n      0xffffffffffffffffffffffffffffffffffffffff\n      mul\n      not\n      and\n      swap1\n      dup4\n      0xffffffffffffffffffffffffffffffffffffffff\n      and\n      mul\n      or\n      swap1\n      sstore\n      pop\n        /* \"RpsGame.sol\":4233:4303  game.status = \"Game in progress. Waiting for player1 to reveal choice\" */\n      mload(0x40)\n      dup1\n      0x60\n      add\n      0x40\n      mstore\n      dup1\n      0x36\n      dup2\n      mstore\n      0x20\n      add\n      data_6120c960111c1a4ee2a1cdbd0826181b85a28639902bb0d171bf9a175d4180af\n      0x36\n      swap2\n      codecopy\n        /* \"RpsGame.sol\":4233:4237  game */\n      dup3\n        /* \"RpsGame.sol\":4233:4244  game.status */\n      0x04\n      add\n        /* \"RpsGame.sol\":4233:4303  game.status = \"Game in progress. Waiting for player1 to reveal choice\" */\n      swap1\n      dup1\n      mload\n      swap1\n      0x20\n      add\n      swap1\n      tag_67\n      swap3\n      swap2\n      swap1\n      tag_68\n      jump\t// in\n    tag_67:\n      pop\n        /* \"RpsGame.sol\":4035:4477  if ((now).sub(game.gameStartTime) <= 48 hours) {... */\n      jump(tag_69)\n    tag_66:\n        /* \"RpsGame.sol\":4335:4404  game.status = \"Game timed out. No player2 joined. Refund to player1.\" */\n      mload(0x40)\n      dup1\n      0x60\n      add\n      0x40\n      mstore\n      dup1\n      0x35\n      dup2\n      mstore\n      0x20\n      add\n      data_f7d77d983cae7d1255cbc443f36ac374571f01ade17ad33d7ee2aeb012c29778\n      0x35\n      swap2\n      codecopy\n        /* \"RpsGame.sol\":4335:4339  game */\n      dup3\n        /* \"RpsGame.sol\":4335:4346  game.status */\n      0x04\n      add\n        /* \"RpsGame.sol\":4335:4404  game.status = \"Game timed out. No player2 joined. Refund to player1.\" */\n      swap1\n      dup1\n      mload\n      swap1\n      0x20\n      add\n      swap1\n      tag_70\n      swap3\n      swap2\n      swap1\n      tag_68\n      jump\t// in\n    tag_70:\n      pop\n        /* \"RpsGame.sol\":4418:4429  resetGame() */\n      tag_71\n        /* \"RpsGame.sol\":4418:4427  resetGame */\n      tag_72\n        /* \"RpsGame.sol\":4418:4429  resetGame() */\n      jump\t// in\n    tag_71:\n        /* \"RpsGame.sol\":4443:4445  p1 */\n      dup1\n        /* \"RpsGame.sol\":4443:4454  p1.transfer */\n      0xffffffffffffffffffffffffffffffffffffffff\n      and\n        /* \"RpsGame.sol\":4443:4466  p1.transfer(_betAmount) */\n      0x08fc\n        /* \"RpsGame.sol\":4455:4465  _betAmount */\n      sload(0x00)\n        /* \"RpsGame.sol\":4443:4466  p1.transfer(_betAmount) */\n      swap1\n      dup2\n      iszero\n      mul\n      swap1\n      mload(0x40)\n      0x00\n      mload(0x40)\n      dup1\n      dup4\n      sub\n      dup2\n      dup6\n      dup9\n      dup9\n      call\n      swap4\n      pop\n      pop\n      pop\n      pop\n      iszero\n      dup1\n      iszero\n      tag_74\n      jumpi\n      returndatasize\n      0x00\n      dup1\n      returndatacopy\n      revert(0x00, returndatasize)\n    tag_74:\n      pop\n        /* \"RpsGame.sol\":4035:4477  if ((now).sub(game.gameStartTime) <= 48 hours) {... */\n    tag_69:\n        /* \"RpsGame.sol\":3703:4484  function joinGame(bytes1 _p2Choice) external payable {... */\n      pop\n      pop\n      pop\n      jump\t// out\n        /* \"RpsGame.sol\":1729:1751  uint public _betAmount */\n    tag_23:\n      sload(0x00)\n      dup2\n      jump\t// out\n        /* \"RpsGame.sol\":1879:1905  bytes1 public _p1DecChoice */\n    tag_26:\n      0x02\n      0x16\n      swap1\n      sload\n      swap1\n      0x0100\n      exp\n      swap1\n      div\n      0xf8\n      shl\n      dup2\n      jump\t// out\n        /* \"RpsGame.sol\":1853:1873  bytes1 public _p1Key */\n    tag_29:\n      0x02\n      0x15\n      swap1\n      sload\n      swap1\n      0x0100\n      exp\n      swap1\n      div\n      0xf8\n      shl\n      dup2\n      jump\t// out\n        /* \"RpsGame.sol\":1789:1815  address payable public _p2 */\n    tag_32:\n      0x02\n      0x00\n      swap1\n      sload\n      swap1\n      0x0100\n      exp\n      swap1\n      div\n      0xffffffffffffffffffffffffffffffffffffffff\n      and\n      dup2\n      jump\t// out\n        /* \"RpsGame.sol\":2323:2349  GameInfo[] public gameInfo */\n    tag_36:\n      0x03\n      dup2\n      dup2\n      sload\n      dup2\n      lt\n      tag_75\n      jumpi\n      invalid\n    tag_75:\n      swap1\n      0x00\n      mstore\n      keccak256(0x00, 0x20)\n      swap1\n      0x05\n      mul\n      add\n      0x00\n      swap2\n      pop\n      swap1\n      pop\n      dup1\n      0x00\n      add\n      sload\n      swap1\n      dup1\n      0x01\n      add\n      sload\n      swap1\n      dup1\n      0x02\n      add\n      0x00\n      swap1\n      sload\n      swap1\n      0x0100\n      exp\n      swap1\n      div\n      0xffffffffffffffffffffffffffffffffffffffff\n      and\n      swap1\n      dup1\n      0x03\n      add\n      0x00\n      swap1\n      sload\n      swap1\n      0x0100\n      exp\n      swap1\n      div\n      0xffffffffffffffffffffffffffffffffffffffff\n      and\n      swap1\n      dup1\n      0x04\n      add\n      dup1\n      sload\n      0x01\n      dup2\n      0x01\n      and\n      iszero\n      0x0100\n      mul\n      sub\n      and\n      0x02\n      swap1\n      div\n      dup1\n      0x1f\n      add\n      0x20\n      dup1\n      swap2\n      div\n      mul\n      0x20\n      add\n      mload(0x40)\n      swap1\n      dup2\n      add\n      0x40\n      mstore\n      dup1\n      swap3\n      swap2\n      swap1\n      dup2\n      dup2\n      mstore\n      0x20\n      add\n      dup3\n      dup1\n      sload\n      0x01\n      dup2\n      0x01\n      and\n      iszero\n      0x0100\n      mul\n      sub\n      and\n      0x02\n      swap1\n      div\n      dup1\n      iszero\n      tag_77\n      jumpi\n      dup1\n      0x1f\n      lt\n      tag_78\n      jumpi\n      0x0100\n      dup1\n      dup4\n      sload\n      div\n      mul\n      dup4\n      mstore\n      swap2\n      0x20\n      add\n      swap2\n      jump(tag_77)\n    tag_78:\n      dup3\n      add\n      swap2\n      swap1\n      0x00\n      mstore\n      keccak256(0x00, 0x20)\n      swap1\n    tag_79:\n      dup2\n      sload\n      dup2\n      mstore\n      swap1\n      0x01\n      add\n      swap1\n      0x20\n      add\n      dup1\n      dup4\n      gt\n      tag_79\n      jumpi\n      dup3\n      swap1\n      sub\n      0x1f\n      and\n      dup3\n      add\n      swap2\n    tag_77:\n      pop\n      pop\n      pop\n      pop\n      pop\n      swap1\n      pop\n      dup6\n      jump\t// out\n        /* \"RpsGame.sol\":2704:3199  function startGame(bytes1 _p1Choice) external payable {... */\n    tag_43:\n        /* \"RpsGame.sol\":2791:2792  0 */\n      0x00\n        /* \"RpsGame.sol\":2776:2793  _p1 == address(0) */\n      0xffffffffffffffffffffffffffffffffffffffff\n      and\n        /* \"RpsGame.sol\":2776:2779  _p1 */\n      0x01\n      0x00\n      swap1\n      sload\n      swap1\n      0x0100\n      exp\n      swap1\n      div\n      0xffffffffffffffffffffffffffffffffffffffff\n      and\n        /* \"RpsGame.sol\":2776:2793  _p1 == address(0) */\n      0xffffffffffffffffffffffffffffffffffffffff\n      and\n      eq\n        /* \"RpsGame.sol\":2768:2824  require(_p1 == address(0), \"Game started, try joinGame\") */\n      tag_81\n      jumpi\n      mload(0x40)\n      0x08c379a000000000000000000000000000000000000000000000000000000000\n      dup2\n      mstore\n      0x04\n      add\n      dup1\n      dup1\n      0x20\n      add\n      dup3\n      dup2\n      sub\n      dup3\n      mstore\n      0x1a\n      dup2\n      mstore\n      0x20\n      add\n      dup1\n      0x47616d6520737461727465642c20747279206a6f696e47616d65000000000000\n      dup2\n      mstore\n      pop\n      0x20\n      add\n      swap2\n      pop\n      pop\n      mload(0x40)\n      dup1\n      swap2\n      sub\n      swap1\n      revert\n    tag_81:\n        /* \"RpsGame.sol\":2855:2865  _betAmount */\n      sload(0x00)\n        /* \"RpsGame.sol\":2842:2851  msg.value */\n      callvalue\n        /* \"RpsGame.sol\":2842:2865  msg.value == _betAmount */\n      eq\n        /* \"RpsGame.sol\":2834:2895  require(msg.value == _betAmount, \"Place required bet amount\") */\n      tag_82\n      jumpi\n      mload(0x40)\n      0x08c379a000000000000000000000000000000000000000000000000000000000\n      dup2\n      mstore\n      0x04\n      add\n      dup1\n      dup1\n      0x20\n      add\n      dup3\n      dup2\n      sub\n      dup3\n      mstore\n      0x19\n      dup2\n      mstore\n      0x20\n      add\n      dup1\n      0x506c6163652072657175697265642062657420616d6f756e7400000000000000\n      dup2\n      mstore\n      pop\n      0x20\n      add\n      swap2\n      pop\n      pop\n      mload(0x40)\n      dup1\n      swap2\n      sub\n      swap1\n      revert\n    tag_82:\n        /* \"RpsGame.sol\":2911:2921  msg.sender */\n      caller\n        /* \"RpsGame.sol\":2905:2908  _p1 */\n      0x01\n      0x00\n        /* \"RpsGame.sol\":2905:2921  _p1 = msg.sender */\n      0x0100\n      exp\n      dup2\n      sload\n      dup2\n      0xffffffffffffffffffffffffffffffffffffffff\n      mul\n      not\n      and\n      swap1\n      dup4\n      0xffffffffffffffffffffffffffffffffffffffff\n      and\n      mul\n      or\n      swap1\n      sstore\n      pop\n        /* \"RpsGame.sol\":2946:2955  _p1Choice */\n      dup1\n        /* \"RpsGame.sol\":2931:2943  _p1EncChoice */\n      0x02\n      0x14\n        /* \"RpsGame.sol\":2931:2955  _p1EncChoice = _p1Choice */\n      0x0100\n      exp\n      dup2\n      sload\n      dup2\n      0xff\n      mul\n      not\n      and\n      swap1\n      dup4\n      0xf8\n      shr\n      mul\n      or\n      swap1\n      sstore\n      pop\n        /* \"RpsGame.sol\":2965:2973  gameInfo */\n      0x03\n        /* \"RpsGame.sol\":2979:3190  GameInfo({... */\n      mload(0x40)\n      dup1\n      0xa0\n      add\n      0x40\n      mstore\n      dup1\n        /* \"RpsGame.sol\":3017:3020  now */\n      timestamp\n        /* \"RpsGame.sol\":2979:3190  GameInfo({... */\n      dup2\n      mstore\n      0x20\n      add\n        /* \"RpsGame.sol\":3048:3051  now */\n      timestamp\n        /* \"RpsGame.sol\":2979:3190  GameInfo({... */\n      dup2\n      mstore\n      0x20\n      add\n        /* \"RpsGame.sol\":3074:3077  _p1 */\n      0x01\n      0x00\n      swap1\n      sload\n      swap1\n      0x0100\n      exp\n      swap1\n      div\n      0xffffffffffffffffffffffffffffffffffffffff\n      and\n        /* \"RpsGame.sol\":2979:3190  GameInfo({... */\n      0xffffffffffffffffffffffffffffffffffffffff\n      and\n      dup2\n      mstore\n      0x20\n      add\n        /* \"RpsGame.sol\":3108:3109  0 */\n      0x00\n        /* \"RpsGame.sol\":2979:3190  GameInfo({... */\n      0xffffffffffffffffffffffffffffffffffffffff\n      and\n      dup2\n      mstore\n      0x20\n      add\n      mload(0x40)\n      dup1\n      0x60\n      add\n      0x40\n      mstore\n      dup1\n      0x2d\n      dup2\n      mstore\n      0x20\n      add\n      data_eeb84d44db9799c585a1d642482d093a8bdfab641c87d8958c59910673964db4\n      0x2d\n      swap2\n      codecopy\n      dup2\n      mstore\n      pop\n        /* \"RpsGame.sol\":2965:3191  gameInfo.push(GameInfo({... */\n      swap1\n      dup1\n      0x01\n      dup2\n      sload\n      add\n      dup1\n      dup3\n      sstore\n      dup1\n      swap2\n      pop\n      pop\n      0x01\n      swap1\n      sub\n      swap1\n      0x00\n      mstore\n      keccak256(0x00, 0x20)\n      swap1\n      0x05\n      mul\n      add\n      0x00\n      swap1\n      swap2\n      swap1\n      swap2\n      swap1\n      swap2\n      pop\n      0x00\n      dup3\n      add\n      mload\n      dup2\n      0x00\n      add\n      sstore\n      0x20\n      dup3\n      add\n      mload\n      dup2\n      0x01\n      add\n      sstore\n      0x40\n      dup3\n      add\n      mload\n      dup2\n      0x02\n      add\n      exp(0x0100, 0x00)\n      dup2\n      sload\n      dup2\n      0xffffffffffffffffffffffffffffffffffffffff\n      mul\n      not\n      and\n      swap1\n      dup4\n      0xffffffffffffffffffffffffffffffffffffffff\n      and\n      mul\n      or\n      swap1\n      sstore\n      pop\n      0x60\n      dup3\n      add\n      mload\n      dup2\n      0x03\n      add\n      exp(0x0100, 0x00)\n      dup2\n      sload\n      dup2\n      0xffffffffffffffffffffffffffffffffffffffff\n      mul\n      not\n      and\n      swap1\n      dup4\n      0xffffffffffffffffffffffffffffffffffffffff\n      and\n      mul\n      or\n      swap1\n      sstore\n      pop\n      0x80\n      dup3\n      add\n      mload\n      dup2\n      0x04\n      add\n      swap1\n      dup1\n      mload\n      swap1\n      0x20\n      add\n      swap1\n      tag_84\n      swap3\n      swap2\n      swap1\n      tag_68\n      jump\t// in\n    tag_84:\n      pop\n      pop\n      pop\n        /* \"RpsGame.sol\":2704:3199  function startGame(bytes1 _p1Choice) external payable {... */\n      pop\n      jump\t// out\n        /* \"RpsGame.sol\":8982:9767  function updateCurrentGame() external {... */\n    tag_46:\n        /* \"RpsGame.sol\":9030:9051  GameInfo storage game */\n      0x00\n        /* \"RpsGame.sol\":9054:9062  gameInfo */\n      0x03\n        /* \"RpsGame.sol\":9063:9087  (gameInfo.length).sub(1) */\n      tag_86\n        /* \"RpsGame.sol\":9085:9086  1 */\n      0x01\n        /* \"RpsGame.sol\":9064:9072  gameInfo */\n      0x03\n        /* \"RpsGame.sol\":9064:9079  gameInfo.length */\n      dup1\n      sload\n      swap1\n      pop\n        /* \"RpsGame.sol\":9063:9084  (gameInfo.length).sub */\n      tag_62\n      swap1\n        /* \"RpsGame.sol\":9063:9087  (gameInfo.length).sub(1) */\n      swap2\n      swap1\n      0xffffffff\n      and\n      jump\t// in\n    tag_86:\n        /* \"RpsGame.sol\":9054:9088  gameInfo[(gameInfo.length).sub(1)] */\n      dup2\n      sload\n      dup2\n      lt\n      tag_87\n      jumpi\n      invalid\n    tag_87:\n      swap1\n      0x00\n      mstore\n      keccak256(0x00, 0x20)\n      swap1\n      0x05\n      mul\n      add\n        /* \"RpsGame.sol\":9030:9088  GameInfo storage game = gameInfo[(gameInfo.length).sub(1)] */\n      swap1\n      pop\n        /* \"RpsGame.sol\":9098:9116  address payable p1 */\n      0x00\n        /* \"RpsGame.sol\":9119:9123  game */\n      dup2\n        /* \"RpsGame.sol\":9119:9131  game.player1 */\n      0x02\n      add\n      0x00\n      swap1\n      sload\n      swap1\n      0x0100\n      exp\n      swap1\n      div\n      0xffffffffffffffffffffffffffffffffffffffff\n      and\n        /* \"RpsGame.sol\":9098:9131  address payable p1 = game.player1 */\n      swap1\n      pop\n        /* \"RpsGame.sol\":9141:9159  address payable p2 */\n      0x00\n        /* \"RpsGame.sol\":9162:9166  game */\n      dup3\n        /* \"RpsGame.sol\":9162:9174  game.player2 */\n      0x03\n      add\n      0x00\n      swap1\n      sload\n      swap1\n      0x0100\n      exp\n      swap1\n      div\n      0xffffffffffffffffffffffffffffffffffffffff\n      and\n        /* \"RpsGame.sol\":9141:9174  address payable p2 = game.player2 */\n      swap1\n      pop\n        /* \"RpsGame.sol\":9203:9204  0 */\n      0x00\n        /* \"RpsGame.sol\":9188:9205  _p1 != address(0) */\n      0xffffffffffffffffffffffffffffffffffffffff\n      and\n        /* \"RpsGame.sol\":9188:9191  _p1 */\n      0x01\n      0x00\n      swap1\n      sload\n      swap1\n      0x0100\n      exp\n      swap1\n      div\n      0xffffffffffffffffffffffffffffffffffffffff\n      and\n        /* \"RpsGame.sol\":9188:9205  _p1 != address(0) */\n      0xffffffffffffffffffffffffffffffffffffffff\n      and\n      eq\n      iszero\n        /* \"RpsGame.sol\":9188:9226  _p1 != address(0) && _p2 == address(0) */\n      dup1\n      iszero\n      tag_89\n      jumpi\n      pop\n        /* \"RpsGame.sol\":9224:9225  0 */\n      0x00\n        /* \"RpsGame.sol\":9209:9226  _p2 == address(0) */\n      0xffffffffffffffffffffffffffffffffffffffff\n      and\n        /* \"RpsGame.sol\":9209:9212  _p2 */\n      0x02\n      0x00\n      swap1\n      sload\n      swap1\n      0x0100\n      exp\n      swap1\n      div\n      0xffffffffffffffffffffffffffffffffffffffff\n      and\n        /* \"RpsGame.sol\":9209:9226  _p2 == address(0) */\n      0xffffffffffffffffffffffffffffffffffffffff\n      and\n      eq\n        /* \"RpsGame.sol\":9188:9226  _p1 != address(0) && _p2 == address(0) */\n    tag_89:\n        /* \"RpsGame.sol\":9184:9470  if (_p1 != address(0) && _p2 == address(0)) {... */\n      iszero\n      tag_90\n      jumpi\n        /* \"RpsGame.sol\":9278:9286  48 hours */\n      0x02a300\n        /* \"RpsGame.sol\":9246:9275  (now).sub(game.gameStartTime) */\n      tag_91\n        /* \"RpsGame.sol\":9256:9260  game */\n      dup5\n        /* \"RpsGame.sol\":9256:9274  game.gameStartTime */\n      0x00\n      add\n      sload\n        /* \"RpsGame.sol\":9247:9250  now */\n      timestamp\n        /* \"RpsGame.sol\":9246:9255  (now).sub */\n      tag_62\n      swap1\n        /* \"RpsGame.sol\":9246:9275  (now).sub(game.gameStartTime) */\n      swap2\n      swap1\n      0xffffffff\n      and\n      jump\t// in\n    tag_91:\n        /* \"RpsGame.sol\":9246:9286  (now).sub(game.gameStartTime) > 48 hours */\n      gt\n        /* \"RpsGame.sol\":9242:9460  if ((now).sub(game.gameStartTime) > 48 hours) {... */\n      iszero\n      tag_92\n      jumpi\n        /* \"RpsGame.sol\":9306:9375  game.status = \"Game timed out. No player2 joined. Refund to player1.\" */\n      mload(0x40)\n      dup1\n      0x60\n      add\n      0x40\n      mstore\n      dup1\n      0x35\n      dup2\n      mstore\n      0x20\n      add\n      data_f7d77d983cae7d1255cbc443f36ac374571f01ade17ad33d7ee2aeb012c29778\n      0x35\n      swap2\n      codecopy\n        /* \"RpsGame.sol\":9306:9310  game */\n      dup4\n        /* \"RpsGame.sol\":9306:9317  game.status */\n      0x04\n      add\n        /* \"RpsGame.sol\":9306:9375  game.status = \"Game timed out. No player2 joined. Refund to player1.\" */\n      swap1\n      dup1\n      mload\n      swap1\n      0x20\n      add\n      swap1\n      tag_93\n      swap3\n      swap2\n      swap1\n      tag_68\n      jump\t// in\n    tag_93:\n      pop\n        /* \"RpsGame.sol\":9393:9404  resetGame() */\n      tag_94\n        /* \"RpsGame.sol\":9393:9402  resetGame */\n      tag_72\n        /* \"RpsGame.sol\":9393:9404  resetGame() */\n      jump\t// in\n    tag_94:\n        /* \"RpsGame.sol\":9422:9424  p1 */\n      dup2\n        /* \"RpsGame.sol\":9422:9433  p1.transfer */\n      0xffffffffffffffffffffffffffffffffffffffff\n      and\n        /* \"RpsGame.sol\":9422:9445  p1.transfer(_betAmount) */\n      0x08fc\n        /* \"RpsGame.sol\":9434:9444  _betAmount */\n      sload(0x00)\n        /* \"RpsGame.sol\":9422:9445  p1.transfer(_betAmount) */\n      swap1\n      dup2\n      iszero\n      mul\n      swap1\n      mload(0x40)\n      0x00\n      mload(0x40)\n      dup1\n      dup4\n      sub\n      dup2\n      dup6\n      dup9\n      dup9\n      call\n      swap4\n      pop\n      pop\n      pop\n      pop\n      iszero\n      dup1\n      iszero\n      tag_96\n      jumpi\n      returndatasize\n      0x00\n      dup1\n      returndatacopy\n      revert(0x00, returndatasize)\n    tag_96:\n      pop\n        /* \"RpsGame.sol\":9242:9460  if ((now).sub(game.gameStartTime) > 48 hours) {... */\n    tag_92:\n        /* \"RpsGame.sol\":9184:9470  if (_p1 != address(0) && _p2 == address(0)) {... */\n    tag_90:\n        /* \"RpsGame.sol\":9498:9499  0 */\n      0x00\n        /* \"RpsGame.sol\":9483:9500  _p2 != address(0) */\n      0xffffffffffffffffffffffffffffffffffffffff\n      and\n        /* \"RpsGame.sol\":9483:9486  _p2 */\n      0x02\n      0x00\n      swap1\n      sload\n      swap1\n      0x0100\n      exp\n      swap1\n      div\n      0xffffffffffffffffffffffffffffffffffffffff\n      and\n        /* \"RpsGame.sol\":9483:9500  _p2 != address(0) */\n      0xffffffffffffffffffffffffffffffffffffffff\n      and\n      eq\n      iszero\n        /* \"RpsGame.sol\":9483:9529  _p2 != address(0) && _p1DecChoice == bytes1(0) */\n      dup1\n      iszero\n      tag_97\n      jumpi\n      pop\n        /* \"RpsGame.sol\":9527:9528  0 */\n      0x00\n        /* \"RpsGame.sol\":9520:9529  bytes1(0) */\n      0xf8\n      shl\n        /* \"RpsGame.sol\":9504:9529  _p1DecChoice == bytes1(0) */\n      not(0xffffffffffffffffffffffffffffffffffffffffffffffffffffffffffffff)\n      and\n        /* \"RpsGame.sol\":9504:9516  _p1DecChoice */\n      0x02\n      0x16\n      swap1\n      sload\n      swap1\n      0x0100\n      exp\n      swap1\n      div\n      0xf8\n      shl\n        /* \"RpsGame.sol\":9504:9529  _p1DecChoice == bytes1(0) */\n      not(0xffffffffffffffffffffffffffffffffffffffffffffffffffffffffffffff)\n      and\n      eq\n        /* \"RpsGame.sol\":9483:9529  _p2 != address(0) && _p1DecChoice == bytes1(0) */\n    tag_97:\n        /* \"RpsGame.sol\":9479:9760  if (_p2 != address(0) && _p1DecChoice == bytes1(0)) {... */\n      iszero\n      tag_98\n      jumpi\n        /* \"RpsGame.sol\":9580:9588  48 hours */\n      0x02a300\n        /* \"RpsGame.sol\":9549:9577  (now).sub(game.gameLockTime) */\n      tag_99\n        /* \"RpsGame.sol\":9559:9563  game */\n      dup5\n        /* \"RpsGame.sol\":9559:9576  game.gameLockTime */\n      0x01\n      add\n      sload\n        /* \"RpsGame.sol\":9550:9553  now */\n      timestamp\n        /* \"RpsGame.sol\":9549:9558  (now).sub */\n      tag_62\n      swap1\n        /* \"RpsGame.sol\":9549:9577  (now).sub(game.gameLockTime) */\n      swap2\n      swap1\n      0xffffffff\n      and\n      jump\t// in\n    tag_99:\n        /* \"RpsGame.sol\":9549:9588  (now).sub(game.gameLockTime) > 48 hours */\n      gt\n        /* \"RpsGame.sol\":9545:9750  if ((now).sub(game.gameLockTime) > 48 hours) {... */\n      iszero\n      tag_100\n      jumpi\n        /* \"RpsGame.sol\":9608:9675  game.status = \"Game timed out after lock. Player2 wins by default.\" */\n      mload(0x40)\n      dup1\n      0x60\n      add\n      0x40\n      mstore\n      dup1\n      0x33\n      dup2\n      mstore\n      0x20\n      add\n      data_e06e23b63de781ca8ee22aa9dc44a1288cec8cdf1bcdf1272c554f866a8ce2bd\n      0x33\n      swap2\n      codecopy\n        /* \"RpsGame.sol\":9608:9612  game */\n      dup4\n        /* \"RpsGame.sol\":9608:9619  game.status */\n      0x04\n      add\n        /* \"RpsGame.sol\":9608:9675  game.status = \"Game timed out after lock. Player2 wins by default.\" */\n      swap1\n      dup1\n      mload\n      swap1\n      0x20\n      add\n      swap1\n      tag_101\n      swap3\n      swap2\n      swap1\n      tag_68\n      jump\t// in\n    tag_101:\n      pop\n        /* \"RpsGame.sol\":9693:9704  resetGame() */\n      tag_102\n        /* \"RpsGame.sol\":9693:9702  resetGame */\n      tag_72\n        /* \"RpsGame.sol\":9693:9704  resetGame() */\n      jump\t// in\n    tag_102:\n        /* \"RpsGame.sol\":9722:9735  payWinner(p2) */\n      tag_103\n        /* \"RpsGame.sol\":9732:9734  p2 */\n      dup2\n        /* \"RpsGame.sol\":9722:9731  payWinner */\n      tag_104\n        /* \"RpsGame.sol\":9722:9735  payWinner(p2) */\n      jump\t// in\n    tag_103:\n        /* \"RpsGame.sol\":9545:9750  if ((now).sub(game.gameLockTime) > 48 hours) {... */\n    tag_100:\n        /* \"RpsGame.sol\":9479:9760  if (_p2 != address(0) && _p1DecChoice == bytes1(0)) {... */\n    tag_98:\n        /* \"RpsGame.sol\":8982:9767  function updateCurrentGame() external {... */\n      pop\n      pop\n      pop\n      jump\t// out\n        /* \"RpsGame.sol\":1911:1937  bytes1 public _p2DecChoice */\n    tag_49:\n      0x02\n      0x17\n      swap1\n      sload\n      swap1\n      0x0100\n      exp\n      swap1\n      div\n      0xf8\n      shl\n      dup2\n      jump\t// out\n        /* \"RpsGame.sol\":1821:1847  bytes1 public _p1EncChoice */\n    tag_52:\n      0x02\n      0x14\n      swap1\n      sload\n      swap1\n      0x0100\n      exp\n      swap1\n      div\n      0xf8\n      shl\n      dup2\n      jump\t// out\n        /* \"RpsGame.sol\":4775:5437  function revealChoice(bytes1 _pKey) external {... */\n    tag_56:\n        /* \"RpsGame.sol\":4853:4854  0 */\n      0x00\n        /* \"RpsGame.sol\":4838:4855  _p2 != address(0) */\n      0xffffffffffffffffffffffffffffffffffffffff\n      and\n        /* \"RpsGame.sol\":4838:4841  _p2 */\n      0x02\n      0x00\n      swap1\n      sload\n      swap1\n      0x0100\n      exp\n      swap1\n      div\n      0xffffffffffffffffffffffffffffffffffffffff\n      and\n        /* \"RpsGame.sol\":4838:4855  _p2 != address(0) */\n      0xffffffffffffffffffffffffffffffffffffffff\n      and\n      eq\n      iszero\n        /* \"RpsGame.sol\":4830:4887  require(_p2 != address(0), \"Waiting for player2 to join\") */\n      tag_106\n      jumpi\n      mload(0x40)\n      0x08c379a000000000000000000000000000000000000000000000000000000000\n      dup2\n      mstore\n      0x04\n      add\n      dup1\n      dup1\n      0x20\n      add\n      dup3\n      dup2\n      sub\n      dup3\n      mstore\n      0x1b\n      dup2\n      mstore\n      0x20\n      add\n      dup1\n      0x57616974696e6720666f7220706c617965723220746f206a6f696e0000000000\n      dup2\n      mstore\n      pop\n      0x20\n      add\n      swap2\n      pop\n      pop\n      mload(0x40)\n      dup1\n      swap2\n      sub\n      swap1\n      revert\n    tag_106:\n        /* \"RpsGame.sol\":4919:4922  _p1 */\n      0x01\n      0x00\n      swap1\n      sload\n      swap1\n      0x0100\n      exp\n      swap1\n      div\n      0xffffffffffffffffffffffffffffffffffffffff\n      and\n        /* \"RpsGame.sol\":4905:4922  msg.sender == _p1 */\n      0xffffffffffffffffffffffffffffffffffffffff\n      and\n        /* \"RpsGame.sol\":4905:4915  msg.sender */\n      caller\n        /* \"RpsGame.sol\":4905:4922  msg.sender == _p1 */\n      0xffffffffffffffffffffffffffffffffffffffff\n      and\n      eq\n        /* \"RpsGame.sol\":4897:4939  require(msg.sender == _p1, \"player1 only\") */\n      tag_107\n      jumpi\n      mload(0x40)\n      0x08c379a000000000000000000000000000000000000000000000000000000000\n      dup2\n      mstore\n      0x04\n      add\n      dup1\n      dup1\n      0x20\n      add\n      dup3\n      dup2\n      sub\n      dup3\n      mstore\n      0x0c\n      dup2\n      mstore\n      0x20\n      add\n      dup1\n      0x706c6179657231206f6e6c790000000000000000000000000000000000000000\n      dup2\n      mstore\n      pop\n      0x20\n      add\n      swap2\n      pop\n      pop\n      mload(0x40)\n      dup1\n      swap2\n      sub\n      swap1\n      revert\n    tag_107:\n        /* \"RpsGame.sol\":4949:4970  GameInfo storage game */\n      0x00\n        /* \"RpsGame.sol\":4973:4981  gameInfo */\n      0x03\n        /* \"RpsGame.sol\":4982:5006  (gameInfo.length).sub(1) */\n      tag_108\n        /* \"RpsGame.sol\":5004:5005  1 */\n      0x01\n        /* \"RpsGame.sol\":4983:4991  gameInfo */\n      0x03\n        /* \"RpsGame.sol\":4983:4998  gameInfo.length */\n      dup1\n      sload\n      swap1\n      pop\n        /* \"RpsGame.sol\":4982:5003  (gameInfo.length).sub */\n      tag_62\n      swap1\n        /* \"RpsGame.sol\":4982:5006  (gameInfo.length).sub(1) */\n      swap2\n      swap1\n      0xffffffff\n      and\n      jump\t// in\n    tag_108:\n        /* \"RpsGame.sol\":4973:5007  gameInfo[(gameInfo.length).sub(1)] */\n      dup2\n      sload\n      dup2\n      lt\n      tag_109\n      jumpi\n      invalid\n    tag_109:\n      swap1\n      0x00\n      mstore\n      keccak256(0x00, 0x20)\n      swap1\n      0x05\n      mul\n      add\n        /* \"RpsGame.sol\":4949:5007  GameInfo storage game = gameInfo[(gameInfo.length).sub(1)] */\n      swap1\n      pop\n        /* \"RpsGame.sol\":5017:5035  address payable p2 */\n      0x00\n        /* \"RpsGame.sol\":5038:5042  game */\n      dup2\n        /* \"RpsGame.sol\":5038:5050  game.player2 */\n      0x03\n      add\n      0x00\n      swap1\n      sload\n      swap1\n      0x0100\n      exp\n      swap1\n      div\n      0xffffffffffffffffffffffffffffffffffffffff\n      and\n        /* \"RpsGame.sol\":5017:5050  address payable p2 = game.player2 */\n      swap1\n      pop\n        /* \"RpsGame.sol\":5096:5104  48 hours */\n      0x02a300\n        /* \"RpsGame.sol\":5064:5092  (now).sub(game.gameLockTime) */\n      tag_111\n        /* \"RpsGame.sol\":5074:5078  game */\n      dup4\n        /* \"RpsGame.sol\":5074:5091  game.gameLockTime */\n      0x01\n      add\n      sload\n        /* \"RpsGame.sol\":5065:5068  now */\n      timestamp\n        /* \"RpsGame.sol\":5064:5073  (now).sub */\n      tag_62\n      swap1\n        /* \"RpsGame.sol\":5064:5092  (now).sub(game.gameLockTime) */\n      swap2\n      swap1\n      0xffffffff\n      and\n      jump\t// in\n    tag_111:\n        /* \"RpsGame.sol\":5064:5104  (now).sub(game.gameLockTime) <= 48 hours */\n      gt\n        /* \"RpsGame.sol\":5060:5431  if ((now).sub(game.gameLockTime) <= 48 hours) {... */\n      tag_112\n      jumpi\n        /* \"RpsGame.sol\":5144:5156  _p1EncChoice */\n      0x02\n      0x14\n      swap1\n      sload\n      swap1\n      0x0100\n      exp\n      swap1\n      pop\n      pop\n        /* \"RpsGame.sol\":5144:5163  _p1EncChoice.length */\n      0x01\n        /* \"RpsGame.sol\":5128:5163  _pKey.length == _p1EncChoice.length */\n      0xff\n      and\n        /* \"RpsGame.sol\":5128:5140  _pKey.length */\n      0x01\n        /* \"RpsGame.sol\":5128:5163  _pKey.length == _p1EncChoice.length */\n      0xff\n      and\n      eq\n        /* \"RpsGame.sol\":5120:5164  require(_pKey.length == _p1EncChoice.length) */\n      tag_113\n      jumpi\n      0x00\n      dup1\n      revert\n    tag_113:\n        /* \"RpsGame.sol\":5187:5192  _pKey */\n      dup3\n        /* \"RpsGame.sol\":5178:5184  _p1Key */\n      0x02\n      0x15\n        /* \"RpsGame.sol\":5178:5192  _p1Key = _pKey */\n      0x0100\n      exp\n      dup2\n      sload\n      dup2\n      0xff\n      mul\n      not\n      and\n      swap1\n      dup4\n      0xf8\n      shr\n      mul\n      or\n      swap1\n      sstore\n      pop\n        /* \"RpsGame.sol\":5235:5241  _p1Key */\n      0x02\n      0x15\n      swap1\n      sload\n      swap1\n      0x0100\n      exp\n      swap1\n      div\n      0xf8\n      shl\n        /* \"RpsGame.sol\":5221:5233  _p1EncChoice */\n      0x02\n      0x14\n      swap1\n      sload\n      swap1\n      0x0100\n      exp\n      swap1\n      div\n      0xf8\n      shl\n        /* \"RpsGame.sol\":5221:5242  _p1EncChoice^(_p1Key) */\n      xor\n        /* \"RpsGame.sol\":5206:5218  _p1DecChoice */\n      0x02\n      0x16\n        /* \"RpsGame.sol\":5206:5242  _p1DecChoice = _p1EncChoice^(_p1Key) */\n      0x0100\n      exp\n      dup2\n      sload\n      dup2\n      0xff\n      mul\n      not\n      and\n      swap1\n      dup4\n      0xf8\n      shr\n      mul\n      or\n      swap1\n      sstore\n      pop\n        /* \"RpsGame.sol\":5256:5270  concludeGame() */\n      tag_114\n        /* \"RpsGame.sol\":5256:5268  concludeGame */\n      tag_115\n        /* \"RpsGame.sol\":5256:5270  concludeGame() */\n      jump\t// in\n    tag_114:\n      pop\n        /* \"RpsGame.sol\":5060:5431  if ((now).sub(game.gameLockTime) <= 48 hours) {... */\n      jump(tag_116)\n    tag_112:\n        /* \"RpsGame.sol\":5301:5368  game.status = \"Game timed out after lock. Player2 wins by default.\" */\n      mload(0x40)\n      dup1\n      0x60\n      add\n      0x40\n      mstore\n      dup1\n      0x33\n      dup2\n      mstore\n      0x20\n      add\n      data_e06e23b63de781ca8ee22aa9dc44a1288cec8cdf1bcdf1272c554f866a8ce2bd\n      0x33\n      swap2\n      codecopy\n        /* \"RpsGame.sol\":5301:5305  game */\n      dup3\n        /* \"RpsGame.sol\":5301:5312  game.status */\n      0x04\n      add\n        /* \"RpsGame.sol\":5301:5368  game.status = \"Game timed out after lock. Player2 wins by default.\" */\n      swap1\n      dup1\n      mload\n      swap1\n      0x20\n      add\n      swap1\n      tag_117\n      swap3\n      swap2\n      swap1\n      tag_68\n      jump\t// in\n    tag_117:\n      pop\n        /* \"RpsGame.sol\":5382:5393  resetGame() */\n      tag_118\n        /* \"RpsGame.sol\":5382:5391  resetGame */\n      tag_72\n        /* \"RpsGame.sol\":5382:5393  resetGame() */\n      jump\t// in\n    tag_118:\n        /* \"RpsGame.sol\":5407:5420  payWinner(p2) */\n      tag_119\n        /* \"RpsGame.sol\":5417:5419  p2 */\n      dup2\n        /* \"RpsGame.sol\":5407:5416  payWinner */\n      tag_104\n        /* \"RpsGame.sol\":5407:5420  payWinner(p2) */\n      jump\t// in\n    tag_119:\n        /* \"RpsGame.sol\":5060:5431  if ((now).sub(game.gameLockTime) <= 48 hours) {... */\n    tag_116:\n        /* \"RpsGame.sol\":4775:5437  function revealChoice(bytes1 _pKey) external {... */\n      pop\n      pop\n      pop\n      jump\t// out\n        /* \"https://github.com/OpenZeppelin/openzeppelin-contracts/blob/v3.4.0/contracts/math/SafeMath.sol\":3136:3291  function sub(uint256 a, uint256 b) internal pure returns (uint256) {... */\n    tag_62:\n        /* \"https://github.com/OpenZeppelin/openzeppelin-contracts/blob/v3.4.0/contracts/math/SafeMath.sol\":3194:3201  uint256 */\n      0x00\n        /* \"https://github.com/OpenZeppelin/openzeppelin-contracts/blob/v3.4.0/contracts/math/SafeMath.sol\":3226:3227  a */\n      dup3\n        /* \"https://github.com/OpenZeppelin/openzeppelin-contracts/blob/v3.4.0/contracts/math/SafeMath.sol\":3221:3222  b */\n      dup3\n        /* \"https://github.com/OpenZeppelin/openzeppelin-contracts/blob/v3.4.0/contracts/math/SafeMath.sol\":3221:3227  b <= a */\n      gt\n      iszero\n        /* \"https://github.com/OpenZeppelin/openzeppelin-contracts/blob/v3.4.0/contracts/math/SafeMath.sol\":3213:3262  require(b <= a, \"SafeMath: subtraction overflow\") */\n      tag_121\n      jumpi\n      mload(0x40)\n      0x08c379a000000000000000000000000000000000000000000000000000000000\n      dup2\n      mstore\n      0x04\n      add\n      dup1\n      dup1\n      0x20\n      add\n      dup3\n      dup2\n      sub\n      dup3\n      mstore\n      0x1e\n      dup2\n      mstore\n      0x20\n      add\n      dup1\n      0x536166654d6174683a207375627472616374696f6e206f766572666c6f770000\n      dup2\n      mstore\n      pop\n      0x20\n      add\n      swap2\n      pop\n      pop\n      mload(0x40)\n      dup1\n      swap2\n      sub\n      swap1\n      revert\n    tag_121:\n        /* \"https://github.com/OpenZeppelin/openzeppelin-contracts/blob/v3.4.0/contracts/math/SafeMath.sol\":3283:3284  b */\n      dup2\n        /* \"https://github.com/OpenZeppelin/openzeppelin-contracts/blob/v3.4.0/contracts/math/SafeMath.sol\":3279:3280  a */\n      dup4\n        /* \"https://github.com/OpenZeppelin/openzeppelin-contracts/blob/v3.4.0/contracts/math/SafeMath.sol\":3279:3284  a - b */\n      sub\n        /* \"https://github.com/OpenZeppelin/openzeppelin-contracts/blob/v3.4.0/contracts/math/SafeMath.sol\":3272:3284  return a - b */\n      swap1\n      pop\n        /* \"https://github.com/OpenZeppelin/openzeppelin-contracts/blob/v3.4.0/contracts/math/SafeMath.sol\":3136:3291  function sub(uint256 a, uint256 b) internal pure returns (uint256) {... */\n      swap3\n      swap2\n      pop\n      pop\n      jump\t// out\n        /* \"RpsGame.sol\":8103:8323  function resetGame() internal {... */\n    tag_72:\n        /* \"RpsGame.sol\":8157:8158  0 */\n      0x00\n        /* \"RpsGame.sol\":8143:8146  _p1 */\n      0x01\n      0x00\n        /* \"RpsGame.sol\":8143:8159  _p1 = address(0) */\n      0x0100\n      exp\n      dup2\n      sload\n      dup2\n      0xffffffffffffffffffffffffffffffffffffffff\n      mul\n      not\n      and\n      swap1\n      dup4\n      0xffffffffffffffffffffffffffffffffffffffff\n      and\n      mul\n      or\n      swap1\n      sstore\n      pop\n        /* \"RpsGame.sol\":8183:8184  0 */\n      0x00\n        /* \"RpsGame.sol\":8169:8172  _p2 */\n      0x02\n      0x00\n        /* \"RpsGame.sol\":8169:8185  _p2 = address(0) */\n      0x0100\n      exp\n      dup2\n      sload\n      dup2\n      0xffffffffffffffffffffffffffffffffffffffff\n      mul\n      not\n      and\n      swap1\n      dup4\n      0xffffffffffffffffffffffffffffffffffffffff\n      and\n      mul\n      or\n      swap1\n      sstore\n      pop\n        /* \"RpsGame.sol\":8217:8218  0 */\n      0x00\n        /* \"RpsGame.sol\":8210:8219  bytes1(0) */\n      0xf8\n      shl\n        /* \"RpsGame.sol\":8195:8207  _p1EncChoice */\n      0x02\n      0x14\n        /* \"RpsGame.sol\":8195:8219  _p1EncChoice = bytes1(0) */\n      0x0100\n      exp\n      dup2\n      sload\n      dup2\n      0xff\n      mul\n      not\n      and\n      swap1\n      dup4\n      0xf8\n      shr\n      mul\n      or\n      swap1\n      sstore\n      pop\n        /* \"RpsGame.sol\":8245:8246  0 */\n      0x00\n        /* \"RpsGame.sol\":8238:8247  bytes1(0) */\n      0xf8\n      shl\n        /* \"RpsGame.sol\":8229:8235  _p1Key */\n      0x02\n      0x15\n        /* \"RpsGame.sol\":8229:8247  _p1Key = bytes1(0) */\n      0x0100\n      exp\n      dup2\n      sload\n      dup2\n      0xff\n      mul\n      not\n      and\n      swap1\n      dup4\n      0xf8\n      shr\n      mul\n      or\n      swap1\n      sstore\n      pop\n        /* \"RpsGame.sol\":8279:8280  0 */\n      0x00\n        /* \"RpsGame.sol\":8272:8281  bytes1(0) */\n      0xf8\n      shl\n        /* \"RpsGame.sol\":8257:8269  _p1DecChoice */\n      0x02\n      0x16\n        /* \"RpsGame.sol\":8257:8281  _p1DecChoice = bytes1(0) */\n      0x0100\n      exp\n      dup2\n      sload\n      dup2\n      0xff\n      mul\n      not\n      and\n      swap1\n      dup4\n      0xf8\n      shr\n      mul\n      or\n      swap1\n      sstore\n      pop\n        /* \"RpsGame.sol\":8313:8314  0 */\n      0x00\n        /* \"RpsGame.sol\":8306:8315  bytes1(0) */\n      0xf8\n      shl\n        /* \"RpsGame.sol\":8291:8303  _p2DecChoice */\n      0x02\n      0x17\n        /* \"RpsGame.sol\":8291:8315  _p2DecChoice = bytes1(0) */\n      0x0100\n      exp\n      dup2\n      sload\n      dup2\n      0xff\n      mul\n      not\n      and\n      swap1\n      dup4\n      0xf8\n      shr\n      mul\n      or\n      swap1\n      sstore\n      pop\n        /* \"RpsGame.sol\":8103:8323  function resetGame() internal {... */\n      jump\t// out\n        /* \"RpsGame.sol\":8748:8855  function payWinner(address payable player) internal {... */\n    tag_104:\n        /* \"RpsGame.sol\":8810:8816  player */\n      dup1\n        /* \"RpsGame.sol\":8810:8825  player.transfer */\n      0xffffffffffffffffffffffffffffffffffffffff\n      and\n        /* \"RpsGame.sol\":8810:8848  player.transfer(address(this).balance) */\n      0x08fc\n        /* \"RpsGame.sol\":8826:8847  address(this).balance */\n      selfbalance\n        /* \"RpsGame.sol\":8810:8848  player.transfer(address(this).balance) */\n      swap1\n      dup2\n      iszero\n      mul\n      swap1\n      mload(0x40)\n      0x00\n      mload(0x40)\n      dup1\n      dup4\n      sub\n      dup2\n      dup6\n      dup9\n      dup9\n      call\n      swap4\n      pop\n      pop\n      pop\n      pop\n      iszero\n      dup1\n      iszero\n      tag_125\n      jumpi\n      returndatasize\n      0x00\n      dup1\n      returndatacopy\n      revert(0x00, returndatasize)\n    tag_125:\n      pop\n        /* \"RpsGame.sol\":8748:8855  function payWinner(address payable player) internal {... */\n      pop\n      jump\t// out\n        /* \"RpsGame.sol\":5573:8013  function concludeGame() internal returns (string memory) {... */\n    tag_115:\n        /* \"RpsGame.sol\":5615:5628  string memory */\n      0x60\n        /* \"RpsGame.sol\":5677:5678  0 */\n      0x00\n        /* \"RpsGame.sol\":5664:5680  bytes1(uint8(0)) */\n      0xf8\n      shl\n        /* \"RpsGame.sol\":5648:5680  _p1DecChoice != bytes1(uint8(0)) */\n      not(0xffffffffffffffffffffffffffffffffffffffffffffffffffffffffffffff)\n      and\n        /* \"RpsGame.sol\":5648:5660  _p1DecChoice */\n      0x02\n      0x16\n      swap1\n      sload\n      swap1\n      0x0100\n      exp\n      swap1\n      div\n      0xf8\n      shl\n        /* \"RpsGame.sol\":5648:5680  _p1DecChoice != bytes1(uint8(0)) */\n      not(0xffffffffffffffffffffffffffffffffffffffffffffffffffffffffffffff)\n      and\n      eq\n      iszero\n        /* \"RpsGame.sol\":5648:5716  _p1DecChoice != bytes1(uint8(0)) && _p2DecChoice != bytes1(uint8(0)) */\n      dup1\n      iszero\n      tag_127\n      jumpi\n      pop\n        /* \"RpsGame.sol\":5713:5714  0 */\n      0x00\n        /* \"RpsGame.sol\":5700:5716  bytes1(uint8(0)) */\n      0xf8\n      shl\n        /* \"RpsGame.sol\":5684:5716  _p2DecChoice != bytes1(uint8(0)) */\n      not(0xffffffffffffffffffffffffffffffffffffffffffffffffffffffffffffff)\n      and\n        /* \"RpsGame.sol\":5684:5696  _p2DecChoice */\n      0x02\n      0x17\n      swap1\n      sload\n      swap1\n      0x0100\n      exp\n      swap1\n      div\n      0xf8\n      shl\n        /* \"RpsGame.sol\":5684:5716  _p2DecChoice != bytes1(uint8(0)) */\n      not(0xffffffffffffffffffffffffffffffffffffffffffffffffffffffffffffff)\n      and\n      eq\n      iszero\n        /* \"RpsGame.sol\":5648:5716  _p1DecChoice != bytes1(uint8(0)) && _p2DecChoice != bytes1(uint8(0)) */\n    tag_127:\n        /* \"RpsGame.sol\":5640:5757  require(_p1DecChoice != bytes1(uint8(0)) && _p2DecChoice != bytes1(uint8(0)), \"reveal Choice for both players first\") */\n      tag_128\n      jumpi\n      mload(0x40)\n      0x08c379a000000000000000000000000000000000000000000000000000000000\n      dup2\n      mstore\n      0x04\n      add\n      dup1\n      dup1\n      0x20\n      add\n      dup3\n      dup2\n      sub\n      dup3\n      mstore\n      0x24\n      dup2\n      mstore\n      0x20\n      add\n      dup1\n      data_a5d05e03e2caea60844f1e6aed8e88c3bdde119af28524ca5c13abfd43b165c9\n      0x24\n      swap2\n      codecopy\n      0x40\n      add\n      swap2\n      pop\n      pop\n      mload(0x40)\n      dup1\n      swap2\n      sub\n      swap1\n      revert\n    tag_128:\n        /* \"RpsGame.sol\":5767:5788  GameInfo storage game */\n      0x00\n        /* \"RpsGame.sol\":5791:5799  gameInfo */\n      0x03\n        /* \"RpsGame.sol\":5800:5824  (gameInfo.length).sub(1) */\n      tag_129\n        /* \"RpsGame.sol\":5822:5823  1 */\n      0x01\n        /* \"RpsGame.sol\":5801:5809  gameInfo */\n      0x03\n        /* \"RpsGame.sol\":5801:5816  gameInfo.length */\n      dup1\n      sload\n      swap1\n      pop\n        /* \"RpsGame.sol\":5800:5821  (gameInfo.length).sub */\n      tag_62\n      swap1\n        /* \"RpsGame.sol\":5800:5824  (gameInfo.length).sub(1) */\n      swap2\n      swap1\n      0xffffffff\n      and\n      jump\t// in\n    tag_129:\n        /* \"RpsGame.sol\":5791:5825  gameInfo[(gameInfo.length).sub(1)] */\n      dup2\n      sload\n      dup2\n      lt\n      tag_130\n      jumpi\n      invalid\n    tag_130:\n      swap1\n      0x00\n      mstore\n      keccak256(0x00, 0x20)\n      swap1\n      0x05\n      mul\n      add\n        /* \"RpsGame.sol\":5767:5825  GameInfo storage game = gameInfo[(gameInfo.length).sub(1)] */\n      swap1\n      pop\n        /* \"RpsGame.sol\":5835:5853  address payable p1 */\n      0x00\n        /* \"RpsGame.sol\":5856:5860  game */\n      dup2\n        /* \"RpsGame.sol\":5856:5868  game.player1 */\n      0x02\n      add\n      0x00\n      swap1\n      sload\n      swap1\n      0x0100\n      exp\n      swap1\n      div\n      0xffffffffffffffffffffffffffffffffffffffff\n      and\n        /* \"RpsGame.sol\":5835:5868  address payable p1 = game.player1 */\n      swap1\n      pop\n        /* \"RpsGame.sol\":5878:5896  address payable p2 */\n      0x00\n        /* \"RpsGame.sol\":5899:5903  game */\n      dup3\n        /* \"RpsGame.sol\":5899:5911  game.player2 */\n      0x03\n      add\n      0x00\n      swap1\n      sload\n      swap1\n      0x0100\n      exp\n      swap1\n      div\n      0xffffffffffffffffffffffffffffffffffffffff\n      and\n        /* \"RpsGame.sol\":5878:5911  address payable p2 = game.player2 */\n      swap1\n      pop\n        /* \"RpsGame.sol\":5954:5955  1 */\n      0x01\n        /* \"RpsGame.sol\":5941:5957  bytes1(uint8(1)) */\n      0xf8\n      shl\n        /* \"RpsGame.sol\":5925:5957  _p1DecChoice == bytes1(uint8(1)) */\n      not(0xffffffffffffffffffffffffffffffffffffffffffffffffffffffffffffff)\n      and\n        /* \"RpsGame.sol\":5925:5937  _p1DecChoice */\n      0x02\n      0x16\n      swap1\n      sload\n      swap1\n      0x0100\n      exp\n      swap1\n      div\n      0xf8\n      shl\n        /* \"RpsGame.sol\":5925:5957  _p1DecChoice == bytes1(uint8(1)) */\n      not(0xffffffffffffffffffffffffffffffffffffffffffffffffffffffffffffff)\n      and\n      eq\n        /* \"RpsGame.sol\":5921:8005  if (_p1DecChoice == bytes1(uint8(1))) {... */\n      iszero\n      tag_132\n      jumpi\n        /* \"RpsGame.sol\":6006:6007  1 */\n      0x01\n        /* \"RpsGame.sol\":5993:6009  bytes1(uint8(1)) */\n      0xf8\n      shl\n        /* \"RpsGame.sol\":5977:6009  _p2DecChoice == bytes1(uint8(1)) */\n      not(0xffffffffffffffffffffffffffffffffffffffffffffffffffffffffffffff)\n      and\n        /* \"RpsGame.sol\":5977:5989  _p2DecChoice */\n      0x02\n      0x17\n      swap1\n      sload\n      swap1\n      0x0100\n      exp\n      swap1\n      div\n      0xf8\n      shl\n        /* \"RpsGame.sol\":5977:6009  _p2DecChoice == bytes1(uint8(1)) */\n      not(0xffffffffffffffffffffffffffffffffffffffffffffffffffffffffffffff)\n      and\n      eq\n        /* \"RpsGame.sol\":5973:6586  if (_p2DecChoice == bytes1(uint8(1))) {... */\n      iszero\n      tag_133\n      jumpi\n        /* \"RpsGame.sol\":6029:6088  game.status = \"Both players chose rock. Draw; no one wins.\" */\n      mload(0x40)\n      dup1\n      0x60\n      add\n      0x40\n      mstore\n      dup1\n      0x2b\n      dup2\n      mstore\n      0x20\n      add\n      data_1b3579ebba8bbe9db7151c5856cece1eec70ac8b4f5462b733d239013ebe166e\n      0x2b\n      swap2\n      codecopy\n        /* \"RpsGame.sol\":6029:6033  game */\n      dup4\n        /* \"RpsGame.sol\":6029:6040  game.status */\n      0x04\n      add\n        /* \"RpsGame.sol\":6029:6088  game.status = \"Both players chose rock. Draw; no one wins.\" */\n      swap1\n      dup1\n      mload\n      swap1\n      0x20\n      add\n      swap1\n      tag_134\n      swap3\n      swap2\n      swap1\n      tag_68\n      jump\t// in\n    tag_134:\n      pop\n        /* \"RpsGame.sol\":6106:6117  resetGame() */\n      tag_135\n        /* \"RpsGame.sol\":6106:6115  resetGame */\n      tag_72\n        /* \"RpsGame.sol\":6106:6117  resetGame() */\n      jump\t// in\n    tag_135:\n        /* \"RpsGame.sol\":6135:6146  draw(p1,p2) */\n      tag_136\n        /* \"RpsGame.sol\":6140:6142  p1 */\n      dup3\n        /* \"RpsGame.sol\":6143:6145  p2 */\n      dup3\n        /* \"RpsGame.sol\":6135:6139  draw */\n      tag_137\n        /* \"RpsGame.sol\":6135:6146  draw(p1,p2) */\n      jump\t// in\n    tag_136:\n        /* \"RpsGame.sol\":5973:6586  if (_p2DecChoice == bytes1(uint8(1))) {... */\n      jump(tag_138)\n    tag_133:\n        /* \"RpsGame.sol\":6200:6201  2 */\n      0x02\n        /* \"RpsGame.sol\":6187:6203  bytes1(uint8(2)) */\n      0xf8\n      shl\n        /* \"RpsGame.sol\":6171:6203  _p2DecChoice == bytes1(uint8(2)) */\n      not(0xffffffffffffffffffffffffffffffffffffffffffffffffffffffffffffff)\n      and\n        /* \"RpsGame.sol\":6171:6183  _p2DecChoice */\n      0x02\n      0x17\n      swap1\n      sload\n      swap1\n      0x0100\n      exp\n      swap1\n      div\n      0xf8\n      shl\n        /* \"RpsGame.sol\":6171:6203  _p2DecChoice == bytes1(uint8(2)) */\n      not(0xffffffffffffffffffffffffffffffffffffffffffffffffffffffffffffff)\n      and\n      eq\n        /* \"RpsGame.sol\":6167:6586  if (_p2DecChoice == bytes1(uint8(2))) {... */\n      iszero\n      tag_139\n      jumpi\n        /* \"RpsGame.sol\":6223:6296  game.status = \"Player 1 chose rock; player 2 chose paper. Player 2 wins!\" */\n      mload(0x40)\n      dup1\n      0x60\n      add\n      0x40\n      mstore\n      dup1\n      0x39\n      dup2\n      mstore\n      0x20\n      add\n      data_0f0efad4a73c5906dbb9193332cd2b3d77d86212ba2c1341986dbf30e05a561d\n      0x39\n      swap2\n      codecopy\n        /* \"RpsGame.sol\":6223:6227  game */\n      dup4\n        /* \"RpsGame.sol\":6223:6234  game.status */\n      0x04\n      add\n        /* \"RpsGame.sol\":6223:6296  game.status = \"Player 1 chose rock; player 2 chose paper. Player 2 wins!\" */\n      swap1\n      dup1\n      mload\n      swap1\n      0x20\n      add\n      swap1\n      tag_140\n      swap3\n      swap2\n      swap1\n      tag_68\n      jump\t// in\n    tag_140:\n      pop\n        /* \"RpsGame.sol\":6314:6325  resetGame() */\n      tag_141\n        /* \"RpsGame.sol\":6314:6323  resetGame */\n      tag_72\n        /* \"RpsGame.sol\":6314:6325  resetGame() */\n      jump\t// in\n    tag_141:\n        /* \"RpsGame.sol\":6343:6356  payWinner(p2) */\n      tag_142\n        /* \"RpsGame.sol\":6353:6355  p2 */\n      dup2\n        /* \"RpsGame.sol\":6343:6352  payWinner */\n      tag_104\n        /* \"RpsGame.sol\":6343:6356  payWinner(p2) */\n      jump\t// in\n    tag_142:\n        /* \"RpsGame.sol\":6167:6586  if (_p2DecChoice == bytes1(uint8(2))) {... */\n      jump(tag_143)\n    tag_139:\n        /* \"RpsGame.sol\":6411:6412  3 */\n      0x03\n        /* \"RpsGame.sol\":6398:6414  bytes1(uint8(3)) */\n      0xf8\n      shl\n        /* \"RpsGame.sol\":6382:6414  _p2DecChoice == bytes1(uint8(3)) */\n      not(0xffffffffffffffffffffffffffffffffffffffffffffffffffffffffffffff)\n      and\n        /* \"RpsGame.sol\":6382:6394  _p2DecChoice */\n      0x02\n      0x17\n      swap1\n      sload\n      swap1\n      0x0100\n      exp\n      swap1\n      div\n      0xf8\n      shl\n        /* \"RpsGame.sol\":6382:6414  _p2DecChoice == bytes1(uint8(3)) */\n      not(0xffffffffffffffffffffffffffffffffffffffffffffffffffffffffffffff)\n      and\n      eq\n        /* \"RpsGame.sol\":6378:6586  if (_p2DecChoice == bytes1(uint8(3))) {... */\n      iszero\n      tag_144\n      jumpi\n        /* \"RpsGame.sol\":6434:6510  game.status = \"Player 1 chose rock; player 2 chose scissors. Player 1 wins!\" */\n      mload(0x40)\n      dup1\n      0x60\n      add\n      0x40\n      mstore\n      dup1\n      0x3c\n      dup2\n      mstore\n      0x20\n      add\n      data_fabe144f25258224a7b2b2e5389814286394d9cfb8c9975610541df7b288b7ed\n      0x3c\n      swap2\n      codecopy\n        /* \"RpsGame.sol\":6434:6438  game */\n      dup4\n        /* \"RpsGame.sol\":6434:6445  game.status */\n      0x04\n      add\n        /* \"RpsGame.sol\":6434:6510  game.status = \"Player 1 chose rock; player 2 chose scissors. Player 1 wins!\" */\n      swap1\n      dup1\n      mload\n      swap1\n      0x20\n      add\n      swap1\n      tag_145\n      swap3\n      swap2\n      swap1\n      tag_68\n      jump\t// in\n    tag_145:\n      pop\n        /* \"RpsGame.sol\":6528:6539  resetGame() */\n      tag_146\n        /* \"RpsGame.sol\":6528:6537  resetGame */\n      tag_72\n        /* \"RpsGame.sol\":6528:6539  resetGame() */\n      jump\t// in\n    tag_146:\n        /* \"RpsGame.sol\":6557:6570  payWinner(p1) */\n      tag_147\n        /* \"RpsGame.sol\":6567:6569  p1 */\n      dup3\n        /* \"RpsGame.sol\":6557:6566  payWinner */\n      tag_104\n        /* \"RpsGame.sol\":6557:6570  payWinner(p1) */\n      jump\t// in\n    tag_147:\n        /* \"RpsGame.sol\":6378:6586  if (_p2DecChoice == bytes1(uint8(3))) {... */\n    tag_144:\n        /* \"RpsGame.sol\":6167:6586  if (_p2DecChoice == bytes1(uint8(2))) {... */\n    tag_143:\n        /* \"RpsGame.sol\":5973:6586  if (_p2DecChoice == bytes1(uint8(1))) {... */\n    tag_138:\n        /* \"RpsGame.sol\":5921:8005  if (_p1DecChoice == bytes1(uint8(1))) {... */\n      jump(tag_148)\n    tag_132:\n        /* \"RpsGame.sol\":6636:6637  2 */\n      0x02\n        /* \"RpsGame.sol\":6623:6639  bytes1(uint8(2)) */\n      0xf8\n      shl\n        /* \"RpsGame.sol\":6607:6639  _p1DecChoice == bytes1(uint8(2)) */\n      not(0xffffffffffffffffffffffffffffffffffffffffffffffffffffffffffffff)\n      and\n        /* \"RpsGame.sol\":6607:6619  _p1DecChoice */\n      0x02\n      0x16\n      swap1\n      sload\n      swap1\n      0x0100\n      exp\n      swap1\n      div\n      0xf8\n      shl\n        /* \"RpsGame.sol\":6607:6639  _p1DecChoice == bytes1(uint8(2)) */\n      not(0xffffffffffffffffffffffffffffffffffffffffffffffffffffffffffffff)\n      and\n      eq\n        /* \"RpsGame.sol\":6603:8005  if (_p1DecChoice == bytes1(uint8(2))) {... */\n      iszero\n      tag_149\n      jumpi\n        /* \"RpsGame.sol\":6688:6689  1 */\n      0x01\n        /* \"RpsGame.sol\":6675:6691  bytes1(uint8(1)) */\n      0xf8\n      shl\n        /* \"RpsGame.sol\":6659:6691  _p2DecChoice == bytes1(uint8(1)) */\n      not(0xffffffffffffffffffffffffffffffffffffffffffffffffffffffffffffff)\n      and\n        /* \"RpsGame.sol\":6659:6671  _p2DecChoice */\n      0x02\n      0x17\n      swap1\n      sload\n      swap1\n      0x0100\n      exp\n      swap1\n      div\n      0xf8\n      shl\n        /* \"RpsGame.sol\":6659:6691  _p2DecChoice == bytes1(uint8(1)) */\n      not(0xffffffffffffffffffffffffffffffffffffffffffffffffffffffffffffff)\n      and\n      eq\n        /* \"RpsGame.sol\":6655:7287  if (_p2DecChoice == bytes1(uint8(1))) {... */\n      iszero\n      tag_150\n      jumpi\n        /* \"RpsGame.sol\":6711:6784  game.status = \"Player 1 chose paper; player 2 chose rock. Player 1 wins!\" */\n      mload(0x40)\n      dup1\n      0x60\n      add\n      0x40\n      mstore\n      dup1\n      0x39\n      dup2\n      mstore\n      0x20\n      add\n      data_d8a0c8d62830f9363f01354d011a05f8ad25de55b63c8159adc8cf6efe7ab599\n      0x39\n      swap2\n      codecopy\n        /* \"RpsGame.sol\":6711:6715  game */\n      dup4\n        /* \"RpsGame.sol\":6711:6722  game.status */\n      0x04\n      add\n        /* \"RpsGame.sol\":6711:6784  game.status = \"Player 1 chose paper; player 2 chose rock. Player 1 wins!\" */\n      swap1\n      dup1\n      mload\n      swap1\n      0x20\n      add\n      swap1\n      tag_151\n      swap3\n      swap2\n      swap1\n      tag_68\n      jump\t// in\n    tag_151:\n      pop\n        /* \"RpsGame.sol\":6802:6813  resetGame() */\n      tag_152\n        /* \"RpsGame.sol\":6802:6811  resetGame */\n      tag_72\n        /* \"RpsGame.sol\":6802:6813  resetGame() */\n      jump\t// in\n    tag_152:\n        /* \"RpsGame.sol\":6831:6844  payWinner(p1) */\n      tag_153\n        /* \"RpsGame.sol\":6841:6843  p1 */\n      dup3\n        /* \"RpsGame.sol\":6831:6840  payWinner */\n      tag_104\n        /* \"RpsGame.sol\":6831:6844  payWinner(p1) */\n      jump\t// in\n    tag_153:\n        /* \"RpsGame.sol\":6655:7287  if (_p2DecChoice == bytes1(uint8(1))) {... */\n      jump(tag_154)\n    tag_150:\n        /* \"RpsGame.sol\":6899:6900  2 */\n      0x02\n        /* \"RpsGame.sol\":6886:6902  bytes1(uint8(2)) */\n      0xf8\n      shl\n        /* \"RpsGame.sol\":6870:6902  _p2DecChoice == bytes1(uint8(2)) */\n      not(0xffffffffffffffffffffffffffffffffffffffffffffffffffffffffffffff)\n      and\n        /* \"RpsGame.sol\":6870:6882  _p2DecChoice */\n      0x02\n      0x17\n      swap1\n      sload\n      swap1\n      0x0100\n      exp\n      swap1\n      div\n      0xf8\n      shl\n        /* \"RpsGame.sol\":6870:6902  _p2DecChoice == bytes1(uint8(2)) */\n      not(0xffffffffffffffffffffffffffffffffffffffffffffffffffffffffffffff)\n      and\n      eq\n        /* \"RpsGame.sol\":6866:7287  if (_p2DecChoice == bytes1(uint8(2))) {... */\n      iszero\n      tag_155\n      jumpi\n        /* \"RpsGame.sol\":6922:6982  game.status = \"Both players chose paper. Draw; no one wins.\" */\n      mload(0x40)\n      dup1\n      0x60\n      add\n      0x40\n      mstore\n      dup1\n      0x2c\n      dup2\n      mstore\n      0x20\n      add\n      data_814385f5abd68acdd21bb75b0923f4e23f3519c5fdeb72aa9e42d88b58af7eb4\n      0x2c\n      swap2\n      codecopy\n        /* \"RpsGame.sol\":6922:6926  game */\n      dup4\n        /* \"RpsGame.sol\":6922:6933  game.status */\n      0x04\n      add\n        /* \"RpsGame.sol\":6922:6982  game.status = \"Both players chose paper. Draw; no one wins.\" */\n      swap1\n      dup1\n      mload\n      swap1\n      0x20\n      add\n      swap1\n      tag_156\n      swap3\n      swap2\n      swap1\n      tag_68\n      jump\t// in\n    tag_156:\n      pop\n        /* \"RpsGame.sol\":7000:7011  resetGame() */\n      tag_157\n        /* \"RpsGame.sol\":7000:7009  resetGame */\n      tag_72\n        /* \"RpsGame.sol\":7000:7011  resetGame() */\n      jump\t// in\n    tag_157:\n        /* \"RpsGame.sol\":7029:7040  draw(p1,p2) */\n      tag_158\n        /* \"RpsGame.sol\":7034:7036  p1 */\n      dup3\n        /* \"RpsGame.sol\":7037:7039  p2 */\n      dup3\n        /* \"RpsGame.sol\":7029:7033  draw */\n      tag_137\n        /* \"RpsGame.sol\":7029:7040  draw(p1,p2) */\n      jump\t// in\n    tag_158:\n        /* \"RpsGame.sol\":6866:7287  if (_p2DecChoice == bytes1(uint8(2))) {... */\n      jump(tag_159)\n    tag_155:\n        /* \"RpsGame.sol\":7095:7096  3 */\n      0x03\n        /* \"RpsGame.sol\":7082:7098  bytes1(uint8(3)) */\n      0xf8\n      shl\n        /* \"RpsGame.sol\":7066:7098  _p2DecChoice == bytes1(uint8(3)) */\n      not(0xffffffffffffffffffffffffffffffffffffffffffffffffffffffffffffff)\n      and\n        /* \"RpsGame.sol\":7066:7078  _p2DecChoice */\n      0x02\n      0x17\n      swap1\n      sload\n      swap1\n      0x0100\n      exp\n      swap1\n      div\n      0xf8\n      shl\n        /* \"RpsGame.sol\":7066:7098  _p2DecChoice == bytes1(uint8(3)) */\n      not(0xffffffffffffffffffffffffffffffffffffffffffffffffffffffffffffff)\n      and\n      eq\n        /* \"RpsGame.sol\":7062:7287  if (_p2DecChoice == bytes1(uint8(3))) {... */\n      iszero\n      tag_160\n      jumpi\n        /* \"RpsGame.sol\":7118:7195  game.status = \"Player 1 chose paper; player 2 chose scissors. Player 2 wins!\" */\n      mload(0x40)\n      dup1\n      0x60\n      add\n      0x40\n      mstore\n      dup1\n      0x3d\n      dup2\n      mstore\n      0x20\n      add\n      data_20d2d48dfd01aaafb2090d51816348c6fb82cac8229e2590d57d034012b32297\n      0x3d\n      swap2\n      codecopy\n        /* \"RpsGame.sol\":7118:7122  game */\n      dup4\n        /* \"RpsGame.sol\":7118:7129  game.status */\n      0x04\n      add\n        /* \"RpsGame.sol\":7118:7195  game.status = \"Player 1 chose paper; player 2 chose scissors. Player 2 wins!\" */\n      swap1\n      dup1\n      mload\n      swap1\n      0x20\n      add\n      swap1\n      tag_161\n      swap3\n      swap2\n      swap1\n      tag_68\n      jump\t// in\n    tag_161:\n      pop\n        /* \"RpsGame.sol\":7213:7224  resetGame() */\n      tag_162\n        /* \"RpsGame.sol\":7213:7222  resetGame */\n      tag_72\n        /* \"RpsGame.sol\":7213:7224  resetGame() */\n      jump\t// in\n    tag_162:\n        /* \"RpsGame.sol\":7242:7255  payWinner(p2) */\n      tag_163\n        /* \"RpsGame.sol\":7252:7254  p2 */\n      dup2\n        /* \"RpsGame.sol\":7242:7251  payWinner */\n      tag_104\n        /* \"RpsGame.sol\":7242:7255  payWinner(p2) */\n      jump\t// in\n    tag_163:\n        /* \"RpsGame.sol\":7062:7287  if (_p2DecChoice == bytes1(uint8(3))) {... */\n    tag_160:\n        /* \"RpsGame.sol\":6866:7287  if (_p2DecChoice == bytes1(uint8(2))) {... */\n    tag_159:\n        /* \"RpsGame.sol\":6655:7287  if (_p2DecChoice == bytes1(uint8(1))) {... */\n    tag_154:\n        /* \"RpsGame.sol\":6603:8005  if (_p1DecChoice == bytes1(uint8(2))) {... */\n      jump(tag_164)\n    tag_149:\n        /* \"RpsGame.sol\":7337:7338  3 */\n      0x03\n        /* \"RpsGame.sol\":7324:7340  bytes1(uint8(3)) */\n      0xf8\n      shl\n        /* \"RpsGame.sol\":7308:7340  _p1DecChoice == bytes1(uint8(3)) */\n      not(0xffffffffffffffffffffffffffffffffffffffffffffffffffffffffffffff)\n      and\n        /* \"RpsGame.sol\":7308:7320  _p1DecChoice */\n      0x02\n      0x16\n      swap1\n      sload\n      swap1\n      0x0100\n      exp\n      swap1\n      div\n      0xf8\n      shl\n        /* \"RpsGame.sol\":7308:7340  _p1DecChoice == bytes1(uint8(3)) */\n      not(0xffffffffffffffffffffffffffffffffffffffffffffffffffffffffffffff)\n      and\n      eq\n        /* \"RpsGame.sol\":7304:8005  if (_p1DecChoice == bytes1(uint8(3))) {... */\n      iszero\n      tag_165\n      jumpi\n        /* \"RpsGame.sol\":7389:7390  1 */\n      0x01\n        /* \"RpsGame.sol\":7376:7392  bytes1(uint8(1)) */\n      0xf8\n      shl\n        /* \"RpsGame.sol\":7360:7392  _p2DecChoice == bytes1(uint8(1)) */\n      not(0xffffffffffffffffffffffffffffffffffffffffffffffffffffffffffffff)\n      and\n        /* \"RpsGame.sol\":7360:7372  _p2DecChoice */\n      0x02\n      0x17\n      swap1\n      sload\n      swap1\n      0x0100\n      exp\n      swap1\n      div\n      0xf8\n      shl\n        /* \"RpsGame.sol\":7360:7392  _p2DecChoice == bytes1(uint8(1)) */\n      not(0xffffffffffffffffffffffffffffffffffffffffffffffffffffffffffffff)\n      and\n      eq\n        /* \"RpsGame.sol\":7356:7994  if (_p2DecChoice == bytes1(uint8(1))) {... */\n      iszero\n      tag_166\n      jumpi\n        /* \"RpsGame.sol\":7412:7488  game.status = \"Player 1 chose scissors; player 2 chose rock. Player 2 wins!\" */\n      mload(0x40)\n      dup1\n      0x60\n      add\n      0x40\n      mstore\n      dup1\n      0x3c\n      dup2\n      mstore\n      0x20\n      add\n      data_fd18c08aec1c518e865232faeb40c043722c411eddc2d80e57c0bd1c743a58fb\n      0x3c\n      swap2\n      codecopy\n        /* \"RpsGame.sol\":7412:7416  game */\n      dup4\n        /* \"RpsGame.sol\":7412:7423  game.status */\n      0x04\n      add\n        /* \"RpsGame.sol\":7412:7488  game.status = \"Player 1 chose scissors; player 2 chose rock. Player 2 wins!\" */\n      swap1\n      dup1\n      mload\n      swap1\n      0x20\n      add\n      swap1\n      tag_167\n      swap3\n      swap2\n      swap1\n      tag_68\n      jump\t// in\n    tag_167:\n      pop\n        /* \"RpsGame.sol\":7506:7517  resetGame() */\n      tag_168\n        /* \"RpsGame.sol\":7506:7515  resetGame */\n      tag_72\n        /* \"RpsGame.sol\":7506:7517  resetGame() */\n      jump\t// in\n    tag_168:\n        /* \"RpsGame.sol\":7535:7548  payWinner(p2) */\n      tag_169\n        /* \"RpsGame.sol\":7545:7547  p2 */\n      dup2\n        /* \"RpsGame.sol\":7535:7544  payWinner */\n      tag_104\n        /* \"RpsGame.sol\":7535:7548  payWinner(p2) */\n      jump\t// in\n    tag_169:\n        /* \"RpsGame.sol\":7356:7994  if (_p2DecChoice == bytes1(uint8(1))) {... */\n      jump(tag_170)\n    tag_166:\n        /* \"RpsGame.sol\":7603:7604  2 */\n      0x02\n        /* \"RpsGame.sol\":7590:7606  bytes1(uint8(2)) */\n      0xf8\n      shl\n        /* \"RpsGame.sol\":7574:7606  _p2DecChoice == bytes1(uint8(2)) */\n      not(0xffffffffffffffffffffffffffffffffffffffffffffffffffffffffffffff)\n      and\n        /* \"RpsGame.sol\":7574:7586  _p2DecChoice */\n      0x02\n      0x17\n      swap1\n      sload\n      swap1\n      0x0100\n      exp\n      swap1\n      div\n      0xf8\n      shl\n        /* \"RpsGame.sol\":7574:7606  _p2DecChoice == bytes1(uint8(2)) */\n      not(0xffffffffffffffffffffffffffffffffffffffffffffffffffffffffffffff)\n      and\n      eq\n        /* \"RpsGame.sol\":7570:7994  if (_p2DecChoice == bytes1(uint8(2))) {... */\n      iszero\n      tag_171\n      jumpi\n        /* \"RpsGame.sol\":7626:7703  game.status = \"Player 1 chose scissors; player 2 chose paper. Player 1 wins!\" */\n      mload(0x40)\n      dup1\n      0x60\n      add\n      0x40\n      mstore\n      dup1\n      0x3d\n      dup2\n      mstore\n      0x20\n      add\n      data_821cf8a62e75265a5bdfe2b1ebc365d53adf69e405ffeacf5619a887268b100d\n      0x3d\n      swap2\n      codecopy\n        /* \"RpsGame.sol\":7626:7630  game */\n      dup4\n        /* \"RpsGame.sol\":7626:7637  game.status */\n      0x04\n      add\n        /* \"RpsGame.sol\":7626:7703  game.status = \"Player 1 chose scissors; player 2 chose paper. Player 1 wins!\" */\n      swap1\n      dup1\n      mload\n      swap1\n      0x20\n      add\n      swap1\n      tag_172\n      swap3\n      swap2\n      swap1\n      tag_68\n      jump\t// in\n    tag_172:\n      pop\n        /* \"RpsGame.sol\":7721:7732  resetGame() */\n      tag_173\n        /* \"RpsGame.sol\":7721:7730  resetGame */\n      tag_72\n        /* \"RpsGame.sol\":7721:7732  resetGame() */\n      jump\t// in\n    tag_173:\n        /* \"RpsGame.sol\":7750:7763  payWinner(p1) */\n      tag_174\n        /* \"RpsGame.sol\":7760:7762  p1 */\n      dup3\n        /* \"RpsGame.sol\":7750:7759  payWinner */\n      tag_104\n        /* \"RpsGame.sol\":7750:7763  payWinner(p1) */\n      jump\t// in\n    tag_174:\n        /* \"RpsGame.sol\":7570:7994  if (_p2DecChoice == bytes1(uint8(2))) {... */\n      jump(tag_175)\n    tag_171:\n        /* \"RpsGame.sol\":7818:7819  3 */\n      0x03\n        /* \"RpsGame.sol\":7805:7821  bytes1(uint8(3)) */\n      0xf8\n      shl\n        /* \"RpsGame.sol\":7789:7821  _p2DecChoice == bytes1(uint8(3)) */\n      not(0xffffffffffffffffffffffffffffffffffffffffffffffffffffffffffffff)\n      and\n        /* \"RpsGame.sol\":7789:7801  _p2DecChoice */\n      0x02\n      0x17\n      swap1\n      sload\n      swap1\n      0x0100\n      exp\n      swap1\n      div\n      0xf8\n      shl\n        /* \"RpsGame.sol\":7789:7821  _p2DecChoice == bytes1(uint8(3)) */\n      not(0xffffffffffffffffffffffffffffffffffffffffffffffffffffffffffffff)\n      and\n      eq\n        /* \"RpsGame.sol\":7785:7994  if (_p2DecChoice == bytes1(uint8(3))) {... */\n      iszero\n      tag_176\n      jumpi\n        /* \"RpsGame.sol\":7841:7904  game.status = \"Both players chose scissors. Draw; no one wins.\" */\n      mload(0x40)\n      dup1\n      0x60\n      add\n      0x40\n      mstore\n      dup1\n      0x2f\n      dup2\n      mstore\n      0x20\n      add\n      data_d3193108c8ca6ae9372e4d902db8aebd0fa6da2bbcff7d2753c884b2f493eb7c\n      0x2f\n      swap2\n      codecopy\n        /* \"RpsGame.sol\":7841:7845  game */\n      dup4\n        /* \"RpsGame.sol\":7841:7852  game.status */\n      0x04\n      add\n        /* \"RpsGame.sol\":7841:7904  game.status = \"Both players chose scissors. Draw; no one wins.\" */\n      swap1\n      dup1\n      mload\n      swap1\n      0x20\n      add\n      swap1\n      tag_177\n      swap3\n      swap2\n      swap1\n      tag_68\n      jump\t// in\n    tag_177:\n      pop\n        /* \"RpsGame.sol\":7922:7933  resetGame() */\n      tag_178\n        /* \"RpsGame.sol\":7922:7931  resetGame */\n      tag_72\n        /* \"RpsGame.sol\":7922:7933  resetGame() */\n      jump\t// in\n    tag_178:\n        /* \"RpsGame.sol\":7951:7962  draw(p1,p2) */\n      tag_179\n        /* \"RpsGame.sol\":7956:7958  p1 */\n      dup3\n        /* \"RpsGame.sol\":7959:7961  p2 */\n      dup3\n        /* \"RpsGame.sol\":7951:7955  draw */\n      tag_137\n        /* \"RpsGame.sol\":7951:7962  draw(p1,p2) */\n      jump\t// in\n    tag_179:\n        /* \"RpsGame.sol\":7785:7994  if (_p2DecChoice == bytes1(uint8(3))) {... */\n    tag_176:\n        /* \"RpsGame.sol\":7570:7994  if (_p2DecChoice == bytes1(uint8(2))) {... */\n    tag_175:\n        /* \"RpsGame.sol\":7356:7994  if (_p2DecChoice == bytes1(uint8(1))) {... */\n    tag_170:\n        /* \"RpsGame.sol\":7304:8005  if (_p1DecChoice == bytes1(uint8(3))) {... */\n    tag_165:\n        /* \"RpsGame.sol\":6603:8005  if (_p1DecChoice == bytes1(uint8(2))) {... */\n    tag_164:\n        /* \"RpsGame.sol\":5921:8005  if (_p1DecChoice == bytes1(uint8(1))) {... */\n    tag_148:\n        /* \"RpsGame.sol\":5573:8013  function concludeGame() internal returns (string memory) {... */\n      pop\n      pop\n      pop\n      swap1\n      jump\t// out\n        /* \"RpsGame.sol\":8481:8635  function draw(address payable p1, address payable p2) internal {... */\n    tag_137:\n        /* \"RpsGame.sol\":8554:8556  p1 */\n      dup2\n        /* \"RpsGame.sol\":8554:8565  p1.transfer */\n      0xffffffffffffffffffffffffffffffffffffffff\n      and\n        /* \"RpsGame.sol\":8554:8586  p1.transfer((_betAmount).div(2)) */\n      0x08fc\n        /* \"RpsGame.sol\":8566:8585  (_betAmount).div(2) */\n      tag_181\n        /* \"RpsGame.sol\":8583:8584  2 */\n      0x02\n        /* \"RpsGame.sol\":8567:8577  _betAmount */\n      sload(0x00)\n        /* \"RpsGame.sol\":8566:8582  (_betAmount).div */\n      tag_182\n      swap1\n        /* \"RpsGame.sol\":8566:8585  (_betAmount).div(2) */\n      swap2\n      swap1\n      0xffffffff\n      and\n      jump\t// in\n    tag_181:\n        /* \"RpsGame.sol\":8554:8586  p1.transfer((_betAmount).div(2)) */\n      swap1\n      dup2\n      iszero\n      mul\n      swap1\n      mload(0x40)\n      0x00\n      mload(0x40)\n      dup1\n      dup4\n      sub\n      dup2\n      dup6\n      dup9\n      dup9\n      call\n      swap4\n      pop\n      pop\n      pop\n      pop\n      iszero\n      dup1\n      iszero\n      tag_184\n      jumpi\n      returndatasize\n      0x00\n      dup1\n      returndatacopy\n      revert(0x00, returndatasize)\n    tag_184:\n      pop\n        /* \"RpsGame.sol\":8596:8598  p2 */\n      dup1\n        /* \"RpsGame.sol\":8596:8607  p2.transfer */\n      0xffffffffffffffffffffffffffffffffffffffff\n      and\n        /* \"RpsGame.sol\":8596:8628  p2.transfer((_betAmount).div(2)) */\n      0x08fc\n        /* \"RpsGame.sol\":8608:8627  (_betAmount).div(2) */\n      tag_185\n        /* \"RpsGame.sol\":8625:8626  2 */\n      0x02\n        /* \"RpsGame.sol\":8609:8619  _betAmount */\n      sload(0x00)\n        /* \"RpsGame.sol\":8608:8624  (_betAmount).div */\n      tag_182\n      swap1\n        /* \"RpsGame.sol\":8608:8627  (_betAmount).div(2) */\n      swap2\n      swap1\n      0xffffffff\n      and\n      jump\t// in\n    tag_185:\n        /* \"RpsGame.sol\":8596:8628  p2.transfer((_betAmount).div(2)) */\n      swap1\n      dup2\n      iszero\n      mul\n      swap1\n      mload(0x40)\n      0x00\n      mload(0x40)\n      dup1\n      dup4\n      sub\n      dup2\n      dup6\n      dup9\n      dup9\n      call\n      swap4\n      pop\n      pop\n      pop\n      pop\n      iszero\n      dup1\n      iszero\n      tag_187\n      jumpi\n      returndatasize\n      0x00\n      dup1\n      returndatacopy\n      revert(0x00, returndatasize)\n    tag_187:\n      pop\n        /* \"RpsGame.sol\":8481:8635  function draw(address payable p1, address payable p2) internal {... */\n      pop\n      pop\n      jump\t// out\n        /* \"https://github.com/OpenZeppelin/openzeppelin-contracts/blob/v3.4.0/contracts/math/SafeMath.sol\":4217:4367  function div(uint256 a, uint256 b) internal pure returns (uint256) {... */\n    tag_182:\n        /* \"https://github.com/OpenZeppelin/openzeppelin-contracts/blob/v3.4.0/contracts/math/SafeMath.sol\":4275:4282  uint256 */\n      0x00\n        /* \"https://github.com/OpenZeppelin/openzeppelin-contracts/blob/v3.4.0/contracts/math/SafeMath.sol\":4306:4307  0 */\n      dup1\n        /* \"https://github.com/OpenZeppelin/openzeppelin-contracts/blob/v3.4.0/contracts/math/SafeMath.sol\":4302:4303  b */\n      dup3\n        /* \"https://github.com/OpenZeppelin/openzeppelin-contracts/blob/v3.4.0/contracts/math/SafeMath.sol\":4302:4307  b > 0 */\n      gt\n        /* \"https://github.com/OpenZeppelin/openzeppelin-contracts/blob/v3.4.0/contracts/math/SafeMath.sol\":4294:4338  require(b > 0, \"SafeMath: division by zero\") */\n      tag_189\n      jumpi\n      mload(0x40)\n      0x08c379a000000000000000000000000000000000000000000000000000000000\n      dup2\n      mstore\n      0x04\n      add\n      dup1\n      dup1\n      0x20\n      add\n      dup3\n      dup2\n      sub\n      dup3\n      mstore\n      0x1a\n      dup2\n      mstore\n      0x20\n      add\n      dup1\n      0x536166654d6174683a206469766973696f6e206279207a65726f000000000000\n      dup2\n      mstore\n      pop\n      0x20\n      add\n      swap2\n      pop\n      pop\n      mload(0x40)\n      dup1\n      swap2\n      sub\n      swap1\n      revert\n    tag_189:\n        /* \"https://github.com/OpenZeppelin/openzeppelin-contracts/blob/v3.4.0/contracts/math/SafeMath.sol\":4359:4360  b */\n      dup2\n        /* \"https://github.com/OpenZeppelin/openzeppelin-contracts/blob/v3.4.0/contracts/math/SafeMath.sol\":4355:4356  a */\n      dup4\n        /* \"https://github.com/OpenZeppelin/openzeppelin-contracts/blob/v3.4.0/contracts/math/SafeMath.sol\":4355:4360  a / b */\n      dup2\n      tag_190\n      jumpi\n      invalid\n    tag_190:\n      div\n        /* \"https://github.com/OpenZeppelin/openzeppelin-contracts/blob/v3.4.0/contracts/math/SafeMath.sol\":4348:4360  return a / b */\n      swap1\n      pop\n        /* \"https://github.com/OpenZeppelin/openzeppelin-contracts/blob/v3.4.0/contracts/math/SafeMath.sol\":4217:4367  function div(uint256 a, uint256 b) internal pure returns (uint256) {... */\n      swap3\n      swap2\n      pop\n      pop\n      jump\t// out\n    tag_68:\n      dup3\n      dup1\n      sload\n      0x01\n      dup2\n      0x01\n      and\n      iszero\n      0x0100\n      mul\n      sub\n      and\n      0x02\n      swap1\n      div\n      swap1\n      0x00\n      mstore\n      keccak256(0x00, 0x20)\n      swap1\n      0x1f\n      add\n      0x20\n      swap1\n      div\n      dup2\n      add\n      swap3\n      dup3\n      0x1f\n      lt\n      tag_192\n      jumpi\n      dup1\n      mload\n      not(0xff)\n      and\n      dup4\n      dup1\n      add\n      or\n      dup6\n      sstore\n      jump(tag_191)\n    tag_192:\n      dup3\n      dup1\n      add\n      0x01\n      add\n      dup6\n      sstore\n      dup3\n      iszero\n      tag_191\n      jumpi\n      swap2\n      dup3\n      add\n    tag_193:\n      dup3\n      dup2\n      gt\n      iszero\n      tag_194\n      jumpi\n      dup3\n      mload\n      dup3\n      sstore\n      swap2\n      0x20\n      add\n      swap2\n      swap1\n      0x01\n      add\n      swap1\n      jump(tag_193)\n    tag_194:\n    tag_191:\n      pop\n      swap1\n      pop\n      tag_195\n      swap2\n      swap1\n      tag_196\n      jump\t// in\n    tag_195:\n      pop\n      swap1\n      jump\t// out\n    tag_196:\n    tag_197:\n      dup1\n      dup3\n      gt\n      iszero\n      tag_198\n      jumpi\n      0x00\n      dup2\n      0x00\n      swap1\n      sstore\n      pop\n      0x01\n      add\n      jump(tag_197)\n    tag_198:\n      pop\n      swap1\n      jump\t// out\n    stop\n    data_0f0efad4a73c5906dbb9193332cd2b3d77d86212ba2c1341986dbf30e05a561d 506c6179657220312063686f736520726f636b3b20706c6179657220322063686f73652070617065722e20506c6179657220322077696e7321\n    data_1b3579ebba8bbe9db7151c5856cece1eec70ac8b4f5462b733d239013ebe166e 426f746820706c61796572732063686f736520726f636b2e20447261773b206e6f206f6e652077696e732e\n    data_20d2d48dfd01aaafb2090d51816348c6fb82cac8229e2590d57d034012b32297 506c6179657220312063686f73652070617065723b20706c6179657220322063686f73652073636973736f72732e20506c6179657220322077696e7321\n    data_6120c960111c1a4ee2a1cdbd0826181b85a28639902bb0d171bf9a175d4180af 47616d6520696e2070726f67726573732e2057616974696e6720666f7220706c617965723120746f2072657665616c2063686f696365\n    data_814385f5abd68acdd21bb75b0923f4e23f3519c5fdeb72aa9e42d88b58af7eb4 426f746820706c61796572732063686f73652070617065722e20447261773b206e6f206f6e652077696e732e\n    data_821cf8a62e75265a5bdfe2b1ebc365d53adf69e405ffeacf5619a887268b100d 506c6179657220312063686f73652073636973736f72733b20706c6179657220322063686f73652070617065722e20506c6179657220312077696e7321\n    data_a5d05e03e2caea60844f1e6aed8e88c3bdde119af28524ca5c13abfd43b165c9 72657665616c2043686f69636520666f7220626f746820706c6179657273206669727374\n    data_d3193108c8ca6ae9372e4d902db8aebd0fa6da2bbcff7d2753c884b2f493eb7c 426f746820706c61796572732063686f73652073636973736f72732e20447261773b206e6f206f6e652077696e732e\n    data_d8a0c8d62830f9363f01354d011a05f8ad25de55b63c8159adc8cf6efe7ab599 506c6179657220312063686f73652070617065723b20706c6179657220322063686f736520726f636b2e20506c6179657220312077696e7321\n    data_e06e23b63de781ca8ee22aa9dc44a1288cec8cdf1bcdf1272c554f866a8ce2bd 47616d652074696d6564206f7574206166746572206c6f636b2e20506c61796572322077696e732062792064656661756c742e\n    data_eeb84d44db9799c585a1d642482d093a8bdfab641c87d8958c59910673964db4 47616d6520696e2070726f67726573732e2057616974696e6720666f7220706c617965723220746f206a6f696e\n    data_f7d77d983cae7d1255cbc443f36ac374571f01ade17ad33d7ee2aeb012c29778 47616d652074696d6564206f75742e204e6f20706c6179657232206a6f696e65642e20526566756e6420746f20706c61796572312e\n    data_fabe144f25258224a7b2b2e5389814286394d9cfb8c9975610541df7b288b7ed 506c6179657220312063686f736520726f636b3b20706c6179657220322063686f73652073636973736f72732e20506c6179657220312077696e7321\n    data_fd18c08aec1c518e865232faeb40c043722c411eddc2d80e57c0bd1c743a58fb 506c6179657220312063686f73652073636973736f72733b20706c6179657220322063686f736520726f636b2e20506c6179657220322077696e7321\n\n    auxdata: 0xa2646970667358221220433629a466ac682288eaf1325b5b4816fec0755f627f908384397b500baeac6564736f6c634300060c0033\n}\n",
				"bytecode": {
					"linkReferences": {},
					"object": "608060405234801561001057600080fd5b5060405161229e38038061229e8339818101604052602081101561003357600080fd5b810190808051906020019092919050505080600081905550506122438061005b6000396000f3fe6080604052600436106100a75760003560e01c8063a6f8166811610064578063a6f8166814610243578063b053055b1461033f578063b5031b391461038f578063c2ff5560146103a6578063cafc79b8146103f3578063e2f0eaf814610440576100a7565b8063031507e5146100ac57806317a78540146100ed578063477560cb1461013d5780634914674a1461016857806351f94a90146101b557806393327ee114610202575b600080fd5b3480156100b857600080fd5b506100c161049d565b604051808273ffffffffffffffffffffffffffffffffffffffff16815260200191505060405180910390f35b61013b6004803603602081101561010357600080fd5b8101908080357effffffffffffffffffffffffffffffffffffffffffffffffffffffffffffff191690602001909291905050506104c3565b005b34801561014957600080fd5b50610152610861565b6040518082815260200191505060405180910390f35b34801561017457600080fd5b5061017d610867565b60405180827effffffffffffffffffffffffffffffffffffffffffffffffffffffffffffff1916815260200191505060405180910390f35b3480156101c157600080fd5b506101ca61087a565b60405180827effffffffffffffffffffffffffffffffffffffffffffffffffffffffffffff1916815260200191505060405180910390f35b34801561020e57600080fd5b5061021761088d565b604051808273ffffffffffffffffffffffffffffffffffffffff16815260200191505060405180910390f35b34801561024f57600080fd5b5061027c6004803603602081101561026657600080fd5b81019080803590602001909291905050506108b3565b604051808681526020018581526020018473ffffffffffffffffffffffffffffffffffffffff1681526020018373ffffffffffffffffffffffffffffffffffffffff16815260200180602001828103825283818151815260200191508051906020019080838360005b838110156103005780820151818401526020810190506102e5565b50505050905090810190601f16801561032d5780820380516001836020036101000a031916815260200191505b50965050505050505060405180910390f35b61038d6004803603602081101561035557600080fd5b8101908080357effffffffffffffffffffffffffffffffffffffffffffffffffffffffffffff191690602001909291905050506109ce565b005b34801561039b57600080fd5b506103a4610ce2565b005b3480156103b257600080fd5b506103bb610fe6565b60405180827effffffffffffffffffffffffffffffffffffffffffffffffffffffffffffff1916815260200191505060405180910390f35b3480156103ff57600080fd5b50610408610ff9565b60405180827effffffffffffffffffffffffffffffffffffffffffffffffffffffffffffff1916815260200191505060405180910390f35b34801561044c57600080fd5b5061049b6004803603602081101561046357600080fd5b8101908080357effffffffffffffffffffffffffffffffffffffffffffffffffffffffffffff1916906020019092919050505061100c565b005b600160009054906101000a900473ffffffffffffffffffffffffffffffffffffffff1681565b600073ffffffffffffffffffffffffffffffffffffffff16600160009054906101000a900473ffffffffffffffffffffffffffffffffffffffff1673ffffffffffffffffffffffffffffffffffffffff16141580156105705750600073ffffffffffffffffffffffffffffffffffffffff16600260009054906101000a900473ffffffffffffffffffffffffffffffffffffffff1673ffffffffffffffffffffffffffffffffffffffff16145b6105e2576040517f08c379a000000000000000000000000000000000000000000000000000000000815260040180806020018281038252601a8152602001807f47616d65206c6f636b65642c2074727920737461727447616d6500000000000081525060200191505060405180910390fd5b6000543414610659576040517f08c379a00000000000000000000000000000000000000000000000000000000081526004018080602001828103825260198152602001807f506c6163652072657175697265642062657420616d6f756e740000000000000081525060200191505060405180910390fd5b6000600361067660016003805490506112e290919063ffffffff16565b8154811061068057fe5b9060005260206000209060050201905060008160020160009054906101000a900473ffffffffffffffffffffffffffffffffffffffff1690506202a3006106d48360000154426112e290919063ffffffff16565b116107d95733600260006101000a81548173ffffffffffffffffffffffffffffffffffffffff021916908373ffffffffffffffffffffffffffffffffffffffff16021790555082600260176101000a81548160ff021916908360f81c0217905550428260010181905550600260009054906101000a900473ffffffffffffffffffffffffffffffffffffffff168260030160006101000a81548173ffffffffffffffffffffffffffffffffffffffff021916908373ffffffffffffffffffffffffffffffffffffffff160217905550604051806060016040528060368152602001611fd6603691398260040190805190602001906107d3929190611e97565b5061085c565b60405180606001604052806035815260200161216160359139826004019080519060200190610809929190611e97565b50610812611365565b8073ffffffffffffffffffffffffffffffffffffffff166108fc6000549081150290604051600060405180830381858888f1935050505015801561085a573d6000803e3d6000fd5b505b505050565b60005481565b600260169054906101000a900460f81b81565b600260159054906101000a900460f81b81565b600260009054906101000a900473ffffffffffffffffffffffffffffffffffffffff1681565b600381815481106108c057fe5b90600052602060002090600502016000915090508060000154908060010154908060020160009054906101000a900473ffffffffffffffffffffffffffffffffffffffff16908060030160009054906101000a900473ffffffffffffffffffffffffffffffffffffffff1690806004018054600181600116156101000203166002900480601f0160208091040260200160405190810160405280929190818152602001828054600181600116156101000203166002900480156109c45780601f10610999576101008083540402835291602001916109c4565b820191906000526020600020905b8154815290600101906020018083116109a757829003601f168201915b5050505050905085565b600073ffffffffffffffffffffffffffffffffffffffff16600160009054906101000a900473ffffffffffffffffffffffffffffffffffffffff1673ffffffffffffffffffffffffffffffffffffffff1614610a92576040517f08c379a000000000000000000000000000000000000000000000000000000000815260040180806020018281038252601a8152602001807f47616d6520737461727465642c20747279206a6f696e47616d6500000000000081525060200191505060405180910390fd5b6000543414610b09576040517f08c379a00000000000000000000000000000000000000000000000000000000081526004018080602001828103825260198152602001807f506c6163652072657175697265642062657420616d6f756e740000000000000081525060200191505060405180910390fd5b33600160006101000a81548173ffffffffffffffffffffffffffffffffffffffff021916908373ffffffffffffffffffffffffffffffffffffffff16021790555080600260146101000a81548160ff021916908360f81c021790555060036040518060a00160405280428152602001428152602001600160009054906101000a900473ffffffffffffffffffffffffffffffffffffffff1673ffffffffffffffffffffffffffffffffffffffff168152602001600073ffffffffffffffffffffffffffffffffffffffff1681526020016040518060600160405280602d8152602001612134602d91398152509080600181540180825580915050600190039060005260206000209060050201600090919091909150600082015181600001556020820151816001015560408201518160020160006101000a81548173ffffffffffffffffffffffffffffffffffffffff021916908373ffffffffffffffffffffffffffffffffffffffff16021790555060608201518160030160006101000a81548173ffffffffffffffffffffffffffffffffffffffff021916908373ffffffffffffffffffffffffffffffffffffffff1602179055506080820151816004019080519060200190610cdc929190611e97565b50505050565b60006003610cff60016003805490506112e290919063ffffffff16565b81548110610d0957fe5b9060005260206000209060050201905060008160020160009054906101000a900473ffffffffffffffffffffffffffffffffffffffff16905060008260030160009054906101000a900473ffffffffffffffffffffffffffffffffffffffff169050600073ffffffffffffffffffffffffffffffffffffffff16600160009054906101000a900473ffffffffffffffffffffffffffffffffffffffff1673ffffffffffffffffffffffffffffffffffffffff1614158015610e185750600073ffffffffffffffffffffffffffffffffffffffff16600260009054906101000a900473ffffffffffffffffffffffffffffffffffffffff1673ffffffffffffffffffffffffffffffffffffffff16145b15610ec2576202a300610e388460000154426112e290919063ffffffff16565b1115610ec15760405180606001604052806035815260200161216160359139836004019080519060200190610e6e929190611e97565b50610e77611365565b8173ffffffffffffffffffffffffffffffffffffffff166108fc6000549081150290604051600060405180830381858888f19350505050158015610ebf573d6000803e3d6000fd5b505b5b600073ffffffffffffffffffffffffffffffffffffffff16600260009054906101000a900473ffffffffffffffffffffffffffffffffffffffff1673ffffffffffffffffffffffffffffffffffffffff1614158015610f775750600060f81b7effffffffffffffffffffffffffffffffffffffffffffffffffffffffffffff1916600260169054906101000a900460f81b7effffffffffffffffffffffffffffffffffffffffffffffffffffffffffffff1916145b15610fe1576202a300610f978460010154426112e290919063ffffffff16565b1115610fe05760405180606001604052806033815260200161210160339139836004019080519060200190610fcd929190611e97565b50610fd6611365565b610fdf81611467565b5b5b505050565b600260179054906101000a900460f81b81565b600260149054906101000a900460f81b81565b600073ffffffffffffffffffffffffffffffffffffffff16600260009054906101000a900473ffffffffffffffffffffffffffffffffffffffff1673ffffffffffffffffffffffffffffffffffffffff1614156110d1576040517f08c379a000000000000000000000000000000000000000000000000000000000815260040180806020018281038252601b8152602001807f57616974696e6720666f7220706c617965723220746f206a6f696e000000000081525060200191505060405180910390fd5b600160009054906101000a900473ffffffffffffffffffffffffffffffffffffffff1673ffffffffffffffffffffffffffffffffffffffff163373ffffffffffffffffffffffffffffffffffffffff1614611194576040517f08c379a000000000000000000000000000000000000000000000000000000000815260040180806020018281038252600c8152602001807f706c6179657231206f6e6c79000000000000000000000000000000000000000081525060200191505060405180910390fd5b600060036111b160016003805490506112e290919063ffffffff16565b815481106111bb57fe5b9060005260206000209060050201905060008160030160009054906101000a900473ffffffffffffffffffffffffffffffffffffffff1690506202a30061120f8360010154426112e290919063ffffffff16565b1161129a57600260149054906101000a905050600160ff16600160ff161461123657600080fd5b82600260156101000a81548160ff021916908360f81c0217905550600260159054906101000a900460f81b600260149054906101000a900460f81b18600260166101000a81548160ff021916908360f81c02179055506112946114b1565b506112dd565b604051806060016040528060338152602001612101603391398260040190805190602001906112ca929190611e97565b506112d3611365565b6112dc81611467565b5b505050565b60008282111561135a576040517f08c379a000000000000000000000000000000000000000000000000000000000815260040180806020018281038252601e8152602001807f536166654d6174683a207375627472616374696f6e206f766572666c6f77000081525060200191505060405180910390fd5b818303905092915050565b6000600160006101000a81548173ffffffffffffffffffffffffffffffffffffffff021916908373ffffffffffffffffffffffffffffffffffffffff1602179055506000600260006101000a81548173ffffffffffffffffffffffffffffffffffffffff021916908373ffffffffffffffffffffffffffffffffffffffff160217905550600060f81b600260146101000a81548160ff021916908360f81c0217905550600060f81b600260156101000a81548160ff021916908360f81c0217905550600060f81b600260166101000a81548160ff021916908360f81c0217905550600060f81b600260176101000a81548160ff021916908360f81c0217905550565b8073ffffffffffffffffffffffffffffffffffffffff166108fc479081150290604051600060405180830381858888f193505050501580156114ad573d6000803e3d6000fd5b5050565b6060600060f81b7effffffffffffffffffffffffffffffffffffffffffffffffffffffffffffff1916600260169054906101000a900460f81b7effffffffffffffffffffffffffffffffffffffffffffffffffffffffffffff1916141580156115715750600060f81b7effffffffffffffffffffffffffffffffffffffffffffffffffffffffffffff1916600260179054906101000a900460f81b7effffffffffffffffffffffffffffffffffffffffffffffffffffffffffffff191614155b6115c6576040517f08c379a00000000000000000000000000000000000000000000000000000000081526004018080602001828103825260248152602001806120756024913960400191505060405180910390fd5b600060036115e360016003805490506112e290919063ffffffff16565b815481106115ed57fe5b9060005260206000209060050201905060008160020160009054906101000a900473ffffffffffffffffffffffffffffffffffffffff16905060008260030160009054906101000a900473ffffffffffffffffffffffffffffffffffffffff169050600160f81b7effffffffffffffffffffffffffffffffffffffffffffffffffffffffffffff1916600260169054906101000a900460f81b7effffffffffffffffffffffffffffffffffffffffffffffffffffffffffffff191614156118a457600160f81b7effffffffffffffffffffffffffffffffffffffffffffffffffffffffffffff1916600260179054906101000a900460f81b7effffffffffffffffffffffffffffffffffffffffffffffffffffffffffffff19161415611755576040518060600160405280602b8152602001611f6e602b913983600401908051906020019061173d929190611e97565b50611746611365565b6117508282611d52565b61189f565b600260f81b7effffffffffffffffffffffffffffffffffffffffffffffffffffffffffffff1916600260179054906101000a900460f81b7effffffffffffffffffffffffffffffffffffffffffffffffffffffffffffff191614156117fb57604051806060016040528060398152602001611f35603991398360040190805190602001906117e4929190611e97565b506117ed611365565b6117f681611467565b61189e565b600360f81b7effffffffffffffffffffffffffffffffffffffffffffffffffffffffffffff1916600260179054906101000a900460f81b7effffffffffffffffffffffffffffffffffffffffffffffffffffffffffffff1916141561189d576040518060600160405280603c8152602001612196603c913983600401908051906020019061188a929190611e97565b50611893611365565b61189c82611467565b5b5b5b611d4c565b600260f81b7effffffffffffffffffffffffffffffffffffffffffffffffffffffffffffff1916600260169054906101000a900460f81b7effffffffffffffffffffffffffffffffffffffffffffffffffffffffffffff19161415611af957600160f81b7effffffffffffffffffffffffffffffffffffffffffffffffffffffffffffff1916600260179054906101000a900460f81b7effffffffffffffffffffffffffffffffffffffffffffffffffffffffffffff191614156119a9576040518060600160405280603981526020016120c860399139836004019080519060200190611992929190611e97565b5061199b611365565b6119a482611467565b611af4565b600260f81b7effffffffffffffffffffffffffffffffffffffffffffffffffffffffffffff1916600260179054906101000a900460f81b7effffffffffffffffffffffffffffffffffffffffffffffffffffffffffffff19161415611a50576040518060600160405280602c815260200161200c602c9139836004019080519060200190611a38929190611e97565b50611a41611365565b611a4b8282611d52565b611af3565b600360f81b7effffffffffffffffffffffffffffffffffffffffffffffffffffffffffffff1916600260179054906101000a900460f81b7effffffffffffffffffffffffffffffffffffffffffffffffffffffffffffff19161415611af2576040518060600160405280603d8152602001611f99603d9139836004019080519060200190611adf929190611e97565b50611ae8611365565b611af181611467565b5b5b5b611d4b565b600360f81b7effffffffffffffffffffffffffffffffffffffffffffffffffffffffffffff1916600260169054906101000a900460f81b7effffffffffffffffffffffffffffffffffffffffffffffffffffffffffffff19161415611d4a57600160f81b7effffffffffffffffffffffffffffffffffffffffffffffffffffffffffffff1916600260179054906101000a900460f81b7effffffffffffffffffffffffffffffffffffffffffffffffffffffffffffff19161415611bfe576040518060600160405280603c81526020016121d2603c9139836004019080519060200190611be7929190611e97565b50611bf0611365565b611bf981611467565b611d49565b600260f81b7effffffffffffffffffffffffffffffffffffffffffffffffffffffffffffff1916600260179054906101000a900460f81b7effffffffffffffffffffffffffffffffffffffffffffffffffffffffffffff19161415611ca4576040518060600160405280603d8152602001612038603d9139836004019080519060200190611c8d929190611e97565b50611c96611365565b611c9f82611467565b611d48565b600360f81b7effffffffffffffffffffffffffffffffffffffffffffffffffffffffffffff1916600260179054906101000a900460f81b7effffffffffffffffffffffffffffffffffffffffffffffffffffffffffffff19161415611d47576040518060600160405280602f8152602001612099602f9139836004019080519060200190611d33929190611e97565b50611d3c611365565b611d468282611d52565b5b5b5b5b5b5b50505090565b8173ffffffffffffffffffffffffffffffffffffffff166108fc611d826002600054611e0e90919063ffffffff16565b9081150290604051600060405180830381858888f19350505050158015611dad573d6000803e3d6000fd5b508073ffffffffffffffffffffffffffffffffffffffff166108fc611dde6002600054611e0e90919063ffffffff16565b9081150290604051600060405180830381858888f19350505050158015611e09573d6000803e3d6000fd5b505050565b6000808211611e85576040517f08c379a000000000000000000000000000000000000000000000000000000000815260040180806020018281038252601a8152602001807f536166654d6174683a206469766973696f6e206279207a65726f00000000000081525060200191505060405180910390fd5b818381611e8e57fe5b04905092915050565b828054600181600116156101000203166002900490600052602060002090601f016020900481019282601f10611ed857805160ff1916838001178555611f06565b82800160010185558215611f06579182015b82811115611f05578251825591602001919060010190611eea565b5b509050611f139190611f17565b5090565b5b80821115611f30576000816000905550600101611f18565b509056fe506c6179657220312063686f736520726f636b3b20706c6179657220322063686f73652070617065722e20506c6179657220322077696e7321426f746820706c61796572732063686f736520726f636b2e20447261773b206e6f206f6e652077696e732e506c6179657220312063686f73652070617065723b20706c6179657220322063686f73652073636973736f72732e20506c6179657220322077696e732147616d6520696e2070726f67726573732e2057616974696e6720666f7220706c617965723120746f2072657665616c2063686f696365426f746820706c61796572732063686f73652070617065722e20447261773b206e6f206f6e652077696e732e506c6179657220312063686f73652073636973736f72733b20706c6179657220322063686f73652070617065722e20506c6179657220312077696e732172657665616c2043686f69636520666f7220626f746820706c6179657273206669727374426f746820706c61796572732063686f73652073636973736f72732e20447261773b206e6f206f6e652077696e732e506c6179657220312063686f73652070617065723b20706c6179657220322063686f736520726f636b2e20506c6179657220312077696e732147616d652074696d6564206f7574206166746572206c6f636b2e20506c61796572322077696e732062792064656661756c742e47616d6520696e2070726f67726573732e2057616974696e6720666f7220706c617965723220746f206a6f696e47616d652074696d6564206f75742e204e6f20706c6179657232206a6f696e65642e20526566756e6420746f20706c61796572312e506c6179657220312063686f736520726f636b3b20706c6179657220322063686f73652073636973736f72732e20506c6179657220312077696e7321506c6179657220312063686f73652073636973736f72733b20706c6179657220322063686f736520726f636b2e20506c6179657220322077696e7321a2646970667358221220433629a466ac682288eaf1325b5b4816fec0755f627f908384397b500baeac6564736f6c634300060c0033",
					"opcodes": "PUSH1 0x80 PUSH1 0x40 MSTORE CALLVALUE DUP1 ISZERO PUSH2 0x10 JUMPI PUSH1 0x0 DUP1 REVERT JUMPDEST POP PUSH1 0x40 MLOAD PUSH2 0x229E CODESIZE SUB DUP1 PUSH2 0x229E DUP4 CODECOPY DUP2 DUP2 ADD PUSH1 0x40 MSTORE PUSH1 0x20 DUP2 LT ISZERO PUSH2 0x33 JUMPI PUSH1 0x0 DUP1 REVERT JUMPDEST DUP2 ADD SWAP1 DUP1 DUP1 MLOAD SWAP1 PUSH1 0x20 ADD SWAP1 SWAP3 SWAP2 SWAP1 POP POP POP DUP1 PUSH1 0x0 DUP2 SWAP1 SSTORE POP POP PUSH2 0x2243 DUP1 PUSH2 0x5B PUSH1 0x0 CODECOPY PUSH1 0x0 RETURN INVALID PUSH1 0x80 PUSH1 0x40 MSTORE PUSH1 0x4 CALLDATASIZE LT PUSH2 0xA7 JUMPI PUSH1 0x0 CALLDATALOAD PUSH1 0xE0 SHR DUP1 PUSH4 0xA6F81668 GT PUSH2 0x64 JUMPI DUP1 PUSH4 0xA6F81668 EQ PUSH2 0x243 JUMPI DUP1 PUSH4 0xB053055B EQ PUSH2 0x33F JUMPI DUP1 PUSH4 0xB5031B39 EQ PUSH2 0x38F JUMPI DUP1 PUSH4 0xC2FF5560 EQ PUSH2 0x3A6 JUMPI DUP1 PUSH4 0xCAFC79B8 EQ PUSH2 0x3F3 JUMPI DUP1 PUSH4 0xE2F0EAF8 EQ PUSH2 0x440 JUMPI PUSH2 0xA7 JUMP JUMPDEST DUP1 PUSH4 0x31507E5 EQ PUSH2 0xAC JUMPI DUP1 PUSH4 0x17A78540 EQ PUSH2 0xED JUMPI DUP1 PUSH4 0x477560CB EQ PUSH2 0x13D JUMPI DUP1 PUSH4 0x4914674A EQ PUSH2 0x168 JUMPI DUP1 PUSH4 0x51F94A90 EQ PUSH2 0x1B5 JUMPI DUP1 PUSH4 0x93327EE1 EQ PUSH2 0x202 JUMPI JUMPDEST PUSH1 0x0 DUP1 REVERT JUMPDEST CALLVALUE DUP1 ISZERO PUSH2 0xB8 JUMPI PUSH1 0x0 DUP1 REVERT JUMPDEST POP PUSH2 0xC1 PUSH2 0x49D JUMP JUMPDEST PUSH1 0x40 MLOAD DUP1 DUP3 PUSH20 0xFFFFFFFFFFFFFFFFFFFFFFFFFFFFFFFFFFFFFFFF AND DUP2 MSTORE PUSH1 0x20 ADD SWAP2 POP POP PUSH1 0x40 MLOAD DUP1 SWAP2 SUB SWAP1 RETURN JUMPDEST PUSH2 0x13B PUSH1 0x4 DUP1 CALLDATASIZE SUB PUSH1 0x20 DUP2 LT ISZERO PUSH2 0x103 JUMPI PUSH1 0x0 DUP1 REVERT JUMPDEST DUP2 ADD SWAP1 DUP1 DUP1 CALLDATALOAD PUSH31 0xFFFFFFFFFFFFFFFFFFFFFFFFFFFFFFFFFFFFFFFFFFFFFFFFFFFFFFFFFFFFFF NOT AND SWAP1 PUSH1 0x20 ADD SWAP1 SWAP3 SWAP2 SWAP1 POP POP POP PUSH2 0x4C3 JUMP JUMPDEST STOP JUMPDEST CALLVALUE DUP1 ISZERO PUSH2 0x149 JUMPI PUSH1 0x0 DUP1 REVERT JUMPDEST POP PUSH2 0x152 PUSH2 0x861 JUMP JUMPDEST PUSH1 0x40 MLOAD DUP1 DUP3 DUP2 MSTORE PUSH1 0x20 ADD SWAP2 POP POP PUSH1 0x40 MLOAD DUP1 SWAP2 SUB SWAP1 RETURN JUMPDEST CALLVALUE DUP1 ISZERO PUSH2 0x174 JUMPI PUSH1 0x0 DUP1 REVERT JUMPDEST POP PUSH2 0x17D PUSH2 0x867 JUMP JUMPDEST PUSH1 0x40 MLOAD DUP1 DUP3 PUSH31 0xFFFFFFFFFFFFFFFFFFFFFFFFFFFFFFFFFFFFFFFFFFFFFFFFFFFFFFFFFFFFFF NOT AND DUP2 MSTORE PUSH1 0x20 ADD SWAP2 POP POP PUSH1 0x40 MLOAD DUP1 SWAP2 SUB SWAP1 RETURN JUMPDEST CALLVALUE DUP1 ISZERO PUSH2 0x1C1 JUMPI PUSH1 0x0 DUP1 REVERT JUMPDEST POP PUSH2 0x1CA PUSH2 0x87A JUMP JUMPDEST PUSH1 0x40 MLOAD DUP1 DUP3 PUSH31 0xFFFFFFFFFFFFFFFFFFFFFFFFFFFFFFFFFFFFFFFFFFFFFFFFFFFFFFFFFFFFFF NOT AND DUP2 MSTORE PUSH1 0x20 ADD SWAP2 POP POP PUSH1 0x40 MLOAD DUP1 SWAP2 SUB SWAP1 RETURN JUMPDEST CALLVALUE DUP1 ISZERO PUSH2 0x20E JUMPI PUSH1 0x0 DUP1 REVERT JUMPDEST POP PUSH2 0x217 PUSH2 0x88D JUMP JUMPDEST PUSH1 0x40 MLOAD DUP1 DUP3 PUSH20 0xFFFFFFFFFFFFFFFFFFFFFFFFFFFFFFFFFFFFFFFF AND DUP2 MSTORE PUSH1 0x20 ADD SWAP2 POP POP PUSH1 0x40 MLOAD DUP1 SWAP2 SUB SWAP1 RETURN JUMPDEST CALLVALUE DUP1 ISZERO PUSH2 0x24F JUMPI PUSH1 0x0 DUP1 REVERT JUMPDEST POP PUSH2 0x27C PUSH1 0x4 DUP1 CALLDATASIZE SUB PUSH1 0x20 DUP2 LT ISZERO PUSH2 0x266 JUMPI PUSH1 0x0 DUP1 REVERT JUMPDEST DUP2 ADD SWAP1 DUP1 DUP1 CALLDATALOAD SWAP1 PUSH1 0x20 ADD SWAP1 SWAP3 SWAP2 SWAP1 POP POP POP PUSH2 0x8B3 JUMP JUMPDEST PUSH1 0x40 MLOAD DUP1 DUP7 DUP2 MSTORE PUSH1 0x20 ADD DUP6 DUP2 MSTORE PUSH1 0x20 ADD DUP5 PUSH20 0xFFFFFFFFFFFFFFFFFFFFFFFFFFFFFFFFFFFFFFFF AND DUP2 MSTORE PUSH1 0x20 ADD DUP4 PUSH20 0xFFFFFFFFFFFFFFFFFFFFFFFFFFFFFFFFFFFFFFFF AND DUP2 MSTORE PUSH1 0x20 ADD DUP1 PUSH1 0x20 ADD DUP3 DUP2 SUB DUP3 MSTORE DUP4 DUP2 DUP2 MLOAD DUP2 MSTORE PUSH1 0x20 ADD SWAP2 POP DUP1 MLOAD SWAP1 PUSH1 0x20 ADD SWAP1 DUP1 DUP4 DUP4 PUSH1 0x0 JUMPDEST DUP4 DUP2 LT ISZERO PUSH2 0x300 JUMPI DUP1 DUP3 ADD MLOAD DUP2 DUP5 ADD MSTORE PUSH1 0x20 DUP2 ADD SWAP1 POP PUSH2 0x2E5 JUMP JUMPDEST POP POP POP POP SWAP1 POP SWAP1 DUP2 ADD SWAP1 PUSH1 0x1F AND DUP1 ISZERO PUSH2 0x32D JUMPI DUP1 DUP3 SUB DUP1 MLOAD PUSH1 0x1 DUP4 PUSH1 0x20 SUB PUSH2 0x100 EXP SUB NOT AND DUP2 MSTORE PUSH1 0x20 ADD SWAP2 POP JUMPDEST POP SWAP7 POP POP POP POP POP POP POP PUSH1 0x40 MLOAD DUP1 SWAP2 SUB SWAP1 RETURN JUMPDEST PUSH2 0x38D PUSH1 0x4 DUP1 CALLDATASIZE SUB PUSH1 0x20 DUP2 LT ISZERO PUSH2 0x355 JUMPI PUSH1 0x0 DUP1 REVERT JUMPDEST DUP2 ADD SWAP1 DUP1 DUP1 CALLDATALOAD PUSH31 0xFFFFFFFFFFFFFFFFFFFFFFFFFFFFFFFFFFFFFFFFFFFFFFFFFFFFFFFFFFFFFF NOT AND SWAP1 PUSH1 0x20 ADD SWAP1 SWAP3 SWAP2 SWAP1 POP POP POP PUSH2 0x9CE JUMP JUMPDEST STOP JUMPDEST CALLVALUE DUP1 ISZERO PUSH2 0x39B JUMPI PUSH1 0x0 DUP1 REVERT JUMPDEST POP PUSH2 0x3A4 PUSH2 0xCE2 JUMP JUMPDEST STOP JUMPDEST CALLVALUE DUP1 ISZERO PUSH2 0x3B2 JUMPI PUSH1 0x0 DUP1 REVERT JUMPDEST POP PUSH2 0x3BB PUSH2 0xFE6 JUMP JUMPDEST PUSH1 0x40 MLOAD DUP1 DUP3 PUSH31 0xFFFFFFFFFFFFFFFFFFFFFFFFFFFFFFFFFFFFFFFFFFFFFFFFFFFFFFFFFFFFFF NOT AND DUP2 MSTORE PUSH1 0x20 ADD SWAP2 POP POP PUSH1 0x40 MLOAD DUP1 SWAP2 SUB SWAP1 RETURN JUMPDEST CALLVALUE DUP1 ISZERO PUSH2 0x3FF JUMPI PUSH1 0x0 DUP1 REVERT JUMPDEST POP PUSH2 0x408 PUSH2 0xFF9 JUMP JUMPDEST PUSH1 0x40 MLOAD DUP1 DUP3 PUSH31 0xFFFFFFFFFFFFFFFFFFFFFFFFFFFFFFFFFFFFFFFFFFFFFFFFFFFFFFFFFFFFFF NOT AND DUP2 MSTORE PUSH1 0x20 ADD SWAP2 POP POP PUSH1 0x40 MLOAD DUP1 SWAP2 SUB SWAP1 RETURN JUMPDEST CALLVALUE DUP1 ISZERO PUSH2 0x44C JUMPI PUSH1 0x0 DUP1 REVERT JUMPDEST POP PUSH2 0x49B PUSH1 0x4 DUP1 CALLDATASIZE SUB PUSH1 0x20 DUP2 LT ISZERO PUSH2 0x463 JUMPI PUSH1 0x0 DUP1 REVERT JUMPDEST DUP2 ADD SWAP1 DUP1 DUP1 CALLDATALOAD PUSH31 0xFFFFFFFFFFFFFFFFFFFFFFFFFFFFFFFFFFFFFFFFFFFFFFFFFFFFFFFFFFFFFF NOT AND SWAP1 PUSH1 0x20 ADD SWAP1 SWAP3 SWAP2 SWAP1 POP POP POP PUSH2 0x100C JUMP JUMPDEST STOP JUMPDEST PUSH1 0x1 PUSH1 0x0 SWAP1 SLOAD SWAP1 PUSH2 0x100 EXP SWAP1 DIV PUSH20 0xFFFFFFFFFFFFFFFFFFFFFFFFFFFFFFFFFFFFFFFF AND DUP2 JUMP JUMPDEST PUSH1 0x0 PUSH20 0xFFFFFFFFFFFFFFFFFFFFFFFFFFFFFFFFFFFFFFFF AND PUSH1 0x1 PUSH1 0x0 SWAP1 SLOAD SWAP1 PUSH2 0x100 EXP SWAP1 DIV PUSH20 0xFFFFFFFFFFFFFFFFFFFFFFFFFFFFFFFFFFFFFFFF AND PUSH20 0xFFFFFFFFFFFFFFFFFFFFFFFFFFFFFFFFFFFFFFFF AND EQ ISZERO DUP1 ISZERO PUSH2 0x570 JUMPI POP PUSH1 0x0 PUSH20 0xFFFFFFFFFFFFFFFFFFFFFFFFFFFFFFFFFFFFFFFF AND PUSH1 0x2 PUSH1 0x0 SWAP1 SLOAD SWAP1 PUSH2 0x100 EXP SWAP1 DIV PUSH20 0xFFFFFFFFFFFFFFFFFFFFFFFFFFFFFFFFFFFFFFFF AND PUSH20 0xFFFFFFFFFFFFFFFFFFFFFFFFFFFFFFFFFFFFFFFF AND EQ JUMPDEST PUSH2 0x5E2 JUMPI PUSH1 0x40 MLOAD PUSH32 0x8C379A000000000000000000000000000000000000000000000000000000000 DUP2 MSTORE PUSH1 0x4 ADD DUP1 DUP1 PUSH1 0x20 ADD DUP3 DUP2 SUB DUP3 MSTORE PUSH1 0x1A DUP2 MSTORE PUSH1 0x20 ADD DUP1 PUSH32 0x47616D65206C6F636B65642C2074727920737461727447616D65000000000000 DUP2 MSTORE POP PUSH1 0x20 ADD SWAP2 POP POP PUSH1 0x40 MLOAD DUP1 SWAP2 SUB SWAP1 REVERT JUMPDEST PUSH1 0x0 SLOAD CALLVALUE EQ PUSH2 0x659 JUMPI PUSH1 0x40 MLOAD PUSH32 0x8C379A000000000000000000000000000000000000000000000000000000000 DUP2 MSTORE PUSH1 0x4 ADD DUP1 DUP1 PUSH1 0x20 ADD DUP3 DUP2 SUB DUP3 MSTORE PUSH1 0x19 DUP2 MSTORE PUSH1 0x20 ADD DUP1 PUSH32 0x506C6163652072657175697265642062657420616D6F756E7400000000000000 DUP2 MSTORE POP PUSH1 0x20 ADD SWAP2 POP POP PUSH1 0x40 MLOAD DUP1 SWAP2 SUB SWAP1 REVERT JUMPDEST PUSH1 0x0 PUSH1 0x3 PUSH2 0x676 PUSH1 0x1 PUSH1 0x3 DUP1 SLOAD SWAP1 POP PUSH2 0x12E2 SWAP1 SWAP2 SWAP1 PUSH4 0xFFFFFFFF AND JUMP JUMPDEST DUP2 SLOAD DUP2 LT PUSH2 0x680 JUMPI INVALID JUMPDEST SWAP1 PUSH1 0x0 MSTORE PUSH1 0x20 PUSH1 0x0 KECCAK256 SWAP1 PUSH1 0x5 MUL ADD SWAP1 POP PUSH1 0x0 DUP2 PUSH1 0x2 ADD PUSH1 0x0 SWAP1 SLOAD SWAP1 PUSH2 0x100 EXP SWAP1 DIV PUSH20 0xFFFFFFFFFFFFFFFFFFFFFFFFFFFFFFFFFFFFFFFF AND SWAP1 POP PUSH3 0x2A300 PUSH2 0x6D4 DUP4 PUSH1 0x0 ADD SLOAD TIMESTAMP PUSH2 0x12E2 SWAP1 SWAP2 SWAP1 PUSH4 0xFFFFFFFF AND JUMP JUMPDEST GT PUSH2 0x7D9 JUMPI CALLER PUSH1 0x2 PUSH1 0x0 PUSH2 0x100 EXP DUP2 SLOAD DUP2 PUSH20 0xFFFFFFFFFFFFFFFFFFFFFFFFFFFFFFFFFFFFFFFF MUL NOT AND SWAP1 DUP4 PUSH20 0xFFFFFFFFFFFFFFFFFFFFFFFFFFFFFFFFFFFFFFFF AND MUL OR SWAP1 SSTORE POP DUP3 PUSH1 0x2 PUSH1 0x17 PUSH2 0x100 EXP DUP2 SLOAD DUP2 PUSH1 0xFF MUL NOT AND SWAP1 DUP4 PUSH1 0xF8 SHR MUL OR SWAP1 SSTORE POP TIMESTAMP DUP3 PUSH1 0x1 ADD DUP2 SWAP1 SSTORE POP PUSH1 0x2 PUSH1 0x0 SWAP1 SLOAD SWAP1 PUSH2 0x100 EXP SWAP1 DIV PUSH20 0xFFFFFFFFFFFFFFFFFFFFFFFFFFFFFFFFFFFFFFFF AND DUP3 PUSH1 0x3 ADD PUSH1 0x0 PUSH2 0x100 EXP DUP2 SLOAD DUP2 PUSH20 0xFFFFFFFFFFFFFFFFFFFFFFFFFFFFFFFFFFFFFFFF MUL NOT AND SWAP1 DUP4 PUSH20 0xFFFFFFFFFFFFFFFFFFFFFFFFFFFFFFFFFFFFFFFF AND MUL OR SWAP1 SSTORE POP PUSH1 0x40 MLOAD DUP1 PUSH1 0x60 ADD PUSH1 0x40 MSTORE DUP1 PUSH1 0x36 DUP2 MSTORE PUSH1 0x20 ADD PUSH2 0x1FD6 PUSH1 0x36 SWAP2 CODECOPY DUP3 PUSH1 0x4 ADD SWAP1 DUP1 MLOAD SWAP1 PUSH1 0x20 ADD SWAP1 PUSH2 0x7D3 SWAP3 SWAP2 SWAP1 PUSH2 0x1E97 JUMP JUMPDEST POP PUSH2 0x85C JUMP JUMPDEST PUSH1 0x40 MLOAD DUP1 PUSH1 0x60 ADD PUSH1 0x40 MSTORE DUP1 PUSH1 0x35 DUP2 MSTORE PUSH1 0x20 ADD PUSH2 0x2161 PUSH1 0x35 SWAP2 CODECOPY DUP3 PUSH1 0x4 ADD SWAP1 DUP1 MLOAD SWAP1 PUSH1 0x20 ADD SWAP1 PUSH2 0x809 SWAP3 SWAP2 SWAP1 PUSH2 0x1E97 JUMP JUMPDEST POP PUSH2 0x812 PUSH2 0x1365 JUMP JUMPDEST DUP1 PUSH20 0xFFFFFFFFFFFFFFFFFFFFFFFFFFFFFFFFFFFFFFFF AND PUSH2 0x8FC PUSH1 0x0 SLOAD SWAP1 DUP2 ISZERO MUL SWAP1 PUSH1 0x40 MLOAD PUSH1 0x0 PUSH1 0x40 MLOAD DUP1 DUP4 SUB DUP2 DUP6 DUP9 DUP9 CALL SWAP4 POP POP POP POP ISZERO DUP1 ISZERO PUSH2 0x85A JUMPI RETURNDATASIZE PUSH1 0x0 DUP1 RETURNDATACOPY RETURNDATASIZE PUSH1 0x0 REVERT JUMPDEST POP JUMPDEST POP POP POP JUMP JUMPDEST PUSH1 0x0 SLOAD DUP2 JUMP JUMPDEST PUSH1 0x2 PUSH1 0x16 SWAP1 SLOAD SWAP1 PUSH2 0x100 EXP SWAP1 DIV PUSH1 0xF8 SHL DUP2 JUMP JUMPDEST PUSH1 0x2 PUSH1 0x15 SWAP1 SLOAD SWAP1 PUSH2 0x100 EXP SWAP1 DIV PUSH1 0xF8 SHL DUP2 JUMP JUMPDEST PUSH1 0x2 PUSH1 0x0 SWAP1 SLOAD SWAP1 PUSH2 0x100 EXP SWAP1 DIV PUSH20 0xFFFFFFFFFFFFFFFFFFFFFFFFFFFFFFFFFFFFFFFF AND DUP2 JUMP JUMPDEST PUSH1 0x3 DUP2 DUP2 SLOAD DUP2 LT PUSH2 0x8C0 JUMPI INVALID JUMPDEST SWAP1 PUSH1 0x0 MSTORE PUSH1 0x20 PUSH1 0x0 KECCAK256 SWAP1 PUSH1 0x5 MUL ADD PUSH1 0x0 SWAP2 POP SWAP1 POP DUP1 PUSH1 0x0 ADD SLOAD SWAP1 DUP1 PUSH1 0x1 ADD SLOAD SWAP1 DUP1 PUSH1 0x2 ADD PUSH1 0x0 SWAP1 SLOAD SWAP1 PUSH2 0x100 EXP SWAP1 DIV PUSH20 0xFFFFFFFFFFFFFFFFFFFFFFFFFFFFFFFFFFFFFFFF AND SWAP1 DUP1 PUSH1 0x3 ADD PUSH1 0x0 SWAP1 SLOAD SWAP1 PUSH2 0x100 EXP SWAP1 DIV PUSH20 0xFFFFFFFFFFFFFFFFFFFFFFFFFFFFFFFFFFFFFFFF AND SWAP1 DUP1 PUSH1 0x4 ADD DUP1 SLOAD PUSH1 0x1 DUP2 PUSH1 0x1 AND ISZERO PUSH2 0x100 MUL SUB AND PUSH1 0x2 SWAP1 DIV DUP1 PUSH1 0x1F ADD PUSH1 0x20 DUP1 SWAP2 DIV MUL PUSH1 0x20 ADD PUSH1 0x40 MLOAD SWAP1 DUP2 ADD PUSH1 0x40 MSTORE DUP1 SWAP3 SWAP2 SWAP1 DUP2 DUP2 MSTORE PUSH1 0x20 ADD DUP3 DUP1 SLOAD PUSH1 0x1 DUP2 PUSH1 0x1 AND ISZERO PUSH2 0x100 MUL SUB AND PUSH1 0x2 SWAP1 DIV DUP1 ISZERO PUSH2 0x9C4 JUMPI DUP1 PUSH1 0x1F LT PUSH2 0x999 JUMPI PUSH2 0x100 DUP1 DUP4 SLOAD DIV MUL DUP4 MSTORE SWAP2 PUSH1 0x20 ADD SWAP2 PUSH2 0x9C4 JUMP JUMPDEST DUP3 ADD SWAP2 SWAP1 PUSH1 0x0 MSTORE PUSH1 0x20 PUSH1 0x0 KECCAK256 SWAP1 JUMPDEST DUP2 SLOAD DUP2 MSTORE SWAP1 PUSH1 0x1 ADD SWAP1 PUSH1 0x20 ADD DUP1 DUP4 GT PUSH2 0x9A7 JUMPI DUP3 SWAP1 SUB PUSH1 0x1F AND DUP3 ADD SWAP2 JUMPDEST POP POP POP POP POP SWAP1 POP DUP6 JUMP JUMPDEST PUSH1 0x0 PUSH20 0xFFFFFFFFFFFFFFFFFFFFFFFFFFFFFFFFFFFFFFFF AND PUSH1 0x1 PUSH1 0x0 SWAP1 SLOAD SWAP1 PUSH2 0x100 EXP SWAP1 DIV PUSH20 0xFFFFFFFFFFFFFFFFFFFFFFFFFFFFFFFFFFFFFFFF AND PUSH20 0xFFFFFFFFFFFFFFFFFFFFFFFFFFFFFFFFFFFFFFFF AND EQ PUSH2 0xA92 JUMPI PUSH1 0x40 MLOAD PUSH32 0x8C379A000000000000000000000000000000000000000000000000000000000 DUP2 MSTORE PUSH1 0x4 ADD DUP1 DUP1 PUSH1 0x20 ADD DUP3 DUP2 SUB DUP3 MSTORE PUSH1 0x1A DUP2 MSTORE PUSH1 0x20 ADD DUP1 PUSH32 0x47616D6520737461727465642C20747279206A6F696E47616D65000000000000 DUP2 MSTORE POP PUSH1 0x20 ADD SWAP2 POP POP PUSH1 0x40 MLOAD DUP1 SWAP2 SUB SWAP1 REVERT JUMPDEST PUSH1 0x0 SLOAD CALLVALUE EQ PUSH2 0xB09 JUMPI PUSH1 0x40 MLOAD PUSH32 0x8C379A000000000000000000000000000000000000000000000000000000000 DUP2 MSTORE PUSH1 0x4 ADD DUP1 DUP1 PUSH1 0x20 ADD DUP3 DUP2 SUB DUP3 MSTORE PUSH1 0x19 DUP2 MSTORE PUSH1 0x20 ADD DUP1 PUSH32 0x506C6163652072657175697265642062657420616D6F756E7400000000000000 DUP2 MSTORE POP PUSH1 0x20 ADD SWAP2 POP POP PUSH1 0x40 MLOAD DUP1 SWAP2 SUB SWAP1 REVERT JUMPDEST CALLER PUSH1 0x1 PUSH1 0x0 PUSH2 0x100 EXP DUP2 SLOAD DUP2 PUSH20 0xFFFFFFFFFFFFFFFFFFFFFFFFFFFFFFFFFFFFFFFF MUL NOT AND SWAP1 DUP4 PUSH20 0xFFFFFFFFFFFFFFFFFFFFFFFFFFFFFFFFFFFFFFFF AND MUL OR SWAP1 SSTORE POP DUP1 PUSH1 0x2 PUSH1 0x14 PUSH2 0x100 EXP DUP2 SLOAD DUP2 PUSH1 0xFF MUL NOT AND SWAP1 DUP4 PUSH1 0xF8 SHR MUL OR SWAP1 SSTORE POP PUSH1 0x3 PUSH1 0x40 MLOAD DUP1 PUSH1 0xA0 ADD PUSH1 0x40 MSTORE DUP1 TIMESTAMP DUP2 MSTORE PUSH1 0x20 ADD TIMESTAMP DUP2 MSTORE PUSH1 0x20 ADD PUSH1 0x1 PUSH1 0x0 SWAP1 SLOAD SWAP1 PUSH2 0x100 EXP SWAP1 DIV PUSH20 0xFFFFFFFFFFFFFFFFFFFFFFFFFFFFFFFFFFFFFFFF AND PUSH20 0xFFFFFFFFFFFFFFFFFFFFFFFFFFFFFFFFFFFFFFFF AND DUP2 MSTORE PUSH1 0x20 ADD PUSH1 0x0 PUSH20 0xFFFFFFFFFFFFFFFFFFFFFFFFFFFFFFFFFFFFFFFF AND DUP2 MSTORE PUSH1 0x20 ADD PUSH1 0x40 MLOAD DUP1 PUSH1 0x60 ADD PUSH1 0x40 MSTORE DUP1 PUSH1 0x2D DUP2 MSTORE PUSH1 0x20 ADD PUSH2 0x2134 PUSH1 0x2D SWAP2 CODECOPY DUP2 MSTORE POP SWAP1 DUP1 PUSH1 0x1 DUP2 SLOAD ADD DUP1 DUP3 SSTORE DUP1 SWAP2 POP POP PUSH1 0x1 SWAP1 SUB SWAP1 PUSH1 0x0 MSTORE PUSH1 0x20 PUSH1 0x0 KECCAK256 SWAP1 PUSH1 0x5 MUL ADD PUSH1 0x0 SWAP1 SWAP2 SWAP1 SWAP2 SWAP1 SWAP2 POP PUSH1 0x0 DUP3 ADD MLOAD DUP2 PUSH1 0x0 ADD SSTORE PUSH1 0x20 DUP3 ADD MLOAD DUP2 PUSH1 0x1 ADD SSTORE PUSH1 0x40 DUP3 ADD MLOAD DUP2 PUSH1 0x2 ADD PUSH1 0x0 PUSH2 0x100 EXP DUP2 SLOAD DUP2 PUSH20 0xFFFFFFFFFFFFFFFFFFFFFFFFFFFFFFFFFFFFFFFF MUL NOT AND SWAP1 DUP4 PUSH20 0xFFFFFFFFFFFFFFFFFFFFFFFFFFFFFFFFFFFFFFFF AND MUL OR SWAP1 SSTORE POP PUSH1 0x60 DUP3 ADD MLOAD DUP2 PUSH1 0x3 ADD PUSH1 0x0 PUSH2 0x100 EXP DUP2 SLOAD DUP2 PUSH20 0xFFFFFFFFFFFFFFFFFFFFFFFFFFFFFFFFFFFFFFFF MUL NOT AND SWAP1 DUP4 PUSH20 0xFFFFFFFFFFFFFFFFFFFFFFFFFFFFFFFFFFFFFFFF AND MUL OR SWAP1 SSTORE POP PUSH1 0x80 DUP3 ADD MLOAD DUP2 PUSH1 0x4 ADD SWAP1 DUP1 MLOAD SWAP1 PUSH1 0x20 ADD SWAP1 PUSH2 0xCDC SWAP3 SWAP2 SWAP1 PUSH2 0x1E97 JUMP JUMPDEST POP POP POP POP JUMP JUMPDEST PUSH1 0x0 PUSH1 0x3 PUSH2 0xCFF PUSH1 0x1 PUSH1 0x3 DUP1 SLOAD SWAP1 POP PUSH2 0x12E2 SWAP1 SWAP2 SWAP1 PUSH4 0xFFFFFFFF AND JUMP JUMPDEST DUP2 SLOAD DUP2 LT PUSH2 0xD09 JUMPI INVALID JUMPDEST SWAP1 PUSH1 0x0 MSTORE PUSH1 0x20 PUSH1 0x0 KECCAK256 SWAP1 PUSH1 0x5 MUL ADD SWAP1 POP PUSH1 0x0 DUP2 PUSH1 0x2 ADD PUSH1 0x0 SWAP1 SLOAD SWAP1 PUSH2 0x100 EXP SWAP1 DIV PUSH20 0xFFFFFFFFFFFFFFFFFFFFFFFFFFFFFFFFFFFFFFFF AND SWAP1 POP PUSH1 0x0 DUP3 PUSH1 0x3 ADD PUSH1 0x0 SWAP1 SLOAD SWAP1 PUSH2 0x100 EXP SWAP1 DIV PUSH20 0xFFFFFFFFFFFFFFFFFFFFFFFFFFFFFFFFFFFFFFFF AND SWAP1 POP PUSH1 0x0 PUSH20 0xFFFFFFFFFFFFFFFFFFFFFFFFFFFFFFFFFFFFFFFF AND PUSH1 0x1 PUSH1 0x0 SWAP1 SLOAD SWAP1 PUSH2 0x100 EXP SWAP1 DIV PUSH20 0xFFFFFFFFFFFFFFFFFFFFFFFFFFFFFFFFFFFFFFFF AND PUSH20 0xFFFFFFFFFFFFFFFFFFFFFFFFFFFFFFFFFFFFFFFF AND EQ ISZERO DUP1 ISZERO PUSH2 0xE18 JUMPI POP PUSH1 0x0 PUSH20 0xFFFFFFFFFFFFFFFFFFFFFFFFFFFFFFFFFFFFFFFF AND PUSH1 0x2 PUSH1 0x0 SWAP1 SLOAD SWAP1 PUSH2 0x100 EXP SWAP1 DIV PUSH20 0xFFFFFFFFFFFFFFFFFFFFFFFFFFFFFFFFFFFFFFFF AND PUSH20 0xFFFFFFFFFFFFFFFFFFFFFFFFFFFFFFFFFFFFFFFF AND EQ JUMPDEST ISZERO PUSH2 0xEC2 JUMPI PUSH3 0x2A300 PUSH2 0xE38 DUP5 PUSH1 0x0 ADD SLOAD TIMESTAMP PUSH2 0x12E2 SWAP1 SWAP2 SWAP1 PUSH4 0xFFFFFFFF AND JUMP JUMPDEST GT ISZERO PUSH2 0xEC1 JUMPI PUSH1 0x40 MLOAD DUP1 PUSH1 0x60 ADD PUSH1 0x40 MSTORE DUP1 PUSH1 0x35 DUP2 MSTORE PUSH1 0x20 ADD PUSH2 0x2161 PUSH1 0x35 SWAP2 CODECOPY DUP4 PUSH1 0x4 ADD SWAP1 DUP1 MLOAD SWAP1 PUSH1 0x20 ADD SWAP1 PUSH2 0xE6E SWAP3 SWAP2 SWAP1 PUSH2 0x1E97 JUMP JUMPDEST POP PUSH2 0xE77 PUSH2 0x1365 JUMP JUMPDEST DUP2 PUSH20 0xFFFFFFFFFFFFFFFFFFFFFFFFFFFFFFFFFFFFFFFF AND PUSH2 0x8FC PUSH1 0x0 SLOAD SWAP1 DUP2 ISZERO MUL SWAP1 PUSH1 0x40 MLOAD PUSH1 0x0 PUSH1 0x40 MLOAD DUP1 DUP4 SUB DUP2 DUP6 DUP9 DUP9 CALL SWAP4 POP POP POP POP ISZERO DUP1 ISZERO PUSH2 0xEBF JUMPI RETURNDATASIZE PUSH1 0x0 DUP1 RETURNDATACOPY RETURNDATASIZE PUSH1 0x0 REVERT JUMPDEST POP JUMPDEST JUMPDEST PUSH1 0x0 PUSH20 0xFFFFFFFFFFFFFFFFFFFFFFFFFFFFFFFFFFFFFFFF AND PUSH1 0x2 PUSH1 0x0 SWAP1 SLOAD SWAP1 PUSH2 0x100 EXP SWAP1 DIV PUSH20 0xFFFFFFFFFFFFFFFFFFFFFFFFFFFFFFFFFFFFFFFF AND PUSH20 0xFFFFFFFFFFFFFFFFFFFFFFFFFFFFFFFFFFFFFFFF AND EQ ISZERO DUP1 ISZERO PUSH2 0xF77 JUMPI POP PUSH1 0x0 PUSH1 0xF8 SHL PUSH31 0xFFFFFFFFFFFFFFFFFFFFFFFFFFFFFFFFFFFFFFFFFFFFFFFFFFFFFFFFFFFFFF NOT AND PUSH1 0x2 PUSH1 0x16 SWAP1 SLOAD SWAP1 PUSH2 0x100 EXP SWAP1 DIV PUSH1 0xF8 SHL PUSH31 0xFFFFFFFFFFFFFFFFFFFFFFFFFFFFFFFFFFFFFFFFFFFFFFFFFFFFFFFFFFFFFF NOT AND EQ JUMPDEST ISZERO PUSH2 0xFE1 JUMPI PUSH3 0x2A300 PUSH2 0xF97 DUP5 PUSH1 0x1 ADD SLOAD TIMESTAMP PUSH2 0x12E2 SWAP1 SWAP2 SWAP1 PUSH4 0xFFFFFFFF AND JUMP JUMPDEST GT ISZERO PUSH2 0xFE0 JUMPI PUSH1 0x40 MLOAD DUP1 PUSH1 0x60 ADD PUSH1 0x40 MSTORE DUP1 PUSH1 0x33 DUP2 MSTORE PUSH1 0x20 ADD PUSH2 0x2101 PUSH1 0x33 SWAP2 CODECOPY DUP4 PUSH1 0x4 ADD SWAP1 DUP1 MLOAD SWAP1 PUSH1 0x20 ADD SWAP1 PUSH2 0xFCD SWAP3 SWAP2 SWAP1 PUSH2 0x1E97 JUMP JUMPDEST POP PUSH2 0xFD6 PUSH2 0x1365 JUMP JUMPDEST PUSH2 0xFDF DUP2 PUSH2 0x1467 JUMP JUMPDEST JUMPDEST JUMPDEST POP POP POP JUMP JUMPDEST PUSH1 0x2 PUSH1 0x17 SWAP1 SLOAD SWAP1 PUSH2 0x100 EXP SWAP1 DIV PUSH1 0xF8 SHL DUP2 JUMP JUMPDEST PUSH1 0x2 PUSH1 0x14 SWAP1 SLOAD SWAP1 PUSH2 0x100 EXP SWAP1 DIV PUSH1 0xF8 SHL DUP2 JUMP JUMPDEST PUSH1 0x0 PUSH20 0xFFFFFFFFFFFFFFFFFFFFFFFFFFFFFFFFFFFFFFFF AND PUSH1 0x2 PUSH1 0x0 SWAP1 SLOAD SWAP1 PUSH2 0x100 EXP SWAP1 DIV PUSH20 0xFFFFFFFFFFFFFFFFFFFFFFFFFFFFFFFFFFFFFFFF AND PUSH20 0xFFFFFFFFFFFFFFFFFFFFFFFFFFFFFFFFFFFFFFFF AND EQ ISZERO PUSH2 0x10D1 JUMPI PUSH1 0x40 MLOAD PUSH32 0x8C379A000000000000000000000000000000000000000000000000000000000 DUP2 MSTORE PUSH1 0x4 ADD DUP1 DUP1 PUSH1 0x20 ADD DUP3 DUP2 SUB DUP3 MSTORE PUSH1 0x1B DUP2 MSTORE PUSH1 0x20 ADD DUP1 PUSH32 0x57616974696E6720666F7220706C617965723220746F206A6F696E0000000000 DUP2 MSTORE POP PUSH1 0x20 ADD SWAP2 POP POP PUSH1 0x40 MLOAD DUP1 SWAP2 SUB SWAP1 REVERT JUMPDEST PUSH1 0x1 PUSH1 0x0 SWAP1 SLOAD SWAP1 PUSH2 0x100 EXP SWAP1 DIV PUSH20 0xFFFFFFFFFFFFFFFFFFFFFFFFFFFFFFFFFFFFFFFF AND PUSH20 0xFFFFFFFFFFFFFFFFFFFFFFFFFFFFFFFFFFFFFFFF AND CALLER PUSH20 0xFFFFFFFFFFFFFFFFFFFFFFFFFFFFFFFFFFFFFFFF AND EQ PUSH2 0x1194 JUMPI PUSH1 0x40 MLOAD PUSH32 0x8C379A000000000000000000000000000000000000000000000000000000000 DUP2 MSTORE PUSH1 0x4 ADD DUP1 DUP1 PUSH1 0x20 ADD DUP3 DUP2 SUB DUP3 MSTORE PUSH1 0xC DUP2 MSTORE PUSH1 0x20 ADD DUP1 PUSH32 0x706C6179657231206F6E6C790000000000000000000000000000000000000000 DUP2 MSTORE POP PUSH1 0x20 ADD SWAP2 POP POP PUSH1 0x40 MLOAD DUP1 SWAP2 SUB SWAP1 REVERT JUMPDEST PUSH1 0x0 PUSH1 0x3 PUSH2 0x11B1 PUSH1 0x1 PUSH1 0x3 DUP1 SLOAD SWAP1 POP PUSH2 0x12E2 SWAP1 SWAP2 SWAP1 PUSH4 0xFFFFFFFF AND JUMP JUMPDEST DUP2 SLOAD DUP2 LT PUSH2 0x11BB JUMPI INVALID JUMPDEST SWAP1 PUSH1 0x0 MSTORE PUSH1 0x20 PUSH1 0x0 KECCAK256 SWAP1 PUSH1 0x5 MUL ADD SWAP1 POP PUSH1 0x0 DUP2 PUSH1 0x3 ADD PUSH1 0x0 SWAP1 SLOAD SWAP1 PUSH2 0x100 EXP SWAP1 DIV PUSH20 0xFFFFFFFFFFFFFFFFFFFFFFFFFFFFFFFFFFFFFFFF AND SWAP1 POP PUSH3 0x2A300 PUSH2 0x120F DUP4 PUSH1 0x1 ADD SLOAD TIMESTAMP PUSH2 0x12E2 SWAP1 SWAP2 SWAP1 PUSH4 0xFFFFFFFF AND JUMP JUMPDEST GT PUSH2 0x129A JUMPI PUSH1 0x2 PUSH1 0x14 SWAP1 SLOAD SWAP1 PUSH2 0x100 EXP SWAP1 POP POP PUSH1 0x1 PUSH1 0xFF AND PUSH1 0x1 PUSH1 0xFF AND EQ PUSH2 0x1236 JUMPI PUSH1 0x0 DUP1 REVERT JUMPDEST DUP3 PUSH1 0x2 PUSH1 0x15 PUSH2 0x100 EXP DUP2 SLOAD DUP2 PUSH1 0xFF MUL NOT AND SWAP1 DUP4 PUSH1 0xF8 SHR MUL OR SWAP1 SSTORE POP PUSH1 0x2 PUSH1 0x15 SWAP1 SLOAD SWAP1 PUSH2 0x100 EXP SWAP1 DIV PUSH1 0xF8 SHL PUSH1 0x2 PUSH1 0x14 SWAP1 SLOAD SWAP1 PUSH2 0x100 EXP SWAP1 DIV PUSH1 0xF8 SHL XOR PUSH1 0x2 PUSH1 0x16 PUSH2 0x100 EXP DUP2 SLOAD DUP2 PUSH1 0xFF MUL NOT AND SWAP1 DUP4 PUSH1 0xF8 SHR MUL OR SWAP1 SSTORE POP PUSH2 0x1294 PUSH2 0x14B1 JUMP JUMPDEST POP PUSH2 0x12DD JUMP JUMPDEST PUSH1 0x40 MLOAD DUP1 PUSH1 0x60 ADD PUSH1 0x40 MSTORE DUP1 PUSH1 0x33 DUP2 MSTORE PUSH1 0x20 ADD PUSH2 0x2101 PUSH1 0x33 SWAP2 CODECOPY DUP3 PUSH1 0x4 ADD SWAP1 DUP1 MLOAD SWAP1 PUSH1 0x20 ADD SWAP1 PUSH2 0x12CA SWAP3 SWAP2 SWAP1 PUSH2 0x1E97 JUMP JUMPDEST POP PUSH2 0x12D3 PUSH2 0x1365 JUMP JUMPDEST PUSH2 0x12DC DUP2 PUSH2 0x1467 JUMP JUMPDEST JUMPDEST POP POP POP JUMP JUMPDEST PUSH1 0x0 DUP3 DUP3 GT ISZERO PUSH2 0x135A JUMPI PUSH1 0x40 MLOAD PUSH32 0x8C379A000000000000000000000000000000000000000000000000000000000 DUP2 MSTORE PUSH1 0x4 ADD DUP1 DUP1 PUSH1 0x20 ADD DUP3 DUP2 SUB DUP3 MSTORE PUSH1 0x1E DUP2 MSTORE PUSH1 0x20 ADD DUP1 PUSH32 0x536166654D6174683A207375627472616374696F6E206F766572666C6F770000 DUP2 MSTORE POP PUSH1 0x20 ADD SWAP2 POP POP PUSH1 0x40 MLOAD DUP1 SWAP2 SUB SWAP1 REVERT JUMPDEST DUP2 DUP4 SUB SWAP1 POP SWAP3 SWAP2 POP POP JUMP JUMPDEST PUSH1 0x0 PUSH1 0x1 PUSH1 0x0 PUSH2 0x100 EXP DUP2 SLOAD DUP2 PUSH20 0xFFFFFFFFFFFFFFFFFFFFFFFFFFFFFFFFFFFFFFFF MUL NOT AND SWAP1 DUP4 PUSH20 0xFFFFFFFFFFFFFFFFFFFFFFFFFFFFFFFFFFFFFFFF AND MUL OR SWAP1 SSTORE POP PUSH1 0x0 PUSH1 0x2 PUSH1 0x0 PUSH2 0x100 EXP DUP2 SLOAD DUP2 PUSH20 0xFFFFFFFFFFFFFFFFFFFFFFFFFFFFFFFFFFFFFFFF MUL NOT AND SWAP1 DUP4 PUSH20 0xFFFFFFFFFFFFFFFFFFFFFFFFFFFFFFFFFFFFFFFF AND MUL OR SWAP1 SSTORE POP PUSH1 0x0 PUSH1 0xF8 SHL PUSH1 0x2 PUSH1 0x14 PUSH2 0x100 EXP DUP2 SLOAD DUP2 PUSH1 0xFF MUL NOT AND SWAP1 DUP4 PUSH1 0xF8 SHR MUL OR SWAP1 SSTORE POP PUSH1 0x0 PUSH1 0xF8 SHL PUSH1 0x2 PUSH1 0x15 PUSH2 0x100 EXP DUP2 SLOAD DUP2 PUSH1 0xFF MUL NOT AND SWAP1 DUP4 PUSH1 0xF8 SHR MUL OR SWAP1 SSTORE POP PUSH1 0x0 PUSH1 0xF8 SHL PUSH1 0x2 PUSH1 0x16 PUSH2 0x100 EXP DUP2 SLOAD DUP2 PUSH1 0xFF MUL NOT AND SWAP1 DUP4 PUSH1 0xF8 SHR MUL OR SWAP1 SSTORE POP PUSH1 0x0 PUSH1 0xF8 SHL PUSH1 0x2 PUSH1 0x17 PUSH2 0x100 EXP DUP2 SLOAD DUP2 PUSH1 0xFF MUL NOT AND SWAP1 DUP4 PUSH1 0xF8 SHR MUL OR SWAP1 SSTORE POP JUMP JUMPDEST DUP1 PUSH20 0xFFFFFFFFFFFFFFFFFFFFFFFFFFFFFFFFFFFFFFFF AND PUSH2 0x8FC SELFBALANCE SWAP1 DUP2 ISZERO MUL SWAP1 PUSH1 0x40 MLOAD PUSH1 0x0 PUSH1 0x40 MLOAD DUP1 DUP4 SUB DUP2 DUP6 DUP9 DUP9 CALL SWAP4 POP POP POP POP ISZERO DUP1 ISZERO PUSH2 0x14AD JUMPI RETURNDATASIZE PUSH1 0x0 DUP1 RETURNDATACOPY RETURNDATASIZE PUSH1 0x0 REVERT JUMPDEST POP POP JUMP JUMPDEST PUSH1 0x60 PUSH1 0x0 PUSH1 0xF8 SHL PUSH31 0xFFFFFFFFFFFFFFFFFFFFFFFFFFFFFFFFFFFFFFFFFFFFFFFFFFFFFFFFFFFFFF NOT AND PUSH1 0x2 PUSH1 0x16 SWAP1 SLOAD SWAP1 PUSH2 0x100 EXP SWAP1 DIV PUSH1 0xF8 SHL PUSH31 0xFFFFFFFFFFFFFFFFFFFFFFFFFFFFFFFFFFFFFFFFFFFFFFFFFFFFFFFFFFFFFF NOT AND EQ ISZERO DUP1 ISZERO PUSH2 0x1571 JUMPI POP PUSH1 0x0 PUSH1 0xF8 SHL PUSH31 0xFFFFFFFFFFFFFFFFFFFFFFFFFFFFFFFFFFFFFFFFFFFFFFFFFFFFFFFFFFFFFF NOT AND PUSH1 0x2 PUSH1 0x17 SWAP1 SLOAD SWAP1 PUSH2 0x100 EXP SWAP1 DIV PUSH1 0xF8 SHL PUSH31 0xFFFFFFFFFFFFFFFFFFFFFFFFFFFFFFFFFFFFFFFFFFFFFFFFFFFFFFFFFFFFFF NOT AND EQ ISZERO JUMPDEST PUSH2 0x15C6 JUMPI PUSH1 0x40 MLOAD PUSH32 0x8C379A000000000000000000000000000000000000000000000000000000000 DUP2 MSTORE PUSH1 0x4 ADD DUP1 DUP1 PUSH1 0x20 ADD DUP3 DUP2 SUB DUP3 MSTORE PUSH1 0x24 DUP2 MSTORE PUSH1 0x20 ADD DUP1 PUSH2 0x2075 PUSH1 0x24 SWAP2 CODECOPY PUSH1 0x40 ADD SWAP2 POP POP PUSH1 0x40 MLOAD DUP1 SWAP2 SUB SWAP1 REVERT JUMPDEST PUSH1 0x0 PUSH1 0x3 PUSH2 0x15E3 PUSH1 0x1 PUSH1 0x3 DUP1 SLOAD SWAP1 POP PUSH2 0x12E2 SWAP1 SWAP2 SWAP1 PUSH4 0xFFFFFFFF AND JUMP JUMPDEST DUP2 SLOAD DUP2 LT PUSH2 0x15ED JUMPI INVALID JUMPDEST SWAP1 PUSH1 0x0 MSTORE PUSH1 0x20 PUSH1 0x0 KECCAK256 SWAP1 PUSH1 0x5 MUL ADD SWAP1 POP PUSH1 0x0 DUP2 PUSH1 0x2 ADD PUSH1 0x0 SWAP1 SLOAD SWAP1 PUSH2 0x100 EXP SWAP1 DIV PUSH20 0xFFFFFFFFFFFFFFFFFFFFFFFFFFFFFFFFFFFFFFFF AND SWAP1 POP PUSH1 0x0 DUP3 PUSH1 0x3 ADD PUSH1 0x0 SWAP1 SLOAD SWAP1 PUSH2 0x100 EXP SWAP1 DIV PUSH20 0xFFFFFFFFFFFFFFFFFFFFFFFFFFFFFFFFFFFFFFFF AND SWAP1 POP PUSH1 0x1 PUSH1 0xF8 SHL PUSH31 0xFFFFFFFFFFFFFFFFFFFFFFFFFFFFFFFFFFFFFFFFFFFFFFFFFFFFFFFFFFFFFF NOT AND PUSH1 0x2 PUSH1 0x16 SWAP1 SLOAD SWAP1 PUSH2 0x100 EXP SWAP1 DIV PUSH1 0xF8 SHL PUSH31 0xFFFFFFFFFFFFFFFFFFFFFFFFFFFFFFFFFFFFFFFFFFFFFFFFFFFFFFFFFFFFFF NOT AND EQ ISZERO PUSH2 0x18A4 JUMPI PUSH1 0x1 PUSH1 0xF8 SHL PUSH31 0xFFFFFFFFFFFFFFFFFFFFFFFFFFFFFFFFFFFFFFFFFFFFFFFFFFFFFFFFFFFFFF NOT AND PUSH1 0x2 PUSH1 0x17 SWAP1 SLOAD SWAP1 PUSH2 0x100 EXP SWAP1 DIV PUSH1 0xF8 SHL PUSH31 0xFFFFFFFFFFFFFFFFFFFFFFFFFFFFFFFFFFFFFFFFFFFFFFFFFFFFFFFFFFFFFF NOT AND EQ ISZERO PUSH2 0x1755 JUMPI PUSH1 0x40 MLOAD DUP1 PUSH1 0x60 ADD PUSH1 0x40 MSTORE DUP1 PUSH1 0x2B DUP2 MSTORE PUSH1 0x20 ADD PUSH2 0x1F6E PUSH1 0x2B SWAP2 CODECOPY DUP4 PUSH1 0x4 ADD SWAP1 DUP1 MLOAD SWAP1 PUSH1 0x20 ADD SWAP1 PUSH2 0x173D SWAP3 SWAP2 SWAP1 PUSH2 0x1E97 JUMP JUMPDEST POP PUSH2 0x1746 PUSH2 0x1365 JUMP JUMPDEST PUSH2 0x1750 DUP3 DUP3 PUSH2 0x1D52 JUMP JUMPDEST PUSH2 0x189F JUMP JUMPDEST PUSH1 0x2 PUSH1 0xF8 SHL PUSH31 0xFFFFFFFFFFFFFFFFFFFFFFFFFFFFFFFFFFFFFFFFFFFFFFFFFFFFFFFFFFFFFF NOT AND PUSH1 0x2 PUSH1 0x17 SWAP1 SLOAD SWAP1 PUSH2 0x100 EXP SWAP1 DIV PUSH1 0xF8 SHL PUSH31 0xFFFFFFFFFFFFFFFFFFFFFFFFFFFFFFFFFFFFFFFFFFFFFFFFFFFFFFFFFFFFFF NOT AND EQ ISZERO PUSH2 0x17FB JUMPI PUSH1 0x40 MLOAD DUP1 PUSH1 0x60 ADD PUSH1 0x40 MSTORE DUP1 PUSH1 0x39 DUP2 MSTORE PUSH1 0x20 ADD PUSH2 0x1F35 PUSH1 0x39 SWAP2 CODECOPY DUP4 PUSH1 0x4 ADD SWAP1 DUP1 MLOAD SWAP1 PUSH1 0x20 ADD SWAP1 PUSH2 0x17E4 SWAP3 SWAP2 SWAP1 PUSH2 0x1E97 JUMP JUMPDEST POP PUSH2 0x17ED PUSH2 0x1365 JUMP JUMPDEST PUSH2 0x17F6 DUP2 PUSH2 0x1467 JUMP JUMPDEST PUSH2 0x189E JUMP JUMPDEST PUSH1 0x3 PUSH1 0xF8 SHL PUSH31 0xFFFFFFFFFFFFFFFFFFFFFFFFFFFFFFFFFFFFFFFFFFFFFFFFFFFFFFFFFFFFFF NOT AND PUSH1 0x2 PUSH1 0x17 SWAP1 SLOAD SWAP1 PUSH2 0x100 EXP SWAP1 DIV PUSH1 0xF8 SHL PUSH31 0xFFFFFFFFFFFFFFFFFFFFFFFFFFFFFFFFFFFFFFFFFFFFFFFFFFFFFFFFFFFFFF NOT AND EQ ISZERO PUSH2 0x189D JUMPI PUSH1 0x40 MLOAD DUP1 PUSH1 0x60 ADD PUSH1 0x40 MSTORE DUP1 PUSH1 0x3C DUP2 MSTORE PUSH1 0x20 ADD PUSH2 0x2196 PUSH1 0x3C SWAP2 CODECOPY DUP4 PUSH1 0x4 ADD SWAP1 DUP1 MLOAD SWAP1 PUSH1 0x20 ADD SWAP1 PUSH2 0x188A SWAP3 SWAP2 SWAP1 PUSH2 0x1E97 JUMP JUMPDEST POP PUSH2 0x1893 PUSH2 0x1365 JUMP JUMPDEST PUSH2 0x189C DUP3 PUSH2 0x1467 JUMP JUMPDEST JUMPDEST JUMPDEST JUMPDEST PUSH2 0x1D4C JUMP JUMPDEST PUSH1 0x2 PUSH1 0xF8 SHL PUSH31 0xFFFFFFFFFFFFFFFFFFFFFFFFFFFFFFFFFFFFFFFFFFFFFFFFFFFFFFFFFFFFFF NOT AND PUSH1 0x2 PUSH1 0x16 SWAP1 SLOAD SWAP1 PUSH2 0x100 EXP SWAP1 DIV PUSH1 0xF8 SHL PUSH31 0xFFFFFFFFFFFFFFFFFFFFFFFFFFFFFFFFFFFFFFFFFFFFFFFFFFFFFFFFFFFFFF NOT AND EQ ISZERO PUSH2 0x1AF9 JUMPI PUSH1 0x1 PUSH1 0xF8 SHL PUSH31 0xFFFFFFFFFFFFFFFFFFFFFFFFFFFFFFFFFFFFFFFFFFFFFFFFFFFFFFFFFFFFFF NOT AND PUSH1 0x2 PUSH1 0x17 SWAP1 SLOAD SWAP1 PUSH2 0x100 EXP SWAP1 DIV PUSH1 0xF8 SHL PUSH31 0xFFFFFFFFFFFFFFFFFFFFFFFFFFFFFFFFFFFFFFFFFFFFFFFFFFFFFFFFFFFFFF NOT AND EQ ISZERO PUSH2 0x19A9 JUMPI PUSH1 0x40 MLOAD DUP1 PUSH1 0x60 ADD PUSH1 0x40 MSTORE DUP1 PUSH1 0x39 DUP2 MSTORE PUSH1 0x20 ADD PUSH2 0x20C8 PUSH1 0x39 SWAP2 CODECOPY DUP4 PUSH1 0x4 ADD SWAP1 DUP1 MLOAD SWAP1 PUSH1 0x20 ADD SWAP1 PUSH2 0x1992 SWAP3 SWAP2 SWAP1 PUSH2 0x1E97 JUMP JUMPDEST POP PUSH2 0x199B PUSH2 0x1365 JUMP JUMPDEST PUSH2 0x19A4 DUP3 PUSH2 0x1467 JUMP JUMPDEST PUSH2 0x1AF4 JUMP JUMPDEST PUSH1 0x2 PUSH1 0xF8 SHL PUSH31 0xFFFFFFFFFFFFFFFFFFFFFFFFFFFFFFFFFFFFFFFFFFFFFFFFFFFFFFFFFFFFFF NOT AND PUSH1 0x2 PUSH1 0x17 SWAP1 SLOAD SWAP1 PUSH2 0x100 EXP SWAP1 DIV PUSH1 0xF8 SHL PUSH31 0xFFFFFFFFFFFFFFFFFFFFFFFFFFFFFFFFFFFFFFFFFFFFFFFFFFFFFFFFFFFFFF NOT AND EQ ISZERO PUSH2 0x1A50 JUMPI PUSH1 0x40 MLOAD DUP1 PUSH1 0x60 ADD PUSH1 0x40 MSTORE DUP1 PUSH1 0x2C DUP2 MSTORE PUSH1 0x20 ADD PUSH2 0x200C PUSH1 0x2C SWAP2 CODECOPY DUP4 PUSH1 0x4 ADD SWAP1 DUP1 MLOAD SWAP1 PUSH1 0x20 ADD SWAP1 PUSH2 0x1A38 SWAP3 SWAP2 SWAP1 PUSH2 0x1E97 JUMP JUMPDEST POP PUSH2 0x1A41 PUSH2 0x1365 JUMP JUMPDEST PUSH2 0x1A4B DUP3 DUP3 PUSH2 0x1D52 JUMP JUMPDEST PUSH2 0x1AF3 JUMP JUMPDEST PUSH1 0x3 PUSH1 0xF8 SHL PUSH31 0xFFFFFFFFFFFFFFFFFFFFFFFFFFFFFFFFFFFFFFFFFFFFFFFFFFFFFFFFFFFFFF NOT AND PUSH1 0x2 PUSH1 0x17 SWAP1 SLOAD SWAP1 PUSH2 0x100 EXP SWAP1 DIV PUSH1 0xF8 SHL PUSH31 0xFFFFFFFFFFFFFFFFFFFFFFFFFFFFFFFFFFFFFFFFFFFFFFFFFFFFFFFFFFFFFF NOT AND EQ ISZERO PUSH2 0x1AF2 JUMPI PUSH1 0x40 MLOAD DUP1 PUSH1 0x60 ADD PUSH1 0x40 MSTORE DUP1 PUSH1 0x3D DUP2 MSTORE PUSH1 0x20 ADD PUSH2 0x1F99 PUSH1 0x3D SWAP2 CODECOPY DUP4 PUSH1 0x4 ADD SWAP1 DUP1 MLOAD SWAP1 PUSH1 0x20 ADD SWAP1 PUSH2 0x1ADF SWAP3 SWAP2 SWAP1 PUSH2 0x1E97 JUMP JUMPDEST POP PUSH2 0x1AE8 PUSH2 0x1365 JUMP JUMPDEST PUSH2 0x1AF1 DUP2 PUSH2 0x1467 JUMP JUMPDEST JUMPDEST JUMPDEST JUMPDEST PUSH2 0x1D4B JUMP JUMPDEST PUSH1 0x3 PUSH1 0xF8 SHL PUSH31 0xFFFFFFFFFFFFFFFFFFFFFFFFFFFFFFFFFFFFFFFFFFFFFFFFFFFFFFFFFFFFFF NOT AND PUSH1 0x2 PUSH1 0x16 SWAP1 SLOAD SWAP1 PUSH2 0x100 EXP SWAP1 DIV PUSH1 0xF8 SHL PUSH31 0xFFFFFFFFFFFFFFFFFFFFFFFFFFFFFFFFFFFFFFFFFFFFFFFFFFFFFFFFFFFFFF NOT AND EQ ISZERO PUSH2 0x1D4A JUMPI PUSH1 0x1 PUSH1 0xF8 SHL PUSH31 0xFFFFFFFFFFFFFFFFFFFFFFFFFFFFFFFFFFFFFFFFFFFFFFFFFFFFFFFFFFFFFF NOT AND PUSH1 0x2 PUSH1 0x17 SWAP1 SLOAD SWAP1 PUSH2 0x100 EXP SWAP1 DIV PUSH1 0xF8 SHL PUSH31 0xFFFFFFFFFFFFFFFFFFFFFFFFFFFFFFFFFFFFFFFFFFFFFFFFFFFFFFFFFFFFFF NOT AND EQ ISZERO PUSH2 0x1BFE JUMPI PUSH1 0x40 MLOAD DUP1 PUSH1 0x60 ADD PUSH1 0x40 MSTORE DUP1 PUSH1 0x3C DUP2 MSTORE PUSH1 0x20 ADD PUSH2 0x21D2 PUSH1 0x3C SWAP2 CODECOPY DUP4 PUSH1 0x4 ADD SWAP1 DUP1 MLOAD SWAP1 PUSH1 0x20 ADD SWAP1 PUSH2 0x1BE7 SWAP3 SWAP2 SWAP1 PUSH2 0x1E97 JUMP JUMPDEST POP PUSH2 0x1BF0 PUSH2 0x1365 JUMP JUMPDEST PUSH2 0x1BF9 DUP2 PUSH2 0x1467 JUMP JUMPDEST PUSH2 0x1D49 JUMP JUMPDEST PUSH1 0x2 PUSH1 0xF8 SHL PUSH31 0xFFFFFFFFFFFFFFFFFFFFFFFFFFFFFFFFFFFFFFFFFFFFFFFFFFFFFFFFFFFFFF NOT AND PUSH1 0x2 PUSH1 0x17 SWAP1 SLOAD SWAP1 PUSH2 0x100 EXP SWAP1 DIV PUSH1 0xF8 SHL PUSH31 0xFFFFFFFFFFFFFFFFFFFFFFFFFFFFFFFFFFFFFFFFFFFFFFFFFFFFFFFFFFFFFF NOT AND EQ ISZERO PUSH2 0x1CA4 JUMPI PUSH1 0x40 MLOAD DUP1 PUSH1 0x60 ADD PUSH1 0x40 MSTORE DUP1 PUSH1 0x3D DUP2 MSTORE PUSH1 0x20 ADD PUSH2 0x2038 PUSH1 0x3D SWAP2 CODECOPY DUP4 PUSH1 0x4 ADD SWAP1 DUP1 MLOAD SWAP1 PUSH1 0x20 ADD SWAP1 PUSH2 0x1C8D SWAP3 SWAP2 SWAP1 PUSH2 0x1E97 JUMP JUMPDEST POP PUSH2 0x1C96 PUSH2 0x1365 JUMP JUMPDEST PUSH2 0x1C9F DUP3 PUSH2 0x1467 JUMP JUMPDEST PUSH2 0x1D48 JUMP JUMPDEST PUSH1 0x3 PUSH1 0xF8 SHL PUSH31 0xFFFFFFFFFFFFFFFFFFFFFFFFFFFFFFFFFFFFFFFFFFFFFFFFFFFFFFFFFFFFFF NOT AND PUSH1 0x2 PUSH1 0x17 SWAP1 SLOAD SWAP1 PUSH2 0x100 EXP SWAP1 DIV PUSH1 0xF8 SHL PUSH31 0xFFFFFFFFFFFFFFFFFFFFFFFFFFFFFFFFFFFFFFFFFFFFFFFFFFFFFFFFFFFFFF NOT AND EQ ISZERO PUSH2 0x1D47 JUMPI PUSH1 0x40 MLOAD DUP1 PUSH1 0x60 ADD PUSH1 0x40 MSTORE DUP1 PUSH1 0x2F DUP2 MSTORE PUSH1 0x20 ADD PUSH2 0x2099 PUSH1 0x2F SWAP2 CODECOPY DUP4 PUSH1 0x4 ADD SWAP1 DUP1 MLOAD SWAP1 PUSH1 0x20 ADD SWAP1 PUSH2 0x1D33 SWAP3 SWAP2 SWAP1 PUSH2 0x1E97 JUMP JUMPDEST POP PUSH2 0x1D3C PUSH2 0x1365 JUMP JUMPDEST PUSH2 0x1D46 DUP3 DUP3 PUSH2 0x1D52 JUMP JUMPDEST JUMPDEST JUMPDEST JUMPDEST JUMPDEST JUMPDEST JUMPDEST POP POP POP SWAP1 JUMP JUMPDEST DUP2 PUSH20 0xFFFFFFFFFFFFFFFFFFFFFFFFFFFFFFFFFFFFFFFF AND PUSH2 0x8FC PUSH2 0x1D82 PUSH1 0x2 PUSH1 0x0 SLOAD PUSH2 0x1E0E SWAP1 SWAP2 SWAP1 PUSH4 0xFFFFFFFF AND JUMP JUMPDEST SWAP1 DUP2 ISZERO MUL SWAP1 PUSH1 0x40 MLOAD PUSH1 0x0 PUSH1 0x40 MLOAD DUP1 DUP4 SUB DUP2 DUP6 DUP9 DUP9 CALL SWAP4 POP POP POP POP ISZERO DUP1 ISZERO PUSH2 0x1DAD JUMPI RETURNDATASIZE PUSH1 0x0 DUP1 RETURNDATACOPY RETURNDATASIZE PUSH1 0x0 REVERT JUMPDEST POP DUP1 PUSH20 0xFFFFFFFFFFFFFFFFFFFFFFFFFFFFFFFFFFFFFFFF AND PUSH2 0x8FC PUSH2 0x1DDE PUSH1 0x2 PUSH1 0x0 SLOAD PUSH2 0x1E0E SWAP1 SWAP2 SWAP1 PUSH4 0xFFFFFFFF AND JUMP JUMPDEST SWAP1 DUP2 ISZERO MUL SWAP1 PUSH1 0x40 MLOAD PUSH1 0x0 PUSH1 0x40 MLOAD DUP1 DUP4 SUB DUP2 DUP6 DUP9 DUP9 CALL SWAP4 POP POP POP POP ISZERO DUP1 ISZERO PUSH2 0x1E09 JUMPI RETURNDATASIZE PUSH1 0x0 DUP1 RETURNDATACOPY RETURNDATASIZE PUSH1 0x0 REVERT JUMPDEST POP POP POP JUMP JUMPDEST PUSH1 0x0 DUP1 DUP3 GT PUSH2 0x1E85 JUMPI PUSH1 0x40 MLOAD PUSH32 0x8C379A000000000000000000000000000000000000000000000000000000000 DUP2 MSTORE PUSH1 0x4 ADD DUP1 DUP1 PUSH1 0x20 ADD DUP3 DUP2 SUB DUP3 MSTORE PUSH1 0x1A DUP2 MSTORE PUSH1 0x20 ADD DUP1 PUSH32 0x536166654D6174683A206469766973696F6E206279207A65726F000000000000 DUP2 MSTORE POP PUSH1 0x20 ADD SWAP2 POP POP PUSH1 0x40 MLOAD DUP1 SWAP2 SUB SWAP1 REVERT JUMPDEST DUP2 DUP4 DUP2 PUSH2 0x1E8E JUMPI INVALID JUMPDEST DIV SWAP1 POP SWAP3 SWAP2 POP POP JUMP JUMPDEST DUP3 DUP1 SLOAD PUSH1 0x1 DUP2 PUSH1 0x1 AND ISZERO PUSH2 0x100 MUL SUB AND PUSH1 0x2 SWAP1 DIV SWAP1 PUSH1 0x0 MSTORE PUSH1 0x20 PUSH1 0x0 KECCAK256 SWAP1 PUSH1 0x1F ADD PUSH1 0x20 SWAP1 DIV DUP2 ADD SWAP3 DUP3 PUSH1 0x1F LT PUSH2 0x1ED8 JUMPI DUP1 MLOAD PUSH1 0xFF NOT AND DUP4 DUP1 ADD OR DUP6 SSTORE PUSH2 0x1F06 JUMP JUMPDEST DUP3 DUP1 ADD PUSH1 0x1 ADD DUP6 SSTORE DUP3 ISZERO PUSH2 0x1F06 JUMPI SWAP2 DUP3 ADD JUMPDEST DUP3 DUP2 GT ISZERO PUSH2 0x1F05 JUMPI DUP3 MLOAD DUP3 SSTORE SWAP2 PUSH1 0x20 ADD SWAP2 SWAP1 PUSH1 0x1 ADD SWAP1 PUSH2 0x1EEA JUMP JUMPDEST JUMPDEST POP SWAP1 POP PUSH2 0x1F13 SWAP2 SWAP1 PUSH2 0x1F17 JUMP JUMPDEST POP SWAP1 JUMP JUMPDEST JUMPDEST DUP1 DUP3 GT ISZERO PUSH2 0x1F30 JUMPI PUSH1 0x0 DUP2 PUSH1 0x0 SWAP1 SSTORE POP PUSH1 0x1 ADD PUSH2 0x1F18 JUMP JUMPDEST POP SWAP1 JUMP INVALID POP PUSH13 0x6179657220312063686F736520 PUSH19 0x6F636B3B20706C6179657220322063686F7365 KECCAK256 PUSH17 0x617065722E20506C617965722032207769 PUSH15 0x7321426F746820706C617965727320 PUSH4 0x686F7365 KECCAK256 PUSH19 0x6F636B2E20447261773B206E6F206F6E652077 PUSH10 0x6E732E506C6179657220 BALANCE KECCAK256 PUSH4 0x686F7365 KECCAK256 PUSH17 0x617065723B20706C617965722032206368 PUSH16 0x73652073636973736F72732E20506C61 PUSH26 0x657220322077696E732147616D6520696E2070726F6772657373 0x2E KECCAK256 JUMPI PUSH2 0x6974 PUSH10 0x6E6720666F7220706C61 PUSH26 0x65723120746F2072657665616C2063686F696365426F74682070 PUSH13 0x61796572732063686F73652070 PUSH2 0x7065 PUSH19 0x2E20447261773B206E6F206F6E652077696E73 0x2E POP PUSH13 0x6179657220312063686F736520 PUSH20 0x636973736F72733B20706C617965722032206368 PUSH16 0x73652070617065722E20506C61796572 KECCAK256 BALANCE KECCAK256 PUSH24 0x696E732172657665616C2043686F69636520666F7220626F PUSH21 0x6820706C6179657273206669727374426F74682070 PUSH13 0x61796572732063686F73652073 PUSH4 0x6973736F PUSH19 0x732E20447261773B206E6F206F6E652077696E PUSH20 0x2E506C6179657220312063686F73652070617065 PUSH19 0x3B20706C6179657220322063686F736520726F PUSH4 0x6B2E2050 PUSH13 0x6179657220312077696E732147 PUSH2 0x6D65 KECCAK256 PUSH21 0x696D6564206F7574206166746572206C6F636B2E20 POP PUSH13 0x61796572322077696E73206279 KECCAK256 PUSH5 0x656661756C PUSH21 0x2E47616D6520696E2070726F67726573732E205761 PUSH10 0x74696E6720666F722070 PUSH13 0x617965723220746F206A6F696E SELFBALANCE PUSH2 0x6D65 KECCAK256 PUSH21 0x696D6564206F75742E204E6F20706C617965723220 PUSH11 0x6F696E65642E2052656675 PUSH15 0x6420746F20706C61796572312E506C PUSH2 0x7965 PUSH19 0x20312063686F736520726F636B3B20706C6179 PUSH6 0x722032206368 PUSH16 0x73652073636973736F72732E20506C61 PUSH26 0x657220312077696E7321506C6179657220312063686F73652073 PUSH4 0x6973736F PUSH19 0x733B20706C6179657220322063686F73652072 PUSH16 0x636B2E20506C6179657220322077696E PUSH20 0x21A2646970667358221220433629A466AC682288 0xEA CALL ORIGIN JUMPDEST JUMPDEST 0x48 AND INVALID 0xC0 PUSH22 0x5F627F908384397B500BAEAC6564736F6C634300060C STOP CALLER "
				},
				"gasEstimates": {
					"creation": {
						"codeDepositCost": "1754200",
						"executionCost": "infinite",
						"totalCost": "infinite"
					},
					"external": {
						"_betAmount()": "1050",
						"_p1()": "1048",
						"_p1DecChoice()": "1167",
						"_p1EncChoice()": "1188",
						"_p1Key()": "1189",
						"_p2()": "1158",
						"_p2DecChoice()": "1166",
						"gameInfo(uint256)": "infinite",
						"joinGame(bytes1)": "infinite",
						"revealChoice(bytes1)": "infinite",
						"startGame(bytes1)": "infinite",
						"updateCurrentGame()": "infinite"
					},
					"internal": {
						"concludeGame()": "infinite",
						"draw(address payable,address payable)": "infinite",
						"payWinner(address payable)": "infinite",
						"resetGame()": "125435"
					}
				},
				"methodIdentifiers": {
					"_betAmount()": "477560cb",
					"_p1()": "031507e5",
					"_p1DecChoice()": "4914674a",
					"_p1EncChoice()": "cafc79b8",
					"_p1Key()": "51f94a90",
					"_p2()": "93327ee1",
					"_p2DecChoice()": "c2ff5560",
					"gameInfo(uint256)": "a6f81668",
					"joinGame(bytes1)": "17a78540",
					"revealChoice(bytes1)": "e2f0eaf8",
					"startGame(bytes1)": "b053055b",
					"updateCurrentGame()": "b5031b39"
				}
			},
			"storageLayout": {
				"storage": [
					{
						"astId": 7,
						"contract": "RpsGame.sol:RpsGame",
						"label": "_betAmount",
						"offset": 0,
						"slot": "0",
						"type": "t_uint256"
					},
					{
						"astId": 9,
						"contract": "RpsGame.sol:RpsGame",
						"label": "_p1",
						"offset": 0,
						"slot": "1",
						"type": "t_address_payable"
					},
					{
						"astId": 11,
						"contract": "RpsGame.sol:RpsGame",
						"label": "_p2",
						"offset": 0,
						"slot": "2",
						"type": "t_address_payable"
					},
					{
						"astId": 13,
						"contract": "RpsGame.sol:RpsGame",
						"label": "_p1EncChoice",
						"offset": 20,
						"slot": "2",
						"type": "t_bytes1"
					},
					{
						"astId": 15,
						"contract": "RpsGame.sol:RpsGame",
						"label": "_p1Key",
						"offset": 21,
						"slot": "2",
						"type": "t_bytes1"
					},
					{
						"astId": 17,
						"contract": "RpsGame.sol:RpsGame",
						"label": "_p1DecChoice",
						"offset": 22,
						"slot": "2",
						"type": "t_bytes1"
					},
					{
						"astId": 19,
						"contract": "RpsGame.sol:RpsGame",
						"label": "_p2DecChoice",
						"offset": 23,
						"slot": "2",
						"type": "t_bytes1"
					},
					{
						"astId": 33,
						"contract": "RpsGame.sol:RpsGame",
						"label": "gameInfo",
						"offset": 0,
						"slot": "3",
						"type": "t_array(t_struct(GameInfo)30_storage)dyn_storage"
					}
				],
				"types": {
					"t_address_payable": {
						"encoding": "inplace",
						"label": "address payable",
						"numberOfBytes": "20"
					},
					"t_array(t_struct(GameInfo)30_storage)dyn_storage": {
						"base": "t_struct(GameInfo)30_storage",
						"encoding": "dynamic_array",
						"label": "struct RpsGame.GameInfo[]",
						"numberOfBytes": "32"
					},
					"t_bytes1": {
						"encoding": "inplace",
						"label": "bytes1",
						"numberOfBytes": "1"
					},
					"t_string_storage": {
						"encoding": "bytes",
						"label": "string",
						"numberOfBytes": "32"
					},
					"t_struct(GameInfo)30_storage": {
						"encoding": "inplace",
						"label": "struct RpsGame.GameInfo",
						"members": [
							{
								"astId": 21,
								"contract": "RpsGame.sol:RpsGame",
								"label": "gameStartTime",
								"offset": 0,
								"slot": "0",
								"type": "t_uint256"
							},
							{
								"astId": 23,
								"contract": "RpsGame.sol:RpsGame",
								"label": "gameLockTime",
								"offset": 0,
								"slot": "1",
								"type": "t_uint256"
							},
							{
								"astId": 25,
								"contract": "RpsGame.sol:RpsGame",
								"label": "player1",
								"offset": 0,
								"slot": "2",
								"type": "t_address_payable"
							},
							{
								"astId": 27,
								"contract": "RpsGame.sol:RpsGame",
								"label": "player2",
								"offset": 0,
								"slot": "3",
								"type": "t_address_payable"
							},
							{
								"astId": 29,
								"contract": "RpsGame.sol:RpsGame",
								"label": "status",
								"offset": 0,
								"slot": "4",
								"type": "t_string_storage"
							}
						],
						"numberOfBytes": "160"
					},
					"t_uint256": {
						"encoding": "inplace",
						"label": "uint256",
						"numberOfBytes": "32"
					}
				}
			},
			"userdoc": {
				"kind": "user",
				"methods": {},
				"version": 1
			}
		}
	}
}